{
  "contractName": "Connect",
  "abi": [
    {
      "inputs": [
        {
          "internalType": "address",
          "name": "_to",
          "type": "address"
        },
        {
          "internalType": "uint256",
          "name": "_authLvl",
          "type": "uint256"
        },
        {
          "internalType": "uint256",
          "name": "_mode",
          "type": "uint256"
        }
      ],
      "name": "follow",
      "outputs": [
        {
          "internalType": "bool",
          "name": "",
          "type": "bool"
        }
      ],
      "stateMutability": "nonpayable",
      "type": "function"
    },
    {
      "inputs": [
        {
          "internalType": "string",
          "name": "_desc",
          "type": "string"
        }
      ],
      "name": "createConvo",
      "outputs": [
        {
          "internalType": "bool",
          "name": "",
          "type": "bool"
        }
      ],
      "stateMutability": "nonpayable",
      "type": "function"
    },
    {
      "inputs": [
        {
          "internalType": "address",
          "name": "_user",
          "type": "address"
        },
        {
          "internalType": "uint256",
          "name": "_gid",
          "type": "uint256"
        }
      ],
      "name": "addUserToConvo",
      "outputs": [
        {
          "internalType": "bool",
          "name": "",
          "type": "bool"
        }
      ],
      "stateMutability": "nonpayable",
      "type": "function"
    },
    {
      "inputs": [
        {
          "internalType": "uint256",
          "name": "_gid",
          "type": "uint256"
        },
        {
          "internalType": "uint256",
          "name": "_lvl",
          "type": "uint256"
        },
        {
          "internalType": "uint256",
          "name": "_cTyp",
          "type": "uint256"
        },
        {
          "internalType": "uint256",
          "name": "_pTyp",
          "type": "uint256"
        },
        {
          "internalType": "uint256",
          "name": "_price",
          "type": "uint256"
        },
        {
          "internalType": "string",
          "name": "_cnt",
          "type": "string"
        }
      ],
      "name": "addContentToConvo",
      "outputs": [
        {
          "internalType": "bool",
          "name": "",
          "type": "bool"
        }
      ],
      "stateMutability": "nonpayable",
      "type": "function"
    },
    {
      "inputs": [
        {
          "internalType": "uint256",
          "name": "_pid",
          "type": "uint256"
        }
      ],
      "name": "showContent",
      "outputs": [
        {
          "internalType": "string",
          "name": "",
          "type": "string"
        }
      ],
      "stateMutability": "view",
      "type": "function",
      "constant": true
    }
  ],
  "bytecode": "0x608060405234801561001057600080fd5b506115af806100206000396000f3fe608060405234801561001057600080fd5b50600436106100575760003560e01c806310dbf3c51461005c5780634f0592e71461008c5780635a71b339146100bc578063d17a335f146100ec578063ecc91d711461011c575b600080fd5b61007660048036038101906100719190611183565b61014c565b6040516100839190611247565b60405180910390f35b6100a660048036038101906100a19190611262565b61050b565b6040516100b39190611317565b60405180910390f35b6100d660048036038101906100d19190611397565b6105c2565b6040516100e39190611247565b60405180910390f35b610106600480360381019061010191906113d7565b61093d565b6040516101139190611247565b60405180910390f35b61013660048036038101906101319190611420565b610bc2565b6040516101439190611247565b60405180910390f35b600080600e888154811061016357610162611473565b5b90600052602060002090600702016040518060e001604052908160008201548152602001600182018054610196906114d1565b80601f01602080910402602001604051908101604052809291908181526020018280546101c2906114d1565b801561020f5780601f106101e45761010080835404028352916020019161020f565b820191906000526020600020905b8154815290600101906020018083116101f257829003601f168201915b505050505081526020016002820160009054906101000a900473ffffffffffffffffffffffffffffffffffffffff1673ffffffffffffffffffffffffffffffffffffffff1673ffffffffffffffffffffffffffffffffffffffff1681526020016003820154815260200160048201548152602001600582015481526020016006820154815250509050600854600c60008a815260200190815260200160002060008360c00151815260200190815260200160002081905550600760405180610120016040528060085481526020013373ffffffffffffffffffffffffffffffffffffffff16815260200189815260200188815260200187815260200186815260200185815260200160008152602001600081525090806001815401808255809150506001900390600052602060002090600902016000909190919091506000820151816000015560208201518160010160006101000a81548173ffffffffffffffffffffffffffffffffffffffff021916908373ffffffffffffffffffffffffffffffffffffffff16021790555060408201518160020155606082015181600301556080820151816004015560a0820151816005015560c08201518160060190805190602001906103e1929190610f50565b5060e0820151816007015561010082015181600801555050600854600560003373ffffffffffffffffffffffffffffffffffffffff1673ffffffffffffffffffffffffffffffffffffffff1681526020019081526020016000206000600660003373ffffffffffffffffffffffffffffffffffffffff1673ffffffffffffffffffffffffffffffffffffffff16815260200190815260200160002054815260200190815260200160002081905550600660003373ffffffffffffffffffffffffffffffffffffffff1673ffffffffffffffffffffffffffffffffffffffff16815260200190815260200160002060008154809291906104df90611531565b9190505550600860008154809291906104f790611531565b919050555060019150509695505050505050565b60606007828154811061052157610520611473565b5b9060005260206000209060090201600601805461053d906114d1565b80601f0160208091040260200160405190810160405280929190818152602001828054610569906114d1565b80156105b65780601f1061058b576101008083540402835291602001916105b6565b820191906000526020600020905b81548152906001019060200180831161059957829003601f168201915b50505050509050919050565b60003373ffffffffffffffffffffffffffffffffffffffff1660036000808673ffffffffffffffffffffffffffffffffffffffff1673ffffffffffffffffffffffffffffffffffffffff16815260200190815260200160002060003373ffffffffffffffffffffffffffffffffffffffff1673ffffffffffffffffffffffffffffffffffffffff168152602001908152602001600020548154811061066a57610669611473565b5b906000526020600020906005020160020160009054906101000a900473ffffffffffffffffffffffffffffffffffffffff1673ffffffffffffffffffffffffffffffffffffffff16146106bc57600080fd5b600460036000808673ffffffffffffffffffffffffffffffffffffffff1673ffffffffffffffffffffffffffffffffffffffff16815260200190815260200160002060003373ffffffffffffffffffffffffffffffffffffffff1673ffffffffffffffffffffffffffffffffffffffff168152602001908152602001600020548154811061074d5761074c611473565b5b906000526020600020906005020160030154111561076a57600080fd5b6000600e83815481106107805761077f611473565b5b90600052602060002090600702016040518060e0016040529081600082015481526020016001820180546107b3906114d1565b80601f01602080910402602001604051908101604052809291908181526020018280546107df906114d1565b801561082c5780601f106108015761010080835404028352916020019161082c565b820191906000526020600020905b81548152906001019060200180831161080f57829003601f168201915b505050505081526020016002820160009054906101000a900473ffffffffffffffffffffffffffffffffffffffff1673ffffffffffffffffffffffffffffffffffffffff1673ffffffffffffffffffffffffffffffffffffffff168152602001600382015481526020016004820154815260200160058201548152602001600682015481525050905083600b600085815260200190815260200160002060008360a00151815260200190815260200160002060006101000a81548173ffffffffffffffffffffffffffffffffffffffff021916908373ffffffffffffffffffffffffffffffffffffffff1602179055508060a001805180919061092e90611531565b81525050600191505092915050565b6000600e6040518060e00160405280600f5481526020018481526020013373ffffffffffffffffffffffffffffffffffffffff168152602001600081526020016000815260200160018152602001600081525090806001815401808255809150506001900390600052602060002090600702016000909190919091506000820151816000015560208201518160010190805190602001906109df929190610f50565b5060408201518160020160006101000a81548173ffffffffffffffffffffffffffffffffffffffff021916908373ffffffffffffffffffffffffffffffffffffffff160217905550606082015181600301556080820151816004015560a0820151816005015560c08201518160060155505033600b6000600f548152602001908152602001600020600080815260200190815260200160002060006101000a81548173ffffffffffffffffffffffffffffffffffffffff021916908373ffffffffffffffffffffffffffffffffffffffff160217905550600f54600a60003373ffffffffffffffffffffffffffffffffffffffff1673ffffffffffffffffffffffffffffffffffffffff1681526020019081526020016000206000600d60003373ffffffffffffffffffffffffffffffffffffffff1673ffffffffffffffffffffffffffffffffffffffff16815260200190815260200160002054815260200190815260200160002081905550600d60003373ffffffffffffffffffffffffffffffffffffffff1673ffffffffffffffffffffffffffffffffffffffff1681526020019081526020016000206000815480929190610b9c90611531565b9190505550600f6000815480929190610bb490611531565b919050555060019050919050565b6000803390506000859050610bd78633610ece565b73ffffffffffffffffffffffffffffffffffffffff168673ffffffffffffffffffffffffffffffffffffffff1603610c10578591503390505b60018060008473ffffffffffffffffffffffffffffffffffffffff1673ffffffffffffffffffffffffffffffffffffffff16815260200190815260200160002060008373ffffffffffffffffffffffffffffffffffffffff1673ffffffffffffffffffffffffffffffffffffffff16815260200190815260200160002060006101000a81548160ff02191690831515021790555060036040518060a0016040528060045481526020013373ffffffffffffffffffffffffffffffffffffffff1681526020018873ffffffffffffffffffffffffffffffffffffffff1681526020018781526020018681525090806001815401808255809150506001900390600052602060002090600502016000909190919091506000820151816000015560208201518160010160006101000a81548173ffffffffffffffffffffffffffffffffffffffff021916908373ffffffffffffffffffffffffffffffffffffffff16021790555060408201518160020160006101000a81548173ffffffffffffffffffffffffffffffffffffffff021916908373ffffffffffffffffffffffffffffffffffffffff160217905550606082015181600301556080820151816004015550506004546000803373ffffffffffffffffffffffffffffffffffffffff1673ffffffffffffffffffffffffffffffffffffffff16815260200190815260200160002060008873ffffffffffffffffffffffffffffffffffffffff1673ffffffffffffffffffffffffffffffffffffffff16815260200190815260200160002081905550600260003373ffffffffffffffffffffffffffffffffffffffff1673ffffffffffffffffffffffffffffffffffffffff1681526020019081526020016000206000815480929190610ea490611531565b919050555060046000815480929190610ebc90611531565b91905055506001925050509392505050565b6000808273ffffffffffffffffffffffffffffffffffffffff168473ffffffffffffffffffffffffffffffffffffffff161015610f0d57839050610f46565b8273ffffffffffffffffffffffffffffffffffffffff168473ffffffffffffffffffffffffffffffffffffffff161115610f45578290505b5b8091505092915050565b828054610f5c906114d1565b90600052602060002090601f016020900481019282610f7e5760008555610fc5565b82601f10610f9757805160ff1916838001178555610fc5565b82800160010185558215610fc5579182015b82811115610fc4578251825591602001919060010190610fa9565b5b509050610fd29190610fd6565b5090565b5b80821115610fef576000816000905550600101610fd7565b5090565b6000604051905090565b600080fd5b600080fd5b6000819050919050565b61101a81611007565b811461102557600080fd5b50565b60008135905061103781611011565b92915050565b600080fd5b600080fd5b6000601f19601f8301169050919050565b7f4e487b7100000000000000000000000000000000000000000000000000000000600052604160045260246000fd5b61109082611047565b810181811067ffffffffffffffff821117156110af576110ae611058565b5b80604052505050565b60006110c2610ff3565b90506110ce8282611087565b919050565b600067ffffffffffffffff8211156110ee576110ed611058565b5b6110f782611047565b9050602081019050919050565b82818337600083830152505050565b6000611126611121846110d3565b6110b8565b90508281526020810184848401111561114257611141611042565b5b61114d848285611104565b509392505050565b600082601f83011261116a5761116961103d565b5b813561117a848260208601611113565b91505092915050565b60008060008060008060c087890312156111a05761119f610ffd565b5b60006111ae89828a01611028565b96505060206111bf89828a01611028565b95505060406111d089828a01611028565b94505060606111e189828a01611028565b93505060806111f289828a01611028565b92505060a087013567ffffffffffffffff81111561121357611212611002565b5b61121f89828a01611155565b9150509295509295509295565b60008115159050919050565b6112418161122c565b82525050565b600060208201905061125c6000830184611238565b92915050565b60006020828403121561127857611277610ffd565b5b600061128684828501611028565b91505092915050565b600081519050919050565b600082825260208201905092915050565b60005b838110156112c95780820151818401526020810190506112ae565b838111156112d8576000848401525b50505050565b60006112e98261128f565b6112f3818561129a565b93506113038185602086016112ab565b61130c81611047565b840191505092915050565b6000602082019050818103600083015261133181846112de565b905092915050565b600073ffffffffffffffffffffffffffffffffffffffff82169050919050565b600061136482611339565b9050919050565b61137481611359565b811461137f57600080fd5b50565b6000813590506113918161136b565b92915050565b600080604083850312156113ae576113ad610ffd565b5b60006113bc85828601611382565b92505060206113cd85828601611028565b9150509250929050565b6000602082840312156113ed576113ec610ffd565b5b600082013567ffffffffffffffff81111561140b5761140a611002565b5b61141784828501611155565b91505092915050565b60008060006060848603121561143957611438610ffd565b5b600061144786828701611382565b935050602061145886828701611028565b925050604061146986828701611028565b9150509250925092565b7f4e487b7100000000000000000000000000000000000000000000000000000000600052603260045260246000fd5b7f4e487b7100000000000000000000000000000000000000000000000000000000600052602260045260246000fd5b600060028204905060018216806114e957607f821691505b6020821081036114fc576114fb6114a2565b5b50919050565b7f4e487b7100000000000000000000000000000000000000000000000000000000600052601160045260246000fd5b600061153c82611007565b91507fffffffffffffffffffffffffffffffffffffffffffffffffffffffffffffffff820361156e5761156d611502565b5b60018201905091905056fea2646970667358221220426b9beb0e8e0bafb8fe005e3962272402487a3fc759392d3843b7bc5c704d4264736f6c634300080e0033",
  "immutableReferences": {},
  "source": "// SPDX-License-Identifier: GPL-3.0\n// // // // // // // // // // // // // // // // // // // // // // // // // // // // // // // // // // // // // // // // // // // // // // // // // // // // // // // // // // // // //\n//   \n//              .d8888.  .d88b.  db    db d888888b d88888b d888888b db    db \n//              88'  YP .8P  88. `8b  d8'   `88'   88'     `~~88~~' `8b  d8' \n//              `8bo.   88  d'88  `8bd8'     88    88ooooo    88     `8bd8'  \n//                `Y8b. 88 d' 88  .dPYb.     88    88~~~~~    88       88    \n//              db   8D `88  d8' .8P  Y8.   .88.   88.        88       88    \n//              `8888Y'  `Y88P'  YP    YP Y888888P Y88888P    YP       YP \n// \n// // // // // // // // // // // // // // // // // // // // // // // // // // // // // // // // // // // // // // // // // // // // // // // // // // // // // // // // // // // // //\n//                                                                                                                                                                                  //\n//      @dev            ::              stereoIII6.dao                                                                                                                                          //\n//      @msg            ::              type.stereo@pm.me                                                                                                                                    //\n//      @github         ::              @stereoIII6 \n//      @twitter        ::              @stereoIII6                                                                                                                                              //\n//                                                                                                                                                                                      //\n//      @dev            ::                                                                                                                                                     //\n//      @msg            ::                                                                                                                                                  //\n//      @github         ::                                                                                                                                                           //\n//                                                                                                                                                                                      //\n//      @author         ::              stereoIII6.dao                                                                                                                                          //\n//      msg             ::              type.stereo@pm.me                                                                                                                                    //\n//      @github         ::              @stereoIII6 \n//      @twitter        ::              @stereoIII6                                                                                                                                             //\n//                                                                                                                                                                                  //\n// // // // // // // // // // // // // // // // // // // // // // // // // // // // // // // // // // // // // // // // // // // // // // // // // // // // // // // // // // // // //\n//                                                                                                                                                                                  //\n// // // // // // // // // // // // // // // // // // // // // // // // // // // // // // // // // // // // // // // // // // // // // // // // // // // // // // // // // // // // //\n//                                                                                                                                                                                  //\n//                                                                                                                                                                                  //\n//      @title          ::              Affily8                                                                                                                                     //\n//      @description    ::              decentral affiliate system                                                                                                            //\n//      @version        ::              0.0.1                                                                                                                                       //\n//      @purpose        ::              Refer friennds on the blockchain                                                                                                            //\n//                                                                                                                                                                                  //\n//                                                                                                                                                                                  //\n//                                                                                                                                                                                  //\n//                                                                                                                                                                                  //\n//                                                                                                                                                                                  //\n// // // // // // // // // // // // // // // // // // // // // // // // // // // // // // // // // // // // // // // // // // // // // // // // // // // // // // // // // // // // //\n\n\npragma solidity ^0.8.0;\n// Open Zeppelin Imports\n// import \"@openzeppelin/contracts/token/ERC20/ERC20.sol\";\nimport \"@openzeppelin/contracts/token/ERC20/IERC20.sol\";\n\nimport \"@openzeppelin/contracts/token/ERC721/ERC721.sol\";\nimport \"@openzeppelin/contracts/token/ERC721/IERC721.sol\";\n\n// import \"@openzeppelin/contracts/token/ERC1155/ERC1155.sol\";\nimport \"@openzeppelin/contracts/token/ERC1155/IERC1155.sol\";\ncontract Connect {\n\n    struct Connection{\n        uint256 xid;\n        address follower; \n        address following;\n        uint256 authorize; // 0-private , 1-close, 2-fam, 3-friends, 4-work, 5-friendsof, 6-public\n        uint256 mode; // 0-all, 1-pri, 2-mod, 3-sub, 4-mute, 5-block, 99-ban\n    }\n    mapping(address => mapping(address => uint256)) internal myConnex;\n    mapping(address => mapping(address => bool)) internal connected;\n    mapping(address => uint256) internal cxCount;\n    Connection[] internal connex;\n    uint256 internal c;\n\n    struct Content{\n        uint256 cid;\n        address owner;\n        uint256 authLevel; // 0-private , 1-closed, 2-fam, 3-friends, 4-work, 5-friendsof, 6-connected, 7-public, 99-multi\n        uint256 contentType; // 0-msg, 1-post, 2-clip, 3-poll, 4-nft, 5-dias\n        uint256 publishType; // 0-onchain, 1-ERC721 single, XX-ERC1155 poster\n        uint256 viewPrice;\n        bytes content;\n        uint256 likes;\n        uint256 views;\n    }\n    // user => mypostcount => postcount \n    mapping(address => mapping(uint256 => uint256)) internal myContent;\n    // user => mypostcount \n    mapping(address => uint256) internal myCC;\n    Content[] internal posts;\n    uint256 internal p;\n    // postcount => currency => amount // curr // 0-mlq, 1-lyx, 2-vyz\n    mapping(uint256 => mapping(uint256 => uint256)) internal contentSafe;\n\n    struct Convo{\n        uint256 gid;\n        bytes desc;\n        address owner;\n        uint256 likes;\n        uint256 views;\n        uint256 uSize;\n        uint256 cSize;\n    }\n    // user => myconvocount => convocount\n    mapping(address => mapping(uint256 => uint256)) internal myConvo;\n    // convoid => usercount => user\n    mapping(uint256 => mapping(uint256 => address)) internal usersByConvo;\n    // convoid => contentcount => contentid\n    mapping(uint256 => mapping(uint256 => uint256)) internal contentByConvo;\n    mapping(address => uint256) internal myCV;\n    Convo[] internal convos;\n    uint256 internal g;\n    mapping(uint256 => uint256) internal convoSafe;\n\n    function follow(address _to, uint256 _authLvl, uint256 _mode) external returns(bool){\n        address small = msg.sender;\n        address big = _to;\n        if(_to == smaller(_to, msg.sender)){\n            small = _to;\n            big = msg.sender;\n        }\n        connected[small][big] = true;\n        connex.push(Connection(c, msg.sender, _to, _authLvl,_mode));\n        myConnex[msg.sender][_to] = c;\n        cxCount[msg.sender]++;\n        c++;\n        return true;\n    }\n    function smaller(address _a, address _b) internal pure returns(address){\n        address ret;\n        if(_a < _b){ ret = _a; }\n        else if(_a > _b){ ret = _b; }\n        return ret;\n    }\n\n    function createConvo(string memory _desc) external returns(bool){\n        convos.push(Convo(g, bytes(_desc), msg.sender, 0, 0, 1, 0));\n        usersByConvo[g][0] = msg.sender;\n        myConvo[msg.sender][myCV[msg.sender]] = g;\n        myCV[msg.sender]++;\n        g++;\n        return true;\n    }\n    function addUserToConvo(address _user, uint256 _gid) external returns(bool){\n        require(connex[myConnex[_user][msg.sender]].following == msg.sender);\n        require(connex[myConnex[_user][msg.sender]].authorize <= 4);\n        Convo memory convo = convos[_gid];\n        usersByConvo[_gid][convo.uSize] = _user;\n        convo.uSize++;\n        return true;\n    }\n    function addContentToConvo(uint256 _gid, uint256 _lvl, uint256 _cTyp, uint256 _pTyp, uint256 _price, string memory _cnt) external returns(bool){\n        Convo memory convo = convos[_gid];\n        contentByConvo[_gid][convo.cSize] = p;\n        if(_pTyp == 1){\n            // mint 1 ERC721\n        }\n        if(_pTyp >= 2){\n            // mint x ERC1155\n        }\n        posts.push(Content(p, msg.sender, _lvl, _cTyp, _pTyp, _price, bytes(_cnt), 0, 0));\n        myContent[msg.sender][myCC[msg.sender]] = p;\n        myCC[msg.sender]++;\n        p++;\n        return true;\n    }\n\n    function showContent(uint256 _pid) external view returns(string memory){\n           return string(posts[_pid].content);\n    }\n\n}",
  "sourcePath": "/Users/jediswag/Documents/GitHub/impactmarket/contracts/Connect.sol",
  "compiler": {
    "name": "solc",
    "version": "0.8.14+commit.80d49f37.Emscripten.clang"
  },
  "schemaVersion": "3.4.4",
  "updatedAt": "2022-05-19T20:36:10.513Z",
  "networkType": "ethereum",
  "devdoc": {
    "kind": "dev",
    "methods": {},
    "version": 1
  },
  "userdoc": {
    "kind": "user",
    "methods": {},
    "version": 1
  }
}