{
  "contractName": "fx",
  "abi": [
    {
      "inputs": [],
      "name": "initMlqRate",
      "outputs": [
        {
          "internalType": "uint256",
          "name": "",
          "type": "uint256"
        }
      ],
      "stateMutability": "view",
      "type": "function"
    },
    {
      "inputs": [],
      "name": "lyxMax",
      "outputs": [
        {
          "internalType": "uint256",
          "name": "",
          "type": "uint256"
        }
      ],
      "stateMutability": "view",
      "type": "function"
    },
    {
      "inputs": [],
      "name": "lyxRate",
      "outputs": [
        {
          "internalType": "uint256",
          "name": "",
          "type": "uint256"
        }
      ],
      "stateMutability": "view",
      "type": "function"
    },
    {
      "inputs": [],
      "name": "mlqMax",
      "outputs": [
        {
          "internalType": "uint256",
          "name": "",
          "type": "uint256"
        }
      ],
      "stateMutability": "view",
      "type": "function"
    },
    {
      "inputs": [],
      "name": "shqMax",
      "outputs": [
        {
          "internalType": "uint256",
          "name": "",
          "type": "uint256"
        }
      ],
      "stateMutability": "view",
      "type": "function"
    },
    {
      "inputs": [],
      "name": "vyzMax",
      "outputs": [
        {
          "internalType": "uint256",
          "name": "",
          "type": "uint256"
        }
      ],
      "stateMutability": "view",
      "type": "function"
    },
    {
      "inputs": [],
      "name": "vyzRate",
      "outputs": [
        {
          "internalType": "uint256",
          "name": "",
          "type": "uint256"
        }
      ],
      "stateMutability": "view",
      "type": "function"
    }
  ],
  "bytecode": "0x6102c8610053600b82828239805160001a607314610046577f4e487b7100000000000000000000000000000000000000000000000000000000600052600060045260246000fd5b30600052607381538281f3fe73000000000000000000000000000000000000000030146080604052600436106100875760003560e01c8063529fc7e611610065578063529fc7e6146100e6578063541a1b15146101045780638e0540a014610122578063ad96fce61461014057610087565b80633a1ffc5e1461008c57806349d4df1b146100aa5780634f609d7b146100c8575b600080fd5b61009461015e565b6040516100a191906101ee565b60405180910390f35b6100b2610163565b6040516100bf91906101ee565b60405180910390f35b6100d0610169565b6040516100dd91906101ee565b60405180910390f35b6100ee610185565b6040516100fb91906101ee565b60405180910390f35b61010c61019f565b60405161011991906101ee565b60405180910390f35b61012a6101b3565b60405161013791906101ee565b60405180910390f35b6101486101ce565b60405161015591906101ee565b60405180910390f35b606481565b61271081565b670de0b6b3a76400006406fc23ac006101829190610238565b81565b670de0b6b3a7640000622dc6c061019c9190610238565b81565b6305f5e10060646101b09190610238565b81565b670de0b6b3a76400006311e1a3006101cb9190610238565b81565b620f424081565b6000819050919050565b6101e8816101d5565b82525050565b600060208201905061020360008301846101df565b92915050565b7f4e487b7100000000000000000000000000000000000000000000000000000000600052601160045260246000fd5b6000610243826101d5565b915061024e836101d5565b9250817fffffffffffffffffffffffffffffffffffffffffffffffffffffffffffffffff048311821515161561028757610286610209565b5b82820290509291505056fea26469706673582212207ad685e6e3a765a07a6db3c9bcbbe33ae5d8af4ef64789b9e8bf489b36c901a064736f6c634300080e0033",
  "immutableReferences": {},
  "source": "// SPDX-License-Identifier: GPL-3.0\n// // // // // // // // // // // // // // // // // // // // // // // // // // // // // // // // // // // // // // // // // // // // // // // // // // // // // // // // // // // // //\n//   \n//              .d8888.  .d88b.  db    db d888888b d88888b d888888b db    db \n//              88'  YP .8P  88. `8b  d8'   `88'   88'     `~~88~~' `8b  d8' \n//              `8bo.   88  d'88  `8bd8'     88    88ooooo    88     `8bd8'  \n//                `Y8b. 88 d' 88  .dPYb.     88    88~~~~~    88       88    \n//              db   8D `88  d8' .8P  Y8.   .88.   88.        88       88    \n//              `8888Y'  `Y88P'  YP    YP Y888888P Y88888P    YP       YP \n// \n// // // // // // // // // // // // // // // // // // // // // // // // // // // // // // // // // // // // // // // // // // // // // // // // // // // // // // // // // // // // //\n//                                                                                                                                                                                  //\n//      @dev            ::              stereoIII6.dao                                                                                                                                          //\n//      @msg            ::              type.stereo@pm.me                                                                                                                                    //\n//      @github         ::              @stereoIII6 \n//      @twitter        ::              @stereoIII6                                                                                                                                              //\n//                                                                                                                                                                                      //\n//      @dev            ::              willdera.eth                                                                                                                                          //\n//      @msg            ::                                                                                                                                                  //\n//      @github         ::              @willdera                                                                                                                                              //\n//                                                                                                                                                                                      //\n//      @author         ::              stereoIII6.dao                                                                                                                                          //\n//      msg             ::              type.stereo@pm.me                                                                                                                                    //\n//      @github         ::              @stereoIII6 \n//      @twitter        ::              @stereoIII6                                                                                                                                             //\n//                                                                                                                                                                                  //\n// // // // // // // // // // // // // // // // // // // // // // // // // // // // // // // // // // // // // // // // // // // // // // // // // // // // // // // // // // // // //\n//                                                                                                                                                                                  //\n// // // // // // // // // // // // // // // // // // // // // // // // // // // // // // // // // // // // // // // // // // // // // // // // // // // // // // // // // // // // //\n//                                                                                                                                                                                  //\n//                                                                                                                                                                                  //\n//      @title          ::              Affily8                                                                                                                                     //\n//      @description    ::              decentral affiliate system                                                                                                            //\n//      @version        ::              0.0.1                                                                                                                                       //\n//      @purpose        ::              Refer friennds on the blockchain                                                                                                            //\n//                                                                                                                                                                                  //\n//                                                                                                                                                                                  //\n//                                                                                                                                                                                  //\n//                                                                                                                                                                                  //\n//                                                                                                                                                                                  //\n// // // // // // // // // // // // // // // // // // // // // // // // // // // // // // // // // // // // // // // // // // // // // // // // // // // // // // // // // // // // //\n\n\npragma solidity ^0.8.0;\n// Open Zeppelin Imports\n// import \"@openzeppelin/contracts/token/ERC20/ERC20.sol\";\nimport \"@openzeppelin/contracts/token/ERC20/IERC20.sol\";\n\nimport \"@openzeppelin/contracts/token/ERC721/ERC721.sol\";\nimport \"@openzeppelin/contracts/token/ERC721/IERC721.sol\";\n\n// import \"@openzeppelin/contracts/token/ERC1155/ERC1155.sol\";\nimport \"@openzeppelin/contracts/token/ERC1155/IERC1155.sol\";\n\n// Chainlink Imports\n// import \"@chainlink/contracts/src/v0.8/VRFConsumerBase.sol\";\n// import \"./Nft_Project.sol\";\nlibrary fx{\n    uint256 constant weidig = 1 * 10 ** 18;\n    uint256 constant findig = 1 * 10 ** 14;\n    uint256 constant shqdig = 1 * 10 ** 8;\n    uint256 public constant mlqMax = 3000000 * weidig;\n    uint256 public constant lyxMax = 300000000 * weidig;\n    uint256 public constant vyzMax = 30000000000 * weidig;\n    uint256 public constant shqMax = 100 * shqdig;\n    uint256 public constant initMlqRate = 100; // 1 ETH == (initMlqRate) MLQ\n    uint256 public constant lyxRate = 10000; // 1 ETH == (lyxRate) LYX\n    uint256 public constant vyzRate = 1000000; // 1 ETH == (vyzRate) VYZ\n\n}\ncontract TokenomicSets{\n    using fx for *;\n    uint256 public mlqRate; // is to be updated \n    IERC20 internal iUSDC;\n    IERC20 internal iWETH;\n    IERC20 internal iMLQ;\n    IERC20 internal iLYX;\n    IERC20 internal iVYZ;\n    IERC20 internal M_SHQ;\n    IERC20 internal L_SHQ;\n    IERC20 internal V_SHQ;\n    IERC20 internal X_SHQ;\n    IERC20 internal R_SHQ;\n    IERC20 internal Token20;\n\n    \n    uint256 public mlqLive;\n    uint256 public lyxLive;\n    uint256 public vyzLive;\n    uint256 public mlqLocked;\n    uint256 public lyxLocked;\n    uint256 public vyzLocked;\n\n    uint256 public roy;\n    \n    function setTokenContract(address _contractAddress, uint256 _curr) external returns(bool){ // curr == 0-usdc, 1-weth, 2-mlq, 3-lyx, 4-vyz, 5-mshk, 6-lshk, 7-vshk, 8-xshk, 9-rshk\n        if(_curr == 0) iUSDC = IERC20(_contractAddress);\n        if(_curr == 1) iWETH = IERC20(_contractAddress);\n        if(_curr == 2) iMLQ = IERC20(_contractAddress);\n        if(_curr == 3) iLYX = IERC20(_contractAddress);\n        if(_curr == 4) iVYZ = IERC20(_contractAddress);\n        if(_curr == 5) M_SHQ = IERC20(_contractAddress);\n        if(_curr == 6) L_SHQ = IERC20(_contractAddress);\n        if(_curr == 7) V_SHQ = IERC20(_contractAddress);\n        if(_curr == 8) X_SHQ = IERC20(_contractAddress); \n        if(_curr == 9) R_SHQ = IERC20(_contractAddress);\n        return true;\n    }\n    function setMlqRate(uint256 _newRate) internal returns(bool){\n        mlqRate = _newRate;\n        return (mlqRate == _newRate);\n    }\n\n}\ncontract Init is TokenomicSets {\n    address public author;\n    address public avax;\n    mapping(address => uint256) internal role;\n    mapping(address => bytes) internal uData;\n    \n   \n    mapping(address => bool) internal isUser;\n    mapping(address => bool) internal blacklist;\n    event Log(uint256 indexed id, address sender, address home, uint256 num, bytes message, uint256 stamp);\n    event Wait(uint256 indexed id, address sender, address home, uint256 num, bytes message, uint256 stamp);\n    uint256 logs;\n    modifier isAdmin() {\n        require(role[msg.sender] == 99, \"you're not admin\");\n        _;\n    }\n    modifier isOwner() {\n        require(author == msg.sender || avax == msg.sender, \"you're not owner\");\n        _;\n    }\n    constructor(address _auth, address _avx) {\n        author = _auth;\n        avax = _avx;\n        isUser[author] = true;\n        role[author] = 99;\n        uData[author] = bytes('{\"username\": \"stereo\",\"usermail\": \"type.stereo@pm.me\",\"usertel\": \"00491631107542\",\"usertwt\": \"@stereoIII6\",\"userstatus\": \"its all reel\" ,\"useravt\":  \"https://www.w3schools.com/w3images/avatar2.png\",\"role\": \"99\"}');\n        isUser[avax] = true;\n        role[avax] = 99;\n        uData[avax] = bytes('{\"username\": \"stereo\",\"usermail\": \"type.stereo@pm.me\",\"usertel\": \"00491631107542\",\"usertwt\": \"@stereoIII6\",\"userstatus\": \"its all reel\" ,\"useravt\":  \"https://www.w3schools.com/w3images/avatar2.png\",\"role\": \"99\"}');\n        setMlqRate(fx.initMlqRate);\n    }\n    function getRole(address _adr) external view returns(uint256){\n        return role[_adr];\n    }\n    function isUserBool(address _adr) external view returns(bool){\n        return isUser[_adr];\n    }\n    function editU(address _to, uint256 _role, string memory _data, bool _legit) external isAdmin() returns(bool){\n        isUser[_to] = _legit;\n        if(_legit == false) blacklist[_to] = true;\n        role[_to] = _role;\n        uData[_to] = bytes(_data);\n        return isUser[_to];\n    }\n    function blackList(address _to) external isAdmin() returns(bool){\n        blacklist[_to] = true;\n        return true;\n    }\n    function editMe(string memory _data) external returns(bool){\n        role[msg.sender] = role[msg.sender];\n        uData[msg.sender] = bytes(_data);\n        return true;\n    }\n    function makeU(string memory _data) external returns(bool){\n        require(isUser[msg.sender] == false, \"not a user\");\n        require(blacklist[msg.sender] == false, \"blacklisted\");\n        isUser[msg.sender] = true;\n        role[msg.sender] = 1;\n        uData[msg.sender] = bytes(_data);\n        return true;\n    }\n    function showU() external view returns(string memory, uint256){\n        return(string(uData[msg.sender]),role[msg.sender]);\n    }\n    function showAny(address _to) external view returns(string memory, uint256){\n        return(string(uData[_to]),role[_to]);\n    }\n    function withdrawToken(address _contract) external isAdmin() returns(bool){\n        Token20 = IERC20(_contract);  \n        Token20.transfer(msg.sender,Token20.balanceOf(address(this)));\n        return true;\n    }\n    \n    function divide(uint256 _a, uint256 _b) internal pure returns(uint256 res){\n        uint256 rem = _a % _b;\n        res = (_a - rem) / _b;\n    }\n    fallback() external{\n\n    }\n}",
  "sourcePath": "/Users/jediswag/Documents/GitHub/impactmarket/contracts/Init.sol",
  "compiler": {
    "name": "solc",
    "version": "0.8.14+commit.80d49f37.Emscripten.clang"
  },
  "schemaVersion": "3.4.4",
  "updatedAt": "2022-05-19T20:34:10.222Z",
  "devdoc": {
    "kind": "dev",
    "methods": {},
    "version": 1
  },
  "userdoc": {
    "kind": "user",
    "methods": {},
    "version": 1
  }
}