{
  "contractName": "GovernanceMembership",
  "abi": [
    {
      "inputs": [],
      "stateMutability": "nonpayable",
      "type": "constructor"
    },
    {
      "anonymous": false,
      "inputs": [
        {
          "indexed": true,
          "internalType": "address",
          "name": "owner",
          "type": "address"
        },
        {
          "indexed": true,
          "internalType": "address",
          "name": "approved",
          "type": "address"
        },
        {
          "indexed": true,
          "internalType": "uint256",
          "name": "tokenId",
          "type": "uint256"
        }
      ],
      "name": "Approval",
      "type": "event"
    },
    {
      "anonymous": false,
      "inputs": [
        {
          "indexed": true,
          "internalType": "address",
          "name": "owner",
          "type": "address"
        },
        {
          "indexed": true,
          "internalType": "address",
          "name": "operator",
          "type": "address"
        },
        {
          "indexed": false,
          "internalType": "bool",
          "name": "approved",
          "type": "bool"
        }
      ],
      "name": "ApprovalForAll",
      "type": "event"
    },
    {
      "anonymous": false,
      "inputs": [
        {
          "indexed": true,
          "internalType": "address",
          "name": "from",
          "type": "address"
        },
        {
          "indexed": true,
          "internalType": "address",
          "name": "to",
          "type": "address"
        },
        {
          "indexed": true,
          "internalType": "uint256",
          "name": "tokenId",
          "type": "uint256"
        }
      ],
      "name": "Transfer",
      "type": "event"
    },
    {
      "inputs": [
        {
          "internalType": "address",
          "name": "to",
          "type": "address"
        },
        {
          "internalType": "uint256",
          "name": "tokenId",
          "type": "uint256"
        }
      ],
      "name": "approve",
      "outputs": [],
      "stateMutability": "nonpayable",
      "type": "function"
    },
    {
      "inputs": [
        {
          "internalType": "address",
          "name": "owner",
          "type": "address"
        }
      ],
      "name": "balanceOf",
      "outputs": [
        {
          "internalType": "uint256",
          "name": "",
          "type": "uint256"
        }
      ],
      "stateMutability": "view",
      "type": "function"
    },
    {
      "inputs": [
        {
          "internalType": "uint256",
          "name": "tokenId",
          "type": "uint256"
        }
      ],
      "name": "getApproved",
      "outputs": [
        {
          "internalType": "address",
          "name": "",
          "type": "address"
        }
      ],
      "stateMutability": "view",
      "type": "function"
    },
    {
      "inputs": [
        {
          "internalType": "address",
          "name": "owner",
          "type": "address"
        },
        {
          "internalType": "address",
          "name": "operator",
          "type": "address"
        }
      ],
      "name": "isApprovedForAll",
      "outputs": [
        {
          "internalType": "bool",
          "name": "",
          "type": "bool"
        }
      ],
      "stateMutability": "view",
      "type": "function"
    },
    {
      "inputs": [],
      "name": "name",
      "outputs": [
        {
          "internalType": "string",
          "name": "",
          "type": "string"
        }
      ],
      "stateMutability": "view",
      "type": "function"
    },
    {
      "inputs": [
        {
          "internalType": "uint256",
          "name": "tokenId",
          "type": "uint256"
        }
      ],
      "name": "ownerOf",
      "outputs": [
        {
          "internalType": "address",
          "name": "",
          "type": "address"
        }
      ],
      "stateMutability": "view",
      "type": "function"
    },
    {
      "inputs": [
        {
          "internalType": "address",
          "name": "from",
          "type": "address"
        },
        {
          "internalType": "address",
          "name": "to",
          "type": "address"
        },
        {
          "internalType": "uint256",
          "name": "tokenId",
          "type": "uint256"
        }
      ],
      "name": "safeTransferFrom",
      "outputs": [],
      "stateMutability": "nonpayable",
      "type": "function"
    },
    {
      "inputs": [
        {
          "internalType": "address",
          "name": "from",
          "type": "address"
        },
        {
          "internalType": "address",
          "name": "to",
          "type": "address"
        },
        {
          "internalType": "uint256",
          "name": "tokenId",
          "type": "uint256"
        },
        {
          "internalType": "bytes",
          "name": "_data",
          "type": "bytes"
        }
      ],
      "name": "safeTransferFrom",
      "outputs": [],
      "stateMutability": "nonpayable",
      "type": "function"
    },
    {
      "inputs": [
        {
          "internalType": "address",
          "name": "operator",
          "type": "address"
        },
        {
          "internalType": "bool",
          "name": "approved",
          "type": "bool"
        }
      ],
      "name": "setApprovalForAll",
      "outputs": [],
      "stateMutability": "nonpayable",
      "type": "function"
    },
    {
      "inputs": [
        {
          "internalType": "bytes4",
          "name": "interfaceId",
          "type": "bytes4"
        }
      ],
      "name": "supportsInterface",
      "outputs": [
        {
          "internalType": "bool",
          "name": "",
          "type": "bool"
        }
      ],
      "stateMutability": "view",
      "type": "function"
    },
    {
      "inputs": [],
      "name": "symbol",
      "outputs": [
        {
          "internalType": "string",
          "name": "",
          "type": "string"
        }
      ],
      "stateMutability": "view",
      "type": "function"
    },
    {
      "inputs": [
        {
          "internalType": "uint256",
          "name": "tokenId",
          "type": "uint256"
        }
      ],
      "name": "tokenURI",
      "outputs": [
        {
          "internalType": "string",
          "name": "",
          "type": "string"
        }
      ],
      "stateMutability": "view",
      "type": "function"
    },
    {
      "inputs": [
        {
          "internalType": "address",
          "name": "from",
          "type": "address"
        },
        {
          "internalType": "address",
          "name": "to",
          "type": "address"
        },
        {
          "internalType": "uint256",
          "name": "tokenId",
          "type": "uint256"
        }
      ],
      "name": "transferFrom",
      "outputs": [],
      "stateMutability": "nonpayable",
      "type": "function"
    },
    {
      "inputs": [
        {
          "internalType": "address",
          "name": "_newMember",
          "type": "address"
        },
        {
          "internalType": "uint256",
          "name": "_amount",
          "type": "uint256"
        }
      ],
      "name": "mint",
      "outputs": [],
      "stateMutability": "nonpayable",
      "type": "function"
    }
  ],
  "bytecode": "0x6080604052731cd6f4d329d38043a6bdb3665c3a7b06f79b5242600660006101000a81548173ffffffffffffffffffffffffffffffffffffffff021916908373ffffffffffffffffffffffffffffffffffffffff1602179055503480156200006657600080fd5b506040518060400160405280601c81526020017f476f7665726e616e6365204d656d6265727368697020546f6b656e73000000008152506040518060400160405280600381526020017f474d5400000000000000000000000000000000000000000000000000000000008152508160009080519060200190620000eb9291906200010d565b508060019080519060200190620001049291906200010d565b50505062000221565b8280546200011b90620001ec565b90600052602060002090601f0160209004810192826200013f57600085556200018b565b82601f106200015a57805160ff19168380011785556200018b565b828001600101855582156200018b579182015b828111156200018a5782518255916020019190600101906200016d565b5b5090506200019a91906200019e565b5090565b5b80821115620001b95760008160009055506001016200019f565b5090565b7f4e487b7100000000000000000000000000000000000000000000000000000000600052602260045260246000fd5b600060028204905060018216806200020557607f821691505b6020821081036200021b576200021a620001bd565b5b50919050565b61272680620002316000396000f3fe608060405234801561001057600080fd5b50600436106100ea5760003560e01c80636352211e1161008c578063a22cb46511610066578063a22cb4651461025b578063b88d4fde14610277578063c87b56dd14610293578063e985e9c5146102c3576100ea565b80636352211e146101dd57806370a082311461020d57806395d89b411461023d576100ea565b8063095ea7b3116100c8578063095ea7b31461016d57806323b872dd1461018957806340c10f19146101a557806342842e0e146101c1576100ea565b806301ffc9a7146100ef57806306fdde031461011f578063081812fc1461013d575b600080fd5b610109600480360381019061010491906116ab565b6102f3565b60405161011691906116f3565b60405180910390f35b6101276103d5565b60405161013491906117a7565b60405180910390f35b610157600480360381019061015291906117ff565b610467565b604051610164919061186d565b60405180910390f35b610187600480360381019061018291906118b4565b6104ec565b005b6101a3600480360381019061019e91906118f4565b610603565b005b6101bf60048036038101906101ba91906118b4565b610663565b005b6101db60048036038101906101d691906118f4565b6106cb565b005b6101f760048036038101906101f291906117ff565b6106eb565b604051610204919061186d565b60405180910390f35b61022760048036038101906102229190611947565b61079c565b6040516102349190611983565b60405180910390f35b610245610853565b60405161025291906117a7565b60405180910390f35b610275600480360381019061027091906119ca565b6108e5565b005b610291600480360381019061028c9190611b3f565b6108fb565b005b6102ad60048036038101906102a891906117ff565b61095d565b6040516102ba91906117a7565b60405180910390f35b6102dd60048036038101906102d89190611bc2565b610a04565b6040516102ea91906116f3565b60405180910390f35b60007f80ac58cd000000000000000000000000000000000000000000000000000000007bffffffffffffffffffffffffffffffffffffffffffffffffffffffff1916827bffffffffffffffffffffffffffffffffffffffffffffffffffffffff191614806103be57507f5b5e139f000000000000000000000000000000000000000000000000000000007bffffffffffffffffffffffffffffffffffffffffffffffffffffffff1916827bffffffffffffffffffffffffffffffffffffffffffffffffffffffff1916145b806103ce57506103cd82610a98565b5b9050919050565b6060600080546103e490611c31565b80601f016020809104026020016040519081016040528092919081815260200182805461041090611c31565b801561045d5780601f106104325761010080835404028352916020019161045d565b820191906000526020600020905b81548152906001019060200180831161044057829003601f168201915b5050505050905090565b600061047282610b02565b6104b1576040517f08c379a00000000000000000000000000000000000000000000000000000000081526004016104a890611cd4565b60405180910390fd5b6004600083815260200190815260200160002060009054906101000a900473ffffffffffffffffffffffffffffffffffffffff169050919050565b60006104f7826106eb565b90508073ffffffffffffffffffffffffffffffffffffffff168373ffffffffffffffffffffffffffffffffffffffff1603610567576040517f08c379a000000000000000000000000000000000000000000000000000000000815260040161055e90611d66565b60405180910390fd5b8073ffffffffffffffffffffffffffffffffffffffff16610586610b6e565b73ffffffffffffffffffffffffffffffffffffffff1614806105b557506105b4816105af610b6e565b610a04565b5b6105f4576040517f08c379a00000000000000000000000000000000000000000000000000000000081526004016105eb90611df8565b60405180910390fd5b6105fe8383610b76565b505050565b61061461060e610b6e565b82610c2f565b610653576040517f08c379a000000000000000000000000000000000000000000000000000000000815260040161064a90611e8a565b60405180910390fd5b61065e838383610d0d565b505050565b600660009054906101000a900473ffffffffffffffffffffffffffffffffffffffff1673ffffffffffffffffffffffffffffffffffffffff163373ffffffffffffffffffffffffffffffffffffffff16146106bd57600080fd5b6106c78282610f73565b5050565b6106e6838383604051806020016040528060008152506108fb565b505050565b6000806002600084815260200190815260200160002060009054906101000a900473ffffffffffffffffffffffffffffffffffffffff169050600073ffffffffffffffffffffffffffffffffffffffff168173ffffffffffffffffffffffffffffffffffffffff1603610793576040517f08c379a000000000000000000000000000000000000000000000000000000000815260040161078a90611f1c565b60405180910390fd5b80915050919050565b60008073ffffffffffffffffffffffffffffffffffffffff168273ffffffffffffffffffffffffffffffffffffffff160361080c576040517f08c379a000000000000000000000000000000000000000000000000000000000815260040161080390611fae565b60405180910390fd5b600360008373ffffffffffffffffffffffffffffffffffffffff1673ffffffffffffffffffffffffffffffffffffffff168152602001908152602001600020549050919050565b60606001805461086290611c31565b80601f016020809104026020016040519081016040528092919081815260200182805461088e90611c31565b80156108db5780601f106108b0576101008083540402835291602001916108db565b820191906000526020600020905b8154815290600101906020018083116108be57829003601f168201915b5050505050905090565b6108f76108f0610b6e565b838361114c565b5050565b61090c610906610b6e565b83610c2f565b61094b576040517f08c379a000000000000000000000000000000000000000000000000000000000815260040161094290611e8a565b60405180910390fd5b610957848484846112b8565b50505050565b606061096882610b02565b6109a7576040517f08c379a000000000000000000000000000000000000000000000000000000000815260040161099e90612040565b60405180910390fd5b60006109b1611314565b905060008151116109d157604051806020016040528060008152506109fc565b806109db8461132b565b6040516020016109ec92919061209c565b6040516020818303038152906040525b915050919050565b6000600560008473ffffffffffffffffffffffffffffffffffffffff1673ffffffffffffffffffffffffffffffffffffffff16815260200190815260200160002060008373ffffffffffffffffffffffffffffffffffffffff1673ffffffffffffffffffffffffffffffffffffffff16815260200190815260200160002060009054906101000a900460ff16905092915050565b60007f01ffc9a7000000000000000000000000000000000000000000000000000000007bffffffffffffffffffffffffffffffffffffffffffffffffffffffff1916827bffffffffffffffffffffffffffffffffffffffffffffffffffffffff1916149050919050565b60008073ffffffffffffffffffffffffffffffffffffffff166002600084815260200190815260200160002060009054906101000a900473ffffffffffffffffffffffffffffffffffffffff1673ffffffffffffffffffffffffffffffffffffffff1614159050919050565b600033905090565b816004600083815260200190815260200160002060006101000a81548173ffffffffffffffffffffffffffffffffffffffff021916908373ffffffffffffffffffffffffffffffffffffffff160217905550808273ffffffffffffffffffffffffffffffffffffffff16610be9836106eb565b73ffffffffffffffffffffffffffffffffffffffff167f8c5be1e5ebec7d5bd14f71427d1e84f3dd0314c0f7b2291e5b200ac8c7c3b92560405160405180910390a45050565b6000610c3a82610b02565b610c79576040517f08c379a0000000000000000000000000000000000000000000000000000000008152600401610c7090612132565b60405180910390fd5b6000610c84836106eb565b90508073ffffffffffffffffffffffffffffffffffffffff168473ffffffffffffffffffffffffffffffffffffffff161480610cf357508373ffffffffffffffffffffffffffffffffffffffff16610cdb84610467565b73ffffffffffffffffffffffffffffffffffffffff16145b80610d045750610d038185610a04565b5b91505092915050565b8273ffffffffffffffffffffffffffffffffffffffff16610d2d826106eb565b73ffffffffffffffffffffffffffffffffffffffff1614610d83576040517f08c379a0000000000000000000000000000000000000000000000000000000008152600401610d7a906121c4565b60405180910390fd5b600073ffffffffffffffffffffffffffffffffffffffff168273ffffffffffffffffffffffffffffffffffffffff1603610df2576040517f08c379a0000000000000000000000000000000000000000000000000000000008152600401610de990612256565b60405180910390fd5b610dfd83838361148b565b610e08600082610b76565b6001600360008573ffffffffffffffffffffffffffffffffffffffff1673ffffffffffffffffffffffffffffffffffffffff1681526020019081526020016000206000828254610e5891906122a5565b925050819055506001600360008473ffffffffffffffffffffffffffffffffffffffff1673ffffffffffffffffffffffffffffffffffffffff1681526020019081526020016000206000828254610eaf91906122d9565b92505081905550816002600083815260200190815260200160002060006101000a81548173ffffffffffffffffffffffffffffffffffffffff021916908373ffffffffffffffffffffffffffffffffffffffff160217905550808273ffffffffffffffffffffffffffffffffffffffff168473ffffffffffffffffffffffffffffffffffffffff167fddf252ad1be2c89b69c2b068fc378daa952ba7f163c4a11628f55a4df523b3ef60405160405180910390a4610f6e838383611490565b505050565b600073ffffffffffffffffffffffffffffffffffffffff168273ffffffffffffffffffffffffffffffffffffffff1603610fe2576040517f08c379a0000000000000000000000000000000000000000000000000000000008152600401610fd99061237b565b60405180910390fd5b610feb81610b02565b1561102b576040517f08c379a0000000000000000000000000000000000000000000000000000000008152600401611022906123e7565b60405180910390fd5b6110376000838361148b565b6001600360008473ffffffffffffffffffffffffffffffffffffffff1673ffffffffffffffffffffffffffffffffffffffff168152602001908152602001600020600082825461108791906122d9565b92505081905550816002600083815260200190815260200160002060006101000a81548173ffffffffffffffffffffffffffffffffffffffff021916908373ffffffffffffffffffffffffffffffffffffffff160217905550808273ffffffffffffffffffffffffffffffffffffffff16600073ffffffffffffffffffffffffffffffffffffffff167fddf252ad1be2c89b69c2b068fc378daa952ba7f163c4a11628f55a4df523b3ef60405160405180910390a461114860008383611490565b5050565b8173ffffffffffffffffffffffffffffffffffffffff168373ffffffffffffffffffffffffffffffffffffffff16036111ba576040517f08c379a00000000000000000000000000000000000000000000000000000000081526004016111b190612453565b60405180910390fd5b80600560008573ffffffffffffffffffffffffffffffffffffffff1673ffffffffffffffffffffffffffffffffffffffff16815260200190815260200160002060008473ffffffffffffffffffffffffffffffffffffffff1673ffffffffffffffffffffffffffffffffffffffff16815260200190815260200160002060006101000a81548160ff0219169083151502179055508173ffffffffffffffffffffffffffffffffffffffff168373ffffffffffffffffffffffffffffffffffffffff167f17307eab39ab6107e8899845ad3d59bd9653f200f220920489ca2b5937696c31836040516112ab91906116f3565b60405180910390a3505050565b6112c3848484610d0d565b6112cf84848484611495565b61130e576040517f08c379a0000000000000000000000000000000000000000000000000000000008152600401611305906124e5565b60405180910390fd5b50505050565b606060405180602001604052806000815250905090565b606060008203611372576040518060400160405280600181526020017f30000000000000000000000000000000000000000000000000000000000000008152509050611486565b600082905060005b600082146113a457808061138d90612505565b915050600a8261139d919061257c565b915061137a565b60008167ffffffffffffffff8111156113c0576113bf611a14565b5b6040519080825280601f01601f1916602001820160405280156113f25781602001600182028036833780820191505090505b5090505b6000851461147f5760018261140b91906122a5565b9150600a8561141a91906125ad565b603061142691906122d9565b60f81b81838151811061143c5761143b6125de565b5b60200101907effffffffffffffffffffffffffffffffffffffffffffffffffffffffffffff1916908160001a905350600a85611478919061257c565b94506113f6565b8093505050505b919050565b505050565b505050565b60006114b68473ffffffffffffffffffffffffffffffffffffffff1661161c565b1561160f578373ffffffffffffffffffffffffffffffffffffffff1663150b7a026114df610b6e565b8786866040518563ffffffff1660e01b81526004016115019493929190612662565b6020604051808303816000875af192505050801561153d57506040513d601f19601f8201168201806040525081019061153a91906126c3565b60015b6115bf573d806000811461156d576040519150601f19603f3d011682016040523d82523d6000602084013e611572565b606091505b5060008151036115b7576040517f08c379a00000000000000000000000000000000000000000000000000000000081526004016115ae906124e5565b60405180910390fd5b805181602001fd5b63150b7a0260e01b7bffffffffffffffffffffffffffffffffffffffffffffffffffffffff1916817bffffffffffffffffffffffffffffffffffffffffffffffffffffffff191614915050611614565b600190505b949350505050565b6000808273ffffffffffffffffffffffffffffffffffffffff163b119050919050565b6000604051905090565b600080fd5b600080fd5b60007fffffffff0000000000000000000000000000000000000000000000000000000082169050919050565b61168881611653565b811461169357600080fd5b50565b6000813590506116a58161167f565b92915050565b6000602082840312156116c1576116c0611649565b5b60006116cf84828501611696565b91505092915050565b60008115159050919050565b6116ed816116d8565b82525050565b600060208201905061170860008301846116e4565b92915050565b600081519050919050565b600082825260208201905092915050565b60005b8381101561174857808201518184015260208101905061172d565b83811115611757576000848401525b50505050565b6000601f19601f8301169050919050565b60006117798261170e565b6117838185611719565b935061179381856020860161172a565b61179c8161175d565b840191505092915050565b600060208201905081810360008301526117c1818461176e565b905092915050565b6000819050919050565b6117dc816117c9565b81146117e757600080fd5b50565b6000813590506117f9816117d3565b92915050565b60006020828403121561181557611814611649565b5b6000611823848285016117ea565b91505092915050565b600073ffffffffffffffffffffffffffffffffffffffff82169050919050565b60006118578261182c565b9050919050565b6118678161184c565b82525050565b6000602082019050611882600083018461185e565b92915050565b6118918161184c565b811461189c57600080fd5b50565b6000813590506118ae81611888565b92915050565b600080604083850312156118cb576118ca611649565b5b60006118d98582860161189f565b92505060206118ea858286016117ea565b9150509250929050565b60008060006060848603121561190d5761190c611649565b5b600061191b8682870161189f565b935050602061192c8682870161189f565b925050604061193d868287016117ea565b9150509250925092565b60006020828403121561195d5761195c611649565b5b600061196b8482850161189f565b91505092915050565b61197d816117c9565b82525050565b60006020820190506119986000830184611974565b92915050565b6119a7816116d8565b81146119b257600080fd5b50565b6000813590506119c48161199e565b92915050565b600080604083850312156119e1576119e0611649565b5b60006119ef8582860161189f565b9250506020611a00858286016119b5565b9150509250929050565b600080fd5b600080fd5b7f4e487b7100000000000000000000000000000000000000000000000000000000600052604160045260246000fd5b611a4c8261175d565b810181811067ffffffffffffffff82111715611a6b57611a6a611a14565b5b80604052505050565b6000611a7e61163f565b9050611a8a8282611a43565b919050565b600067ffffffffffffffff821115611aaa57611aa9611a14565b5b611ab38261175d565b9050602081019050919050565b82818337600083830152505050565b6000611ae2611add84611a8f565b611a74565b905082815260208101848484011115611afe57611afd611a0f565b5b611b09848285611ac0565b509392505050565b600082601f830112611b2657611b25611a0a565b5b8135611b36848260208601611acf565b91505092915050565b60008060008060808587031215611b5957611b58611649565b5b6000611b678782880161189f565b9450506020611b788782880161189f565b9350506040611b89878288016117ea565b925050606085013567ffffffffffffffff811115611baa57611ba961164e565b5b611bb687828801611b11565b91505092959194509250565b60008060408385031215611bd957611bd8611649565b5b6000611be78582860161189f565b9250506020611bf88582860161189f565b9150509250929050565b7f4e487b7100000000000000000000000000000000000000000000000000000000600052602260045260246000fd5b60006002820490506001821680611c4957607f821691505b602082108103611c5c57611c5b611c02565b5b50919050565b7f4552433732313a20617070726f76656420717565727920666f72206e6f6e657860008201527f697374656e7420746f6b656e0000000000000000000000000000000000000000602082015250565b6000611cbe602c83611719565b9150611cc982611c62565b604082019050919050565b60006020820190508181036000830152611ced81611cb1565b9050919050565b7f4552433732313a20617070726f76616c20746f2063757272656e74206f776e6560008201527f7200000000000000000000000000000000000000000000000000000000000000602082015250565b6000611d50602183611719565b9150611d5b82611cf4565b604082019050919050565b60006020820190508181036000830152611d7f81611d43565b9050919050565b7f4552433732313a20617070726f76652063616c6c6572206973206e6f74206f7760008201527f6e6572206e6f7220617070726f76656420666f7220616c6c0000000000000000602082015250565b6000611de2603883611719565b9150611ded82611d86565b604082019050919050565b60006020820190508181036000830152611e1181611dd5565b9050919050565b7f4552433732313a207472616e736665722063616c6c6572206973206e6f74206f60008201527f776e6572206e6f7220617070726f766564000000000000000000000000000000602082015250565b6000611e74603183611719565b9150611e7f82611e18565b604082019050919050565b60006020820190508181036000830152611ea381611e67565b9050919050565b7f4552433732313a206f776e657220717565727920666f72206e6f6e657869737460008201527f656e7420746f6b656e0000000000000000000000000000000000000000000000602082015250565b6000611f06602983611719565b9150611f1182611eaa565b604082019050919050565b60006020820190508181036000830152611f3581611ef9565b9050919050565b7f4552433732313a2062616c616e636520717565727920666f7220746865207a6560008201527f726f206164647265737300000000000000000000000000000000000000000000602082015250565b6000611f98602a83611719565b9150611fa382611f3c565b604082019050919050565b60006020820190508181036000830152611fc781611f8b565b9050919050565b7f4552433732314d657461646174613a2055524920717565727920666f72206e6f60008201527f6e6578697374656e7420746f6b656e0000000000000000000000000000000000602082015250565b600061202a602f83611719565b915061203582611fce565b604082019050919050565b600060208201905081810360008301526120598161201d565b9050919050565b600081905092915050565b60006120768261170e565b6120808185612060565b935061209081856020860161172a565b80840191505092915050565b60006120a8828561206b565b91506120b4828461206b565b91508190509392505050565b7f4552433732313a206f70657261746f7220717565727920666f72206e6f6e657860008201527f697374656e7420746f6b656e0000000000000000000000000000000000000000602082015250565b600061211c602c83611719565b9150612127826120c0565b604082019050919050565b6000602082019050818103600083015261214b8161210f565b9050919050565b7f4552433732313a207472616e736665722066726f6d20696e636f72726563742060008201527f6f776e6572000000000000000000000000000000000000000000000000000000602082015250565b60006121ae602583611719565b91506121b982612152565b604082019050919050565b600060208201905081810360008301526121dd816121a1565b9050919050565b7f4552433732313a207472616e7366657220746f20746865207a65726f2061646460008201527f7265737300000000000000000000000000000000000000000000000000000000602082015250565b6000612240602483611719565b915061224b826121e4565b604082019050919050565b6000602082019050818103600083015261226f81612233565b9050919050565b7f4e487b7100000000000000000000000000000000000000000000000000000000600052601160045260246000fd5b60006122b0826117c9565b91506122bb836117c9565b9250828210156122ce576122cd612276565b5b828203905092915050565b60006122e4826117c9565b91506122ef836117c9565b9250827fffffffffffffffffffffffffffffffffffffffffffffffffffffffffffffffff0382111561232457612323612276565b5b828201905092915050565b7f4552433732313a206d696e7420746f20746865207a65726f2061646472657373600082015250565b6000612365602083611719565b91506123708261232f565b602082019050919050565b6000602082019050818103600083015261239481612358565b9050919050565b7f4552433732313a20746f6b656e20616c7265616479206d696e74656400000000600082015250565b60006123d1601c83611719565b91506123dc8261239b565b602082019050919050565b60006020820190508181036000830152612400816123c4565b9050919050565b7f4552433732313a20617070726f766520746f2063616c6c657200000000000000600082015250565b600061243d601983611719565b915061244882612407565b602082019050919050565b6000602082019050818103600083015261246c81612430565b9050919050565b7f4552433732313a207472616e7366657220746f206e6f6e20455243373231526560008201527f63656976657220696d706c656d656e7465720000000000000000000000000000602082015250565b60006124cf603283611719565b91506124da82612473565b604082019050919050565b600060208201905081810360008301526124fe816124c2565b9050919050565b6000612510826117c9565b91507fffffffffffffffffffffffffffffffffffffffffffffffffffffffffffffffff820361254257612541612276565b5b600182019050919050565b7f4e487b7100000000000000000000000000000000000000000000000000000000600052601260045260246000fd5b6000612587826117c9565b9150612592836117c9565b9250826125a2576125a161254d565b5b828204905092915050565b60006125b8826117c9565b91506125c3836117c9565b9250826125d3576125d261254d565b5b828206905092915050565b7f4e487b7100000000000000000000000000000000000000000000000000000000600052603260045260246000fd5b600081519050919050565b600082825260208201905092915050565b60006126348261260d565b61263e8185612618565b935061264e81856020860161172a565b6126578161175d565b840191505092915050565b6000608082019050612677600083018761185e565b612684602083018661185e565b6126916040830185611974565b81810360608301526126a38184612629565b905095945050505050565b6000815190506126bd8161167f565b92915050565b6000602082840312156126d9576126d8611649565b5b60006126e7848285016126ae565b9150509291505056fea264697066735822122042b91d019aae84a1d7d500fb06e513fa7e5fd206fbe2905046ee40403b8c1d8264736f6c634300080e0033",
  "immutableReferences": {},
  "source": "/*\n\n// \t\t\t                  _        _                            _   \n// \t\t\t                 | |      (_)                          | |  \n// \t\t\t  _ __ ___   __ _| | _____ _ _ __ ___  _ __   __ _  ___| |_ \n// \t\t\t | '_ ` _ \\ / _` | |/ / _ \\ | '_ ` _ \\| '_ \\ / _` |/ __| __|\n// \t\t\t | | | | | | (_| |   <  __/ | | | | | | |_) | (_| | (__| |_ \n// \t\t\t |_| |_| |_|\\__,_|_|\\_\\___|_|_| |_| |_| .__/ \\__,_|\\___|\\__|\n// \t\t\t                                      | |                   \n// \t\t\t                                      |_|   \n                \n- governance Membership tokens contract erc721 that just creates a userdata storage\nthe 1155 and 721 go \"digit=10 ^ 1\" \n\n\nQUESTION: \n- What does it mean to \" just create a userdata storage\"?\n*/\n\n// SPDX-License-Identifier: GPL-3.0\npragma solidity ^0.8.0;\n\nimport '@openzeppelin/contracts/token/ERC721/ERC721.sol';\n\ncontract GovernanceMembership is ERC721 {\n\taddress admin = 0x1Cd6F4D329D38043a6bDB3665c3a7b06F79B5242;\n\n\tmodifier adminOnly() {\n\t\trequire(msg.sender == admin);\n\t\t_;\n\t}\n\n\tconstructor() ERC721('Governance Membership Tokens', 'GMT') {}\n\n\tfunction mint(address _newMember, uint256 _amount) external adminOnly {\n\t\t_mint(_newMember, _amount);\n\t}\n}\n",
  "sourcePath": "/Users/jediswag/Documents/GitHub/impactmarket/contracts/Governance.sol",
  "compiler": {
    "name": "solc",
    "version": "0.8.14+commit.80d49f37.Emscripten.clang"
  },
  "schemaVersion": "3.4.4",
  "updatedAt": "2022-05-27T22:50:17.455Z",
  "devdoc": {
    "kind": "dev",
    "methods": {
      "approve(address,uint256)": {
        "details": "See {IERC721-approve}."
      },
      "balanceOf(address)": {
        "details": "See {IERC721-balanceOf}."
      },
      "getApproved(uint256)": {
        "details": "See {IERC721-getApproved}."
      },
      "isApprovedForAll(address,address)": {
        "details": "See {IERC721-isApprovedForAll}."
      },
      "name()": {
        "details": "See {IERC721Metadata-name}."
      },
      "ownerOf(uint256)": {
        "details": "See {IERC721-ownerOf}."
      },
      "safeTransferFrom(address,address,uint256)": {
        "details": "See {IERC721-safeTransferFrom}."
      },
      "safeTransferFrom(address,address,uint256,bytes)": {
        "details": "See {IERC721-safeTransferFrom}."
      },
      "setApprovalForAll(address,bool)": {
        "details": "See {IERC721-setApprovalForAll}."
      },
      "supportsInterface(bytes4)": {
        "details": "See {IERC165-supportsInterface}."
      },
      "symbol()": {
        "details": "See {IERC721Metadata-symbol}."
      },
      "tokenURI(uint256)": {
        "details": "See {IERC721Metadata-tokenURI}."
      },
      "transferFrom(address,address,uint256)": {
        "details": "See {IERC721-transferFrom}."
      }
    },
    "version": 1
  },
  "userdoc": {
    "kind": "user",
    "methods": {},
    "version": 1
  }
}