{
  "contractName": "Init",
  "abi": [
    {
      "inputs": [
        {
          "internalType": "address",
          "name": "_auth",
          "type": "address"
        },
        {
          "internalType": "address",
          "name": "_avx",
          "type": "address"
        }
      ],
      "stateMutability": "nonpayable",
      "type": "constructor"
    },
    {
      "anonymous": false,
      "inputs": [
        {
          "indexed": true,
          "internalType": "uint256",
          "name": "id",
          "type": "uint256"
        },
        {
          "indexed": false,
          "internalType": "address",
          "name": "sender",
          "type": "address"
        },
        {
          "indexed": false,
          "internalType": "address",
          "name": "home",
          "type": "address"
        },
        {
          "indexed": false,
          "internalType": "uint256",
          "name": "num",
          "type": "uint256"
        },
        {
          "indexed": false,
          "internalType": "bytes",
          "name": "message",
          "type": "bytes"
        },
        {
          "indexed": false,
          "internalType": "uint256",
          "name": "stamp",
          "type": "uint256"
        }
      ],
      "name": "Log",
      "type": "event"
    },
    {
      "anonymous": false,
      "inputs": [
        {
          "indexed": true,
          "internalType": "uint256",
          "name": "id",
          "type": "uint256"
        },
        {
          "indexed": false,
          "internalType": "address",
          "name": "sender",
          "type": "address"
        },
        {
          "indexed": false,
          "internalType": "address",
          "name": "home",
          "type": "address"
        },
        {
          "indexed": false,
          "internalType": "uint256",
          "name": "num",
          "type": "uint256"
        },
        {
          "indexed": false,
          "internalType": "bytes",
          "name": "message",
          "type": "bytes"
        },
        {
          "indexed": false,
          "internalType": "uint256",
          "name": "stamp",
          "type": "uint256"
        }
      ],
      "name": "Wait",
      "type": "event"
    },
    {
      "stateMutability": "nonpayable",
      "type": "fallback"
    },
    {
      "inputs": [],
      "name": "author",
      "outputs": [
        {
          "internalType": "address",
          "name": "",
          "type": "address"
        }
      ],
      "stateMutability": "view",
      "type": "function"
    },
    {
      "inputs": [],
      "name": "avax",
      "outputs": [
        {
          "internalType": "address",
          "name": "",
          "type": "address"
        }
      ],
      "stateMutability": "view",
      "type": "function"
    },
    {
      "inputs": [],
      "name": "lyxLive",
      "outputs": [
        {
          "internalType": "uint256",
          "name": "",
          "type": "uint256"
        }
      ],
      "stateMutability": "view",
      "type": "function"
    },
    {
      "inputs": [],
      "name": "lyxLocked",
      "outputs": [
        {
          "internalType": "uint256",
          "name": "",
          "type": "uint256"
        }
      ],
      "stateMutability": "view",
      "type": "function"
    },
    {
      "inputs": [],
      "name": "mlqLive",
      "outputs": [
        {
          "internalType": "uint256",
          "name": "",
          "type": "uint256"
        }
      ],
      "stateMutability": "view",
      "type": "function"
    },
    {
      "inputs": [],
      "name": "mlqLocked",
      "outputs": [
        {
          "internalType": "uint256",
          "name": "",
          "type": "uint256"
        }
      ],
      "stateMutability": "view",
      "type": "function"
    },
    {
      "inputs": [],
      "name": "mlqRate",
      "outputs": [
        {
          "internalType": "uint256",
          "name": "",
          "type": "uint256"
        }
      ],
      "stateMutability": "view",
      "type": "function"
    },
    {
      "inputs": [],
      "name": "roy",
      "outputs": [
        {
          "internalType": "uint256",
          "name": "",
          "type": "uint256"
        }
      ],
      "stateMutability": "view",
      "type": "function"
    },
    {
      "inputs": [
        {
          "internalType": "address",
          "name": "_contractAddress",
          "type": "address"
        },
        {
          "internalType": "uint256",
          "name": "_curr",
          "type": "uint256"
        }
      ],
      "name": "setTokenContract",
      "outputs": [
        {
          "internalType": "bool",
          "name": "",
          "type": "bool"
        }
      ],
      "stateMutability": "nonpayable",
      "type": "function"
    },
    {
      "inputs": [],
      "name": "vyzLive",
      "outputs": [
        {
          "internalType": "uint256",
          "name": "",
          "type": "uint256"
        }
      ],
      "stateMutability": "view",
      "type": "function"
    },
    {
      "inputs": [],
      "name": "vyzLocked",
      "outputs": [
        {
          "internalType": "uint256",
          "name": "",
          "type": "uint256"
        }
      ],
      "stateMutability": "view",
      "type": "function"
    },
    {
      "inputs": [
        {
          "internalType": "address",
          "name": "_adr",
          "type": "address"
        }
      ],
      "name": "getRole",
      "outputs": [
        {
          "internalType": "uint256",
          "name": "",
          "type": "uint256"
        }
      ],
      "stateMutability": "view",
      "type": "function"
    },
    {
      "inputs": [
        {
          "internalType": "address",
          "name": "_adr",
          "type": "address"
        }
      ],
      "name": "isUserBool",
      "outputs": [
        {
          "internalType": "bool",
          "name": "",
          "type": "bool"
        }
      ],
      "stateMutability": "view",
      "type": "function"
    },
    {
      "inputs": [
        {
          "internalType": "address",
          "name": "_to",
          "type": "address"
        },
        {
          "internalType": "uint256",
          "name": "_role",
          "type": "uint256"
        },
        {
          "internalType": "string",
          "name": "_data",
          "type": "string"
        },
        {
          "internalType": "bool",
          "name": "_legit",
          "type": "bool"
        }
      ],
      "name": "editU",
      "outputs": [
        {
          "internalType": "bool",
          "name": "",
          "type": "bool"
        }
      ],
      "stateMutability": "nonpayable",
      "type": "function"
    },
    {
      "inputs": [
        {
          "internalType": "address",
          "name": "_to",
          "type": "address"
        }
      ],
      "name": "blackList",
      "outputs": [
        {
          "internalType": "bool",
          "name": "",
          "type": "bool"
        }
      ],
      "stateMutability": "nonpayable",
      "type": "function"
    },
    {
      "inputs": [
        {
          "internalType": "string",
          "name": "_data",
          "type": "string"
        }
      ],
      "name": "editMe",
      "outputs": [
        {
          "internalType": "bool",
          "name": "",
          "type": "bool"
        }
      ],
      "stateMutability": "nonpayable",
      "type": "function"
    },
    {
      "inputs": [
        {
          "internalType": "string",
          "name": "_data",
          "type": "string"
        }
      ],
      "name": "makeU",
      "outputs": [
        {
          "internalType": "bool",
          "name": "",
          "type": "bool"
        }
      ],
      "stateMutability": "nonpayable",
      "type": "function"
    },
    {
      "inputs": [],
      "name": "showU",
      "outputs": [
        {
          "internalType": "string",
          "name": "",
          "type": "string"
        },
        {
          "internalType": "uint256",
          "name": "",
          "type": "uint256"
        }
      ],
      "stateMutability": "view",
      "type": "function"
    },
    {
      "inputs": [
        {
          "internalType": "address",
          "name": "_to",
          "type": "address"
        }
      ],
      "name": "showAny",
      "outputs": [
        {
          "internalType": "string",
          "name": "",
          "type": "string"
        },
        {
          "internalType": "uint256",
          "name": "",
          "type": "uint256"
        }
      ],
      "stateMutability": "view",
      "type": "function"
    },
    {
      "inputs": [
        {
          "internalType": "address",
          "name": "_contract",
          "type": "address"
        }
      ],
      "name": "withdrawToken",
      "outputs": [
        {
          "internalType": "bool",
          "name": "",
          "type": "bool"
        }
      ],
      "stateMutability": "nonpayable",
      "type": "function"
    }
  ],
  "bytecode": "0x60806040523480156200001157600080fd5b50604051620020be380380620020be8339818101604052810190620000379190620004e9565b81601360006101000a81548173ffffffffffffffffffffffffffffffffffffffff021916908373ffffffffffffffffffffffffffffffffffffffff16021790555080601460006101000a81548173ffffffffffffffffffffffffffffffffffffffff021916908373ffffffffffffffffffffffffffffffffffffffff160217905550600160176000601360009054906101000a900473ffffffffffffffffffffffffffffffffffffffff1673ffffffffffffffffffffffffffffffffffffffff1673ffffffffffffffffffffffffffffffffffffffff16815260200190815260200160002060006101000a81548160ff021916908315150217905550606360156000601360009054906101000a900473ffffffffffffffffffffffffffffffffffffffff1673ffffffffffffffffffffffffffffffffffffffff1673ffffffffffffffffffffffffffffffffffffffff1681526020019081526020016000208190555060405180610100016040528060d3815260200162001feb60d3913960166000601360009054906101000a900473ffffffffffffffffffffffffffffffffffffffff1673ffffffffffffffffffffffffffffffffffffffff1673ffffffffffffffffffffffffffffffffffffffff16815260200190815260200160002090805190602001906200022b929190620003cf565b50600160176000601460009054906101000a900473ffffffffffffffffffffffffffffffffffffffff1673ffffffffffffffffffffffffffffffffffffffff1673ffffffffffffffffffffffffffffffffffffffff16815260200190815260200160002060006101000a81548160ff021916908315150217905550606360156000601460009054906101000a900473ffffffffffffffffffffffffffffffffffffffff1673ffffffffffffffffffffffffffffffffffffffff1673ffffffffffffffffffffffffffffffffffffffff1681526020019081526020016000208190555060405180610100016040528060d3815260200162001feb60d3913960166000601460009054906101000a900473ffffffffffffffffffffffffffffffffffffffff1673ffffffffffffffffffffffffffffffffffffffff1673ffffffffffffffffffffffffffffffffffffffff16815260200190815260200160002090805190602001906200039e929190620003cf565b50620003b16064620003ba60201b60201c565b50505062000594565b60008160008190555081600054149050919050565b828054620003dd906200055f565b90600052602060002090601f0160209004810192826200040157600085556200044d565b82601f106200041c57805160ff19168380011785556200044d565b828001600101855582156200044d579182015b828111156200044c5782518255916020019190600101906200042f565b5b5090506200045c919062000460565b5090565b5b808211156200047b57600081600090555060010162000461565b5090565b600080fd5b600073ffffffffffffffffffffffffffffffffffffffff82169050919050565b6000620004b18262000484565b9050919050565b620004c381620004a4565b8114620004cf57600080fd5b50565b600081519050620004e381620004b8565b92915050565b600080604083850312156200050357620005026200047f565b5b60006200051385828601620004d2565b92505060206200052685828601620004d2565b9150509250929050565b7f4e487b7100000000000000000000000000000000000000000000000000000000600052602260045260246000fd5b600060028204905060018216806200057857607f821691505b6020821081036200058e576200058d62000530565b5b50919050565b611a4780620005a46000396000f3fe608060405234801561001057600080fd5b506004361061012f5760003560e01c80634838d165116100ad578063894760691161007157806389476069146103735780638b6dc3dd146103a3578063940b54a8146103c1578063a6c3e6b9146103df578063b4676c95146103fd57610130565b80634838d165146102b9578063487c184c146102e9578063641f3d9914610307578063684651681461032557806386e2b5171461035557610130565b806330d313ce116100f457806330d313ce146101ed5780633323b2271461021d5780633a36c1fe1461023b57806342a6112b14610259578063442767331461028957610130565b806253d55514610132578063268b522714610150578063274daa35146101805780632abdee3c1461019f57806330a25f30146101bd57610130565b5b005b61013a61042e565b604051610147919061136c565b60405180910390f35b61016a600480360381019061016591906114e1565b610454565b6040516101779190611545565b60405180910390f35b610188610675565b604051610196929190611601565b60405180910390f35b6101a761078c565b6040516101b49190611631565b60405180910390f35b6101d760048036038101906101d291906116d0565b610792565b6040516101e49190611545565b60405180910390f35b61020760048036038101906102029190611753565b6109c1565b6040516102149190611545565b60405180910390f35b610225610a17565b6040516102329190611631565b60405180910390f35b610243610a1d565b6040516102509190611631565b60405180910390f35b610273600480360381019061026e9190611780565b610a23565b6040516102809190611545565b60405180910390f35b6102a3600480360381019061029e9190611753565b610d12565b6040516102b09190611631565b60405180910390f35b6102d360048036038101906102ce9190611753565b610d5b565b6040516102e09190611545565b60405180910390f35b6102f1610e40565b6040516102fe9190611631565b60405180910390f35b61030f610e46565b60405161031c9190611631565b60405180910390f35b61033f600480360381019061033a91906114e1565b610e4c565b60405161034c9190611545565b60405180910390f35b61035d610f2e565b60405161036a9190611631565b60405180910390f35b61038d60048036038101906103889190611753565b610f34565b60405161039a9190611545565b60405180910390f35b6103ab61113e565b6040516103b89190611631565b60405180910390f35b6103c9611144565b6040516103d69190611631565b60405180910390f35b6103e761114a565b6040516103f4919061136c565b60405180910390f35b61041760048036038101906104129190611753565b611170565b604051610425929190611601565b60405180910390f35b601460009054906101000a900473ffffffffffffffffffffffffffffffffffffffff1681565b6000801515601760003373ffffffffffffffffffffffffffffffffffffffff1673ffffffffffffffffffffffffffffffffffffffff16815260200190815260200160002060009054906101000a900460ff161515146104e8576040517f08c379a00000000000000000000000000000000000000000000000000000000081526004016104df9061180c565b60405180910390fd5b60001515601860003373ffffffffffffffffffffffffffffffffffffffff1673ffffffffffffffffffffffffffffffffffffffff16815260200190815260200160002060009054906101000a900460ff1615151461057b576040517f08c379a000000000000000000000000000000000000000000000000000000000815260040161057290611878565b60405180910390fd5b6001601760003373ffffffffffffffffffffffffffffffffffffffff1673ffffffffffffffffffffffffffffffffffffffff16815260200190815260200160002060006101000a81548160ff0219169083151502179055506001601560003373ffffffffffffffffffffffffffffffffffffffff1673ffffffffffffffffffffffffffffffffffffffff1681526020019081526020016000208190555081601660003373ffffffffffffffffffffffffffffffffffffffff1673ffffffffffffffffffffffffffffffffffffffff168152602001908152602001600020908051906020019061066b929190611288565b5060019050919050565b60606000601660003373ffffffffffffffffffffffffffffffffffffffff1673ffffffffffffffffffffffffffffffffffffffff168152602001908152602001600020601560003373ffffffffffffffffffffffffffffffffffffffff1673ffffffffffffffffffffffffffffffffffffffff16815260200190815260200160002054818054610704906118c7565b80601f0160208091040260200160405190810160405280929190818152602001828054610730906118c7565b801561077d5780601f106107525761010080835404028352916020019161077d565b820191906000526020600020905b81548152906001019060200180831161076057829003601f168201915b50505050509150915091509091565b60105481565b60006063601560003373ffffffffffffffffffffffffffffffffffffffff1673ffffffffffffffffffffffffffffffffffffffff1681526020019081526020016000205414610816576040517f08c379a000000000000000000000000000000000000000000000000000000000815260040161080d90611944565b60405180910390fd5b81601760008773ffffffffffffffffffffffffffffffffffffffff1673ffffffffffffffffffffffffffffffffffffffff16815260200190815260200160002060006101000a81548160ff02191690831515021790555060001515821515036108d2576001601860008773ffffffffffffffffffffffffffffffffffffffff1673ffffffffffffffffffffffffffffffffffffffff16815260200190815260200160002060006101000a81548160ff0219169083151502179055505b83601560008773ffffffffffffffffffffffffffffffffffffffff1673ffffffffffffffffffffffffffffffffffffffff1681526020019081526020016000208190555082601660008773ffffffffffffffffffffffffffffffffffffffff1673ffffffffffffffffffffffffffffffffffffffff1681526020019081526020016000209080519060200190610969929190611288565b50601760008673ffffffffffffffffffffffffffffffffffffffff1673ffffffffffffffffffffffffffffffffffffffff16815260200190815260200160002060009054906101000a900460ff169050949350505050565b6000601760008373ffffffffffffffffffffffffffffffffffffffff1673ffffffffffffffffffffffffffffffffffffffff16815260200190815260200160002060009054906101000a900460ff169050919050565b600d5481565b600c5481565b6000808203610a6e5782600160006101000a81548173ffffffffffffffffffffffffffffffffffffffff021916908373ffffffffffffffffffffffffffffffffffffffff1602179055505b60018203610ab85782600260006101000a81548173ffffffffffffffffffffffffffffffffffffffff021916908373ffffffffffffffffffffffffffffffffffffffff1602179055505b60028203610b025782600360006101000a81548173ffffffffffffffffffffffffffffffffffffffff021916908373ffffffffffffffffffffffffffffffffffffffff1602179055505b60038203610b4c5782600460006101000a81548173ffffffffffffffffffffffffffffffffffffffff021916908373ffffffffffffffffffffffffffffffffffffffff1602179055505b60048203610b965782600560006101000a81548173ffffffffffffffffffffffffffffffffffffffff021916908373ffffffffffffffffffffffffffffffffffffffff1602179055505b60058203610be05782600660006101000a81548173ffffffffffffffffffffffffffffffffffffffff021916908373ffffffffffffffffffffffffffffffffffffffff1602179055505b60068203610c2a5782600760006101000a81548173ffffffffffffffffffffffffffffffffffffffff021916908373ffffffffffffffffffffffffffffffffffffffff1602179055505b60078203610c745782600860006101000a81548173ffffffffffffffffffffffffffffffffffffffff021916908373ffffffffffffffffffffffffffffffffffffffff1602179055505b60088203610cbe5782600960006101000a81548173ffffffffffffffffffffffffffffffffffffffff021916908373ffffffffffffffffffffffffffffffffffffffff1602179055505b60098203610d085782600a60006101000a81548173ffffffffffffffffffffffffffffffffffffffff021916908373ffffffffffffffffffffffffffffffffffffffff1602179055505b6001905092915050565b6000601560008373ffffffffffffffffffffffffffffffffffffffff1673ffffffffffffffffffffffffffffffffffffffff168152602001908152602001600020549050919050565b60006063601560003373ffffffffffffffffffffffffffffffffffffffff1673ffffffffffffffffffffffffffffffffffffffff1681526020019081526020016000205414610ddf576040517f08c379a0000000000000000000000000000000000000000000000000000000008152600401610dd690611944565b60405180910390fd5b6001601860008473ffffffffffffffffffffffffffffffffffffffff1673ffffffffffffffffffffffffffffffffffffffff16815260200190815260200160002060006101000a81548160ff02191690831515021790555060019050919050565b60115481565b600e5481565b6000601560003373ffffffffffffffffffffffffffffffffffffffff1673ffffffffffffffffffffffffffffffffffffffff16815260200190815260200160002054601560003373ffffffffffffffffffffffffffffffffffffffff1673ffffffffffffffffffffffffffffffffffffffff1681526020019081526020016000208190555081601660003373ffffffffffffffffffffffffffffffffffffffff1673ffffffffffffffffffffffffffffffffffffffff1681526020019081526020016000209080519060200190610f24929190611288565b5060019050919050565b600f5481565b60006063601560003373ffffffffffffffffffffffffffffffffffffffff1673ffffffffffffffffffffffffffffffffffffffff1681526020019081526020016000205414610fb8576040517f08c379a0000000000000000000000000000000000000000000000000000000008152600401610faf90611944565b60405180910390fd5b81600b60006101000a81548173ffffffffffffffffffffffffffffffffffffffff021916908373ffffffffffffffffffffffffffffffffffffffff160217905550600b60009054906101000a900473ffffffffffffffffffffffffffffffffffffffff1673ffffffffffffffffffffffffffffffffffffffff1663a9059cbb33600b60009054906101000a900473ffffffffffffffffffffffffffffffffffffffff1673ffffffffffffffffffffffffffffffffffffffff166370a08231306040518263ffffffff1660e01b8152600401611093919061136c565b602060405180830381865afa1580156110b0573d6000803e3d6000fd5b505050506040513d601f19601f820116820180604052508101906110d49190611979565b6040518363ffffffff1660e01b81526004016110f19291906119a6565b6020604051808303816000875af1158015611110573d6000803e3d6000fd5b505050506040513d601f19601f8201168201806040525081019061113491906119e4565b5060019050919050565b60005481565b60125481565b601360009054906101000a900473ffffffffffffffffffffffffffffffffffffffff1681565b60606000601660008473ffffffffffffffffffffffffffffffffffffffff1673ffffffffffffffffffffffffffffffffffffffff168152602001908152602001600020601560008573ffffffffffffffffffffffffffffffffffffffff1673ffffffffffffffffffffffffffffffffffffffff168152602001908152602001600020548180546111ff906118c7565b80601f016020809104026020016040519081016040528092919081815260200182805461122b906118c7565b80156112785780601f1061124d57610100808354040283529160200191611278565b820191906000526020600020905b81548152906001019060200180831161125b57829003601f168201915b5050505050915091509150915091565b828054611294906118c7565b90600052602060002090601f0160209004810192826112b657600085556112fd565b82601f106112cf57805160ff19168380011785556112fd565b828001600101855582156112fd579182015b828111156112fc5782518255916020019190600101906112e1565b5b50905061130a919061130e565b5090565b5b8082111561132757600081600090555060010161130f565b5090565b600073ffffffffffffffffffffffffffffffffffffffff82169050919050565b60006113568261132b565b9050919050565b6113668161134b565b82525050565b6000602082019050611381600083018461135d565b92915050565b6000604051905090565b600080fd5b600080fd5b600080fd5b600080fd5b6000601f19601f8301169050919050565b7f4e487b7100000000000000000000000000000000000000000000000000000000600052604160045260246000fd5b6113ee826113a5565b810181811067ffffffffffffffff8211171561140d5761140c6113b6565b5b80604052505050565b6000611420611387565b905061142c82826113e5565b919050565b600067ffffffffffffffff82111561144c5761144b6113b6565b5b611455826113a5565b9050602081019050919050565b82818337600083830152505050565b600061148461147f84611431565b611416565b9050828152602081018484840111156114a05761149f6113a0565b5b6114ab848285611462565b509392505050565b600082601f8301126114c8576114c761139b565b5b81356114d8848260208601611471565b91505092915050565b6000602082840312156114f7576114f6611391565b5b600082013567ffffffffffffffff81111561151557611514611396565b5b611521848285016114b3565b91505092915050565b60008115159050919050565b61153f8161152a565b82525050565b600060208201905061155a6000830184611536565b92915050565b600081519050919050565b600082825260208201905092915050565b60005b8381101561159a57808201518184015260208101905061157f565b838111156115a9576000848401525b50505050565b60006115ba82611560565b6115c4818561156b565b93506115d481856020860161157c565b6115dd816113a5565b840191505092915050565b6000819050919050565b6115fb816115e8565b82525050565b6000604082019050818103600083015261161b81856115af565b905061162a60208301846115f2565b9392505050565b600060208201905061164660008301846115f2565b92915050565b6116558161134b565b811461166057600080fd5b50565b6000813590506116728161164c565b92915050565b611681816115e8565b811461168c57600080fd5b50565b60008135905061169e81611678565b92915050565b6116ad8161152a565b81146116b857600080fd5b50565b6000813590506116ca816116a4565b92915050565b600080600080608085870312156116ea576116e9611391565b5b60006116f887828801611663565b94505060206117098782880161168f565b935050604085013567ffffffffffffffff81111561172a57611729611396565b5b611736878288016114b3565b9250506060611747878288016116bb565b91505092959194509250565b60006020828403121561176957611768611391565b5b600061177784828501611663565b91505092915050565b6000806040838503121561179757611796611391565b5b60006117a585828601611663565b92505060206117b68582860161168f565b9150509250929050565b7f6e6f742061207573657200000000000000000000000000000000000000000000600082015250565b60006117f6600a8361156b565b9150611801826117c0565b602082019050919050565b60006020820190508181036000830152611825816117e9565b9050919050565b7f626c61636b6c6973746564000000000000000000000000000000000000000000600082015250565b6000611862600b8361156b565b915061186d8261182c565b602082019050919050565b6000602082019050818103600083015261189181611855565b9050919050565b7f4e487b7100000000000000000000000000000000000000000000000000000000600052602260045260246000fd5b600060028204905060018216806118df57607f821691505b6020821081036118f2576118f1611898565b5b50919050565b7f796f75277265206e6f742061646d696e00000000000000000000000000000000600082015250565b600061192e60108361156b565b9150611939826118f8565b602082019050919050565b6000602082019050818103600083015261195d81611921565b9050919050565b60008151905061197381611678565b92915050565b60006020828403121561198f5761198e611391565b5b600061199d84828501611964565b91505092915050565b60006040820190506119bb600083018561135d565b6119c860208301846115f2565b9392505050565b6000815190506119de816116a4565b92915050565b6000602082840312156119fa576119f9611391565b5b6000611a08848285016119cf565b9150509291505056fea26469706673582212205c0f4cf037e7f435a7bfc4429464dda54aea87a87f4eb2dbbf9fe3b1f556103264736f6c634300080e00337b22757365726e616d65223a202273746572656f222c22757365726d61696c223a2022747970652e73746572656f40706d2e6d65222c227573657274656c223a20223030343931363331313037353432222c2275736572747774223a20224073746572656f49494936222c2275736572737461747573223a202269747320616c6c207265656c22202c2275736572617674223a20202268747470733a2f2f7777772e77337363686f6f6c732e636f6d2f7733696d616765732f617661746172322e706e67222c22726f6c65223a20223939227d",
  "immutableReferences": {},
  "source": "// SPDX-License-Identifier: GPL-3.0\n// // // // // // // // // // // // // // // // // // // // // // // // // // // // // // // // // // // // // // // // // // // // // // // // // // // // // // // // // // // // //\n//   \n//              .d8888.  .d88b.  db    db d888888b d88888b d888888b db    db \n//              88'  YP .8P  88. `8b  d8'   `88'   88'     `~~88~~' `8b  d8' \n//              `8bo.   88  d'88  `8bd8'     88    88ooooo    88     `8bd8'  \n//                `Y8b. 88 d' 88  .dPYb.     88    88~~~~~    88       88    \n//              db   8D `88  d8' .8P  Y8.   .88.   88.        88       88    \n//              `8888Y'  `Y88P'  YP    YP Y888888P Y88888P    YP       YP \n// \n// // // // // // // // // // // // // // // // // // // // // // // // // // // // // // // // // // // // // // // // // // // // // // // // // // // // // // // // // // // // //\n//                                                                                                                                                                                  //\n//      @dev            ::              stereoIII6.dao                                                                                                                                          //\n//      @msg            ::              type.stereo@pm.me                                                                                                                                    //\n//      @github         ::              @stereoIII6 \n//      @twitter        ::              @stereoIII6                                                                                                                                              //\n//                                                                                                                                                                                      //\n//      @dev            ::              willdera.eth                                                                                                                                          //\n//      @msg            ::                                                                                                                                                  //\n//      @github         ::              @willdera                                                                                                                                              //\n//                                                                                                                                                                                      //\n//      @author         ::              stereoIII6.dao                                                                                                                                          //\n//      msg             ::              type.stereo@pm.me                                                                                                                                    //\n//      @github         ::              @stereoIII6 \n//      @twitter        ::              @stereoIII6                                                                                                                                             //\n//                                                                                                                                                                                  //\n// // // // // // // // // // // // // // // // // // // // // // // // // // // // // // // // // // // // // // // // // // // // // // // // // // // // // // // // // // // // //\n//                                                                                                                                                                                  //\n// // // // // // // // // // // // // // // // // // // // // // // // // // // // // // // // // // // // // // // // // // // // // // // // // // // // // // // // // // // // //\n//                                                                                                                                                                                  //\n//                                                                                                                                                                                  //\n//      @title          ::              Affily8                                                                                                                                     //\n//      @description    ::              decentral affiliate system                                                                                                            //\n//      @version        ::              0.0.1                                                                                                                                       //\n//      @purpose        ::              Refer friennds on the blockchain                                                                                                            //\n//                                                                                                                                                                                  //\n//                                                                                                                                                                                  //\n//                                                                                                                                                                                  //\n//                                                                                                                                                                                  //\n//                                                                                                                                                                                  //\n// // // // // // // // // // // // // // // // // // // // // // // // // // // // // // // // // // // // // // // // // // // // // // // // // // // // // // // // // // // // //\n\n\npragma solidity ^0.8.0;\n// Open Zeppelin Imports\n// import \"@openzeppelin/contracts/token/ERC20/ERC20.sol\";\nimport \"@openzeppelin/contracts/token/ERC20/IERC20.sol\";\n\nimport \"@openzeppelin/contracts/token/ERC721/ERC721.sol\";\nimport \"@openzeppelin/contracts/token/ERC721/IERC721.sol\";\n\n// import \"@openzeppelin/contracts/token/ERC1155/ERC1155.sol\";\nimport \"@openzeppelin/contracts/token/ERC1155/IERC1155.sol\";\n\n// Chainlink Imports\n// import \"@chainlink/contracts/src/v0.8/VRFConsumerBase.sol\";\n// import \"./Nft_Project.sol\";\nlibrary fx{\n    uint256 constant weidig = 1 * 10 ** 18;\n    uint256 constant findig = 1 * 10 ** 14;\n    uint256 constant shqdig = 1 * 10 ** 8;\n    uint256 public constant mlqMax = 3000000 * weidig;\n    uint256 public constant lyxMax = 300000000 * weidig;\n    uint256 public constant vyzMax = 30000000000 * weidig;\n    uint256 public constant shqMax = 100 * shqdig;\n    uint256 public constant initMlqRate = 100; // 1 ETH == (initMlqRate) MLQ\n    uint256 public constant lyxRate = 10000; // 1 ETH == (lyxRate) LYX\n    uint256 public constant vyzRate = 1000000; // 1 ETH == (vyzRate) VYZ\n\n}\ncontract TokenomicSets{\n    using fx for *;\n    uint256 public mlqRate; // is to be updated \n    IERC20 internal iUSDC;\n    IERC20 internal iWETH;\n    IERC20 internal iMLQ;\n    IERC20 internal iLYX;\n    IERC20 internal iVYZ;\n    IERC20 internal M_SHQ;\n    IERC20 internal L_SHQ;\n    IERC20 internal V_SHQ;\n    IERC20 internal X_SHQ;\n    IERC20 internal R_SHQ;\n    IERC20 internal Token20;\n\n    \n    uint256 public mlqLive;\n    uint256 public lyxLive;\n    uint256 public vyzLive;\n    uint256 public mlqLocked;\n    uint256 public lyxLocked;\n    uint256 public vyzLocked;\n\n    uint256 public roy;\n    \n    function setTokenContract(address _contractAddress, uint256 _curr) external returns(bool){ // curr == 0-usdc, 1-weth, 2-mlq, 3-lyx, 4-vyz, 5-mshk, 6-lshk, 7-vshk, 8-xshk, 9-rshk\n        if(_curr == 0) iUSDC = IERC20(_contractAddress);\n        if(_curr == 1) iWETH = IERC20(_contractAddress);\n        if(_curr == 2) iMLQ = IERC20(_contractAddress);\n        if(_curr == 3) iLYX = IERC20(_contractAddress);\n        if(_curr == 4) iVYZ = IERC20(_contractAddress);\n        if(_curr == 5) M_SHQ = IERC20(_contractAddress);\n        if(_curr == 6) L_SHQ = IERC20(_contractAddress);\n        if(_curr == 7) V_SHQ = IERC20(_contractAddress);\n        if(_curr == 8) X_SHQ = IERC20(_contractAddress); \n        if(_curr == 9) R_SHQ = IERC20(_contractAddress);\n        return true;\n    }\n    function setMlqRate(uint256 _newRate) internal returns(bool){\n        mlqRate = _newRate;\n        return (mlqRate == _newRate);\n    }\n\n}\ncontract Init is TokenomicSets {\n    address public author;\n    address public avax;\n    mapping(address => uint256) internal role;\n    mapping(address => bytes) internal uData;\n    \n   \n    mapping(address => bool) internal isUser;\n    mapping(address => bool) internal blacklist;\n    event Log(uint256 indexed id, address sender, address home, uint256 num, bytes message, uint256 stamp);\n    event Wait(uint256 indexed id, address sender, address home, uint256 num, bytes message, uint256 stamp);\n    uint256 logs;\n    modifier isAdmin() {\n        require(role[msg.sender] == 99, \"you're not admin\");\n        _;\n    }\n    modifier isOwner() {\n        require(author == msg.sender || avax == msg.sender, \"you're not owner\");\n        _;\n    }\n    constructor(address _auth, address _avx) {\n        author = _auth;\n        avax = _avx;\n        isUser[author] = true;\n        role[author] = 99;\n        uData[author] = bytes('{\"username\": \"stereo\",\"usermail\": \"type.stereo@pm.me\",\"usertel\": \"00491631107542\",\"usertwt\": \"@stereoIII6\",\"userstatus\": \"its all reel\" ,\"useravt\":  \"https://www.w3schools.com/w3images/avatar2.png\",\"role\": \"99\"}');\n        isUser[avax] = true;\n        role[avax] = 99;\n        uData[avax] = bytes('{\"username\": \"stereo\",\"usermail\": \"type.stereo@pm.me\",\"usertel\": \"00491631107542\",\"usertwt\": \"@stereoIII6\",\"userstatus\": \"its all reel\" ,\"useravt\":  \"https://www.w3schools.com/w3images/avatar2.png\",\"role\": \"99\"}');\n        setMlqRate(fx.initMlqRate);\n    }\n    function getRole(address _adr) external view returns(uint256){\n        return role[_adr];\n    }\n    function isUserBool(address _adr) external view returns(bool){\n        return isUser[_adr];\n    }\n    function editU(address _to, uint256 _role, string memory _data, bool _legit) external isAdmin() returns(bool){\n        isUser[_to] = _legit;\n        if(_legit == false) blacklist[_to] = true;\n        role[_to] = _role;\n        uData[_to] = bytes(_data);\n        return isUser[_to];\n    }\n    function blackList(address _to) external isAdmin() returns(bool){\n        blacklist[_to] = true;\n        return true;\n    }\n    function editMe(string memory _data) external returns(bool){\n        role[msg.sender] = role[msg.sender];\n        uData[msg.sender] = bytes(_data);\n        return true;\n    }\n    function makeU(string memory _data) external returns(bool){\n        require(isUser[msg.sender] == false, \"not a user\");\n        require(blacklist[msg.sender] == false, \"blacklisted\");\n        isUser[msg.sender] = true;\n        role[msg.sender] = 1;\n        uData[msg.sender] = bytes(_data);\n        return true;\n    }\n    function showU() external view returns(string memory, uint256){\n        return(string(uData[msg.sender]),role[msg.sender]);\n    }\n    function showAny(address _to) external view returns(string memory, uint256){\n        return(string(uData[_to]),role[_to]);\n    }\n    function withdrawToken(address _contract) external isAdmin() returns(bool){\n        Token20 = IERC20(_contract);  \n        Token20.transfer(msg.sender,Token20.balanceOf(address(this)));\n        return true;\n    }\n    \n    function divide(uint256 _a, uint256 _b) internal pure returns(uint256 res){\n        uint256 rem = _a % _b;\n        res = (_a - rem) / _b;\n    }\n    fallback() external{\n\n    }\n}",
  "sourcePath": "/Users/jediswag/Documents/GitHub/impactmarket/contracts/Init.sol",
  "compiler": {
    "name": "solc",
    "version": "0.8.14+commit.80d49f37.Emscripten.clang"
  },
  "schemaVersion": "3.4.4",
  "updatedAt": "2022-05-27T22:50:15.941Z",
  "devdoc": {
    "kind": "dev",
    "methods": {},
    "version": 1
  },
  "userdoc": {
    "kind": "user",
    "methods": {},
    "version": 1
  }
}