{
  "contractName": "Init",
  "abi": [
    {
      "inputs": [
        {
          "internalType": "address",
          "name": "_auth",
          "type": "address"
        },
        {
          "internalType": "address",
          "name": "_avx",
          "type": "address"
        }
      ],
      "stateMutability": "nonpayable",
      "type": "constructor"
    },
    {
      "anonymous": false,
      "inputs": [
        {
          "indexed": true,
          "internalType": "uint256",
          "name": "id",
          "type": "uint256"
        },
        {
          "indexed": false,
          "internalType": "address",
          "name": "sender",
          "type": "address"
        },
        {
          "indexed": false,
          "internalType": "address",
          "name": "home",
          "type": "address"
        },
        {
          "indexed": false,
          "internalType": "uint256",
          "name": "num",
          "type": "uint256"
        },
        {
          "indexed": false,
          "internalType": "bytes",
          "name": "message",
          "type": "bytes"
        },
        {
          "indexed": false,
          "internalType": "uint256",
          "name": "stamp",
          "type": "uint256"
        }
      ],
      "name": "Log",
      "type": "event"
    },
    {
      "anonymous": false,
      "inputs": [
        {
          "indexed": true,
          "internalType": "uint256",
          "name": "id",
          "type": "uint256"
        },
        {
          "indexed": false,
          "internalType": "address",
          "name": "sender",
          "type": "address"
        },
        {
          "indexed": false,
          "internalType": "address",
          "name": "home",
          "type": "address"
        },
        {
          "indexed": false,
          "internalType": "uint256",
          "name": "num",
          "type": "uint256"
        },
        {
          "indexed": false,
          "internalType": "bytes",
          "name": "message",
          "type": "bytes"
        },
        {
          "indexed": false,
          "internalType": "uint256",
          "name": "stamp",
          "type": "uint256"
        }
      ],
      "name": "Wait",
      "type": "event"
    },
    {
      "stateMutability": "nonpayable",
      "type": "fallback"
    },
    {
      "inputs": [],
      "name": "author",
      "outputs": [
        {
          "internalType": "address",
          "name": "",
          "type": "address"
        }
      ],
      "stateMutability": "view",
      "type": "function",
      "constant": true
    },
    {
      "inputs": [],
      "name": "availSupply",
      "outputs": [
        {
          "internalType": "uint256",
          "name": "",
          "type": "uint256"
        }
      ],
      "stateMutability": "view",
      "type": "function",
      "constant": true
    },
    {
      "inputs": [],
      "name": "avax",
      "outputs": [
        {
          "internalType": "address",
          "name": "",
          "type": "address"
        }
      ],
      "stateMutability": "view",
      "type": "function",
      "constant": true
    },
    {
      "inputs": [],
      "name": "maxSupply",
      "outputs": [
        {
          "internalType": "uint256",
          "name": "",
          "type": "uint256"
        }
      ],
      "stateMutability": "view",
      "type": "function",
      "constant": true
    },
    {
      "inputs": [
        {
          "internalType": "address",
          "name": "_adr",
          "type": "address"
        }
      ],
      "name": "getRole",
      "outputs": [
        {
          "internalType": "uint256",
          "name": "",
          "type": "uint256"
        }
      ],
      "stateMutability": "view",
      "type": "function",
      "constant": true
    },
    {
      "inputs": [
        {
          "internalType": "address",
          "name": "_adr",
          "type": "address"
        }
      ],
      "name": "isUserBool",
      "outputs": [
        {
          "internalType": "bool",
          "name": "",
          "type": "bool"
        }
      ],
      "stateMutability": "view",
      "type": "function",
      "constant": true
    },
    {
      "inputs": [
        {
          "internalType": "address",
          "name": "_to",
          "type": "address"
        },
        {
          "internalType": "uint256",
          "name": "_role",
          "type": "uint256"
        },
        {
          "internalType": "string",
          "name": "_data",
          "type": "string"
        },
        {
          "internalType": "bool",
          "name": "_legit",
          "type": "bool"
        }
      ],
      "name": "editU",
      "outputs": [
        {
          "internalType": "bool",
          "name": "",
          "type": "bool"
        }
      ],
      "stateMutability": "nonpayable",
      "type": "function"
    },
    {
      "inputs": [
        {
          "internalType": "address",
          "name": "_to",
          "type": "address"
        }
      ],
      "name": "blackList",
      "outputs": [
        {
          "internalType": "bool",
          "name": "",
          "type": "bool"
        }
      ],
      "stateMutability": "nonpayable",
      "type": "function"
    },
    {
      "inputs": [
        {
          "internalType": "string",
          "name": "_data",
          "type": "string"
        }
      ],
      "name": "editMe",
      "outputs": [
        {
          "internalType": "bool",
          "name": "",
          "type": "bool"
        }
      ],
      "stateMutability": "nonpayable",
      "type": "function"
    },
    {
      "inputs": [
        {
          "internalType": "string",
          "name": "_data",
          "type": "string"
        }
      ],
      "name": "makeU",
      "outputs": [
        {
          "internalType": "bool",
          "name": "",
          "type": "bool"
        }
      ],
      "stateMutability": "nonpayable",
      "type": "function"
    },
    {
      "inputs": [],
      "name": "showU",
      "outputs": [
        {
          "internalType": "string",
          "name": "",
          "type": "string"
        },
        {
          "internalType": "uint256",
          "name": "",
          "type": "uint256"
        }
      ],
      "stateMutability": "view",
      "type": "function",
      "constant": true
    },
    {
      "inputs": [
        {
          "internalType": "address",
          "name": "_to",
          "type": "address"
        }
      ],
      "name": "showAny",
      "outputs": [
        {
          "internalType": "string",
          "name": "",
          "type": "string"
        },
        {
          "internalType": "uint256",
          "name": "",
          "type": "uint256"
        }
      ],
      "stateMutability": "view",
      "type": "function",
      "constant": true
    },
    {
      "inputs": [
        {
          "internalType": "address",
          "name": "_contract",
          "type": "address"
        }
      ],
      "name": "withdrawToken",
      "outputs": [
        {
          "internalType": "bool",
          "name": "",
          "type": "bool"
        }
      ],
      "stateMutability": "nonpayable",
      "type": "function"
    },
    {
      "inputs": [
        {
          "internalType": "address",
          "name": "_mlq",
          "type": "address"
        }
      ],
      "name": "setMLQ",
      "outputs": [
        {
          "internalType": "bool",
          "name": "",
          "type": "bool"
        }
      ],
      "stateMutability": "nonpayable",
      "type": "function"
    },
    {
      "inputs": [
        {
          "internalType": "address",
          "name": "_vyz",
          "type": "address"
        }
      ],
      "name": "setVYZ",
      "outputs": [
        {
          "internalType": "bool",
          "name": "",
          "type": "bool"
        }
      ],
      "stateMutability": "nonpayable",
      "type": "function"
    },
    {
      "inputs": [
        {
          "internalType": "address",
          "name": "_lyx",
          "type": "address"
        }
      ],
      "name": "setLYX",
      "outputs": [
        {
          "internalType": "bool",
          "name": "",
          "type": "bool"
        }
      ],
      "stateMutability": "nonpayable",
      "type": "function"
    }
  ],
  "bytecode": "0x6080604052670de0b6b3a76400006008553480156200001d57600080fd5b5060405162001dad38038062001dad8339818101604052810190620000439190620004c9565b816000806101000a81548173ffffffffffffffffffffffffffffffffffffffff021916908373ffffffffffffffffffffffffffffffffffffffff16021790555080600160006101000a81548173ffffffffffffffffffffffffffffffffffffffff021916908373ffffffffffffffffffffffffffffffffffffffff1602179055506001600f60008060009054906101000a900473ffffffffffffffffffffffffffffffffffffffff1673ffffffffffffffffffffffffffffffffffffffff1673ffffffffffffffffffffffffffffffffffffffff16815260200190815260200160002060006101000a81548160ff0219169083151502179055506063600260008060009054906101000a900473ffffffffffffffffffffffffffffffffffffffff1673ffffffffffffffffffffffffffffffffffffffff1673ffffffffffffffffffffffffffffffffffffffff1681526020019081526020016000208190555060405180610100016040528060d3815260200162001cda60d39139600360008060009054906101000a900473ffffffffffffffffffffffffffffffffffffffff1673ffffffffffffffffffffffffffffffffffffffff1673ffffffffffffffffffffffffffffffffffffffff168152602001908152602001600020908051906020019062000233929190620003af565b506001600f6000600160009054906101000a900473ffffffffffffffffffffffffffffffffffffffff1673ffffffffffffffffffffffffffffffffffffffff1673ffffffffffffffffffffffffffffffffffffffff16815260200190815260200160002060006101000a81548160ff021916908315150217905550606360026000600160009054906101000a900473ffffffffffffffffffffffffffffffffffffffff1673ffffffffffffffffffffffffffffffffffffffff1673ffffffffffffffffffffffffffffffffffffffff1681526020019081526020016000208190555060405180610100016040528060d3815260200162001cda60d3913960036000600160009054906101000a900473ffffffffffffffffffffffffffffffffffffffff1673ffffffffffffffffffffffffffffffffffffffff1673ffffffffffffffffffffffffffffffffffffffff1681526020019081526020016000209080519060200190620003a6929190620003af565b50505062000574565b828054620003bd906200053f565b90600052602060002090601f016020900481019282620003e157600085556200042d565b82601f10620003fc57805160ff19168380011785556200042d565b828001600101855582156200042d579182015b828111156200042c5782518255916020019190600101906200040f565b5b5090506200043c919062000440565b5090565b5b808211156200045b57600081600090555060010162000441565b5090565b600080fd5b600073ffffffffffffffffffffffffffffffffffffffff82169050919050565b6000620004918262000464565b9050919050565b620004a38162000484565b8114620004af57600080fd5b50565b600081519050620004c38162000498565b92915050565b60008060408385031215620004e357620004e26200045f565b5b6000620004f385828601620004b2565b92505060206200050685828601620004b2565b9150509250929050565b7f4e487b7100000000000000000000000000000000000000000000000000000000600052602260045260246000fd5b600060028204905060018216806200055857607f821691505b6020821081036200056e576200056d62000510565b5b50919050565b61175680620005846000396000f3fe608060405234801561001057600080fd5b50600436106101035760003560e01c806368465168116100975780639f5215dd116100665780639f5215dd14610323578063a6c3e6b914610341578063b4676c951461035f578063d5abeb011461039057610104565b8063684651681461026357806389476069146102935780638f310044146102c357806394f4a259146102f357610104565b806330a25f30116100d357806330a25f30146101a357806330d313ce146101d357806344276733146102035780634838d1651461023357610104565b806253d5551461010657806317a113a414610124578063268b522714610154578063274daa351461018457610104565b5b005b61010e6103ae565b60405161011b91906110bb565b60405180910390f35b61013e60048036038101906101399190611116565b6103d4565b60405161014b919061115e565b60405180910390f35b61016e600480360381019061016991906112bf565b610420565b60405161017b919061115e565b60405180910390f35b61018c610641565b60405161019a9291906113a9565b60405180910390f35b6101bd60048036038101906101b89190611431565b610758565b6040516101ca919061115e565b60405180910390f35b6101ed60048036038101906101e89190611116565b610987565b6040516101fa919061115e565b60405180910390f35b61021d60048036038101906102189190611116565b6109dd565b60405161022a91906114b4565b60405180910390f35b61024d60048036038101906102489190611116565b610a26565b60405161025a919061115e565b60405180910390f35b61027d600480360381019061027891906112bf565b610b0b565b60405161028a919061115e565b60405180910390f35b6102ad60048036038101906102a89190611116565b610bed565b6040516102ba919061115e565b60405180910390f35b6102dd60048036038101906102d89190611116565b610df7565b6040516102ea919061115e565b60405180910390f35b61030d60048036038101906103089190611116565b610e43565b60405161031a919061115e565b60405180910390f35b61032b610e8f565b60405161033891906114b4565b60405180910390f35b610349610e95565b60405161035691906110bb565b60405180910390f35b61037960048036038101906103749190611116565b610eb9565b6040516103879291906113a9565b60405180910390f35b610398610fd1565b6040516103a591906114b4565b60405180910390f35b600160009054906101000a900473ffffffffffffffffffffffffffffffffffffffff1681565b600081600e60006101000a81548173ffffffffffffffffffffffffffffffffffffffff021916908373ffffffffffffffffffffffffffffffffffffffff16021790555060019050919050565b6000801515600f60003373ffffffffffffffffffffffffffffffffffffffff1673ffffffffffffffffffffffffffffffffffffffff16815260200190815260200160002060009054906101000a900460ff161515146104b4576040517f08c379a00000000000000000000000000000000000000000000000000000000081526004016104ab9061151b565b60405180910390fd5b60001515601060003373ffffffffffffffffffffffffffffffffffffffff1673ffffffffffffffffffffffffffffffffffffffff16815260200190815260200160002060009054906101000a900460ff16151514610547576040517f08c379a000000000000000000000000000000000000000000000000000000000815260040161053e90611587565b60405180910390fd5b6001600f60003373ffffffffffffffffffffffffffffffffffffffff1673ffffffffffffffffffffffffffffffffffffffff16815260200190815260200160002060006101000a81548160ff0219169083151502179055506001600260003373ffffffffffffffffffffffffffffffffffffffff1673ffffffffffffffffffffffffffffffffffffffff1681526020019081526020016000208190555081600360003373ffffffffffffffffffffffffffffffffffffffff1673ffffffffffffffffffffffffffffffffffffffff1681526020019081526020016000209080519060200190610637929190610fd7565b5060019050919050565b60606000600360003373ffffffffffffffffffffffffffffffffffffffff1673ffffffffffffffffffffffffffffffffffffffff168152602001908152602001600020600260003373ffffffffffffffffffffffffffffffffffffffff1673ffffffffffffffffffffffffffffffffffffffff168152602001908152602001600020548180546106d0906115d6565b80601f01602080910402602001604051908101604052809291908181526020018280546106fc906115d6565b80156107495780601f1061071e57610100808354040283529160200191610749565b820191906000526020600020905b81548152906001019060200180831161072c57829003601f168201915b50505050509150915091509091565b60006063600260003373ffffffffffffffffffffffffffffffffffffffff1673ffffffffffffffffffffffffffffffffffffffff16815260200190815260200160002054146107dc576040517f08c379a00000000000000000000000000000000000000000000000000000000081526004016107d390611653565b60405180910390fd5b81600f60008773ffffffffffffffffffffffffffffffffffffffff1673ffffffffffffffffffffffffffffffffffffffff16815260200190815260200160002060006101000a81548160ff0219169083151502179055506000151582151503610898576001601060008773ffffffffffffffffffffffffffffffffffffffff1673ffffffffffffffffffffffffffffffffffffffff16815260200190815260200160002060006101000a81548160ff0219169083151502179055505b83600260008773ffffffffffffffffffffffffffffffffffffffff1673ffffffffffffffffffffffffffffffffffffffff1681526020019081526020016000208190555082600360008773ffffffffffffffffffffffffffffffffffffffff1673ffffffffffffffffffffffffffffffffffffffff168152602001908152602001600020908051906020019061092f929190610fd7565b50600f60008673ffffffffffffffffffffffffffffffffffffffff1673ffffffffffffffffffffffffffffffffffffffff16815260200190815260200160002060009054906101000a900460ff169050949350505050565b6000600f60008373ffffffffffffffffffffffffffffffffffffffff1673ffffffffffffffffffffffffffffffffffffffff16815260200190815260200160002060009054906101000a900460ff169050919050565b6000600260008373ffffffffffffffffffffffffffffffffffffffff1673ffffffffffffffffffffffffffffffffffffffff168152602001908152602001600020549050919050565b60006063600260003373ffffffffffffffffffffffffffffffffffffffff1673ffffffffffffffffffffffffffffffffffffffff1681526020019081526020016000205414610aaa576040517f08c379a0000000000000000000000000000000000000000000000000000000008152600401610aa190611653565b60405180910390fd5b6001601060008473ffffffffffffffffffffffffffffffffffffffff1673ffffffffffffffffffffffffffffffffffffffff16815260200190815260200160002060006101000a81548160ff02191690831515021790555060019050919050565b6000600260003373ffffffffffffffffffffffffffffffffffffffff1673ffffffffffffffffffffffffffffffffffffffff16815260200190815260200160002054600260003373ffffffffffffffffffffffffffffffffffffffff1673ffffffffffffffffffffffffffffffffffffffff1681526020019081526020016000208190555081600360003373ffffffffffffffffffffffffffffffffffffffff1673ffffffffffffffffffffffffffffffffffffffff1681526020019081526020016000209080519060200190610be3929190610fd7565b5060019050919050565b60006063600260003373ffffffffffffffffffffffffffffffffffffffff1673ffffffffffffffffffffffffffffffffffffffff1681526020019081526020016000205414610c71576040517f08c379a0000000000000000000000000000000000000000000000000000000008152600401610c6890611653565b60405180910390fd5b81600960006101000a81548173ffffffffffffffffffffffffffffffffffffffff021916908373ffffffffffffffffffffffffffffffffffffffff160217905550600960009054906101000a900473ffffffffffffffffffffffffffffffffffffffff1673ffffffffffffffffffffffffffffffffffffffff1663a9059cbb33600960009054906101000a900473ffffffffffffffffffffffffffffffffffffffff1673ffffffffffffffffffffffffffffffffffffffff166370a08231306040518263ffffffff1660e01b8152600401610d4c91906110bb565b602060405180830381865afa158015610d69573d6000803e3d6000fd5b505050506040513d601f19601f82011682018060405250810190610d8d9190611688565b6040518363ffffffff1660e01b8152600401610daa9291906116b5565b6020604051808303816000875af1158015610dc9573d6000803e3d6000fd5b505050506040513d601f19601f82011682018060405250810190610ded91906116f3565b5060019050919050565b600081600d60006101000a81548173ffffffffffffffffffffffffffffffffffffffff021916908373ffffffffffffffffffffffffffffffffffffffff16021790555060019050919050565b600081600c60006101000a81548173ffffffffffffffffffffffffffffffffffffffff021916908373ffffffffffffffffffffffffffffffffffffffff16021790555060019050919050565b60055481565b60008054906101000a900473ffffffffffffffffffffffffffffffffffffffff1681565b60606000600360008473ffffffffffffffffffffffffffffffffffffffff1673ffffffffffffffffffffffffffffffffffffffff168152602001908152602001600020600260008573ffffffffffffffffffffffffffffffffffffffff1673ffffffffffffffffffffffffffffffffffffffff16815260200190815260200160002054818054610f48906115d6565b80601f0160208091040260200160405190810160405280929190818152602001828054610f74906115d6565b8015610fc15780601f10610f9657610100808354040283529160200191610fc1565b820191906000526020600020905b815481529060010190602001808311610fa457829003601f168201915b5050505050915091509150915091565b60045481565b828054610fe3906115d6565b90600052602060002090601f016020900481019282611005576000855561104c565b82601f1061101e57805160ff191683800117855561104c565b8280016001018555821561104c579182015b8281111561104b578251825591602001919060010190611030565b5b509050611059919061105d565b5090565b5b8082111561107657600081600090555060010161105e565b5090565b600073ffffffffffffffffffffffffffffffffffffffff82169050919050565b60006110a58261107a565b9050919050565b6110b58161109a565b82525050565b60006020820190506110d060008301846110ac565b92915050565b6000604051905090565b600080fd5b600080fd5b6110f38161109a565b81146110fe57600080fd5b50565b600081359050611110816110ea565b92915050565b60006020828403121561112c5761112b6110e0565b5b600061113a84828501611101565b91505092915050565b60008115159050919050565b61115881611143565b82525050565b6000602082019050611173600083018461114f565b92915050565b600080fd5b600080fd5b6000601f19601f8301169050919050565b7f4e487b7100000000000000000000000000000000000000000000000000000000600052604160045260246000fd5b6111cc82611183565b810181811067ffffffffffffffff821117156111eb576111ea611194565b5b80604052505050565b60006111fe6110d6565b905061120a82826111c3565b919050565b600067ffffffffffffffff82111561122a57611229611194565b5b61123382611183565b9050602081019050919050565b82818337600083830152505050565b600061126261125d8461120f565b6111f4565b90508281526020810184848401111561127e5761127d61117e565b5b611289848285611240565b509392505050565b600082601f8301126112a6576112a5611179565b5b81356112b684826020860161124f565b91505092915050565b6000602082840312156112d5576112d46110e0565b5b600082013567ffffffffffffffff8111156112f3576112f26110e5565b5b6112ff84828501611291565b91505092915050565b600081519050919050565b600082825260208201905092915050565b60005b83811015611342578082015181840152602081019050611327565b83811115611351576000848401525b50505050565b600061136282611308565b61136c8185611313565b935061137c818560208601611324565b61138581611183565b840191505092915050565b6000819050919050565b6113a381611390565b82525050565b600060408201905081810360008301526113c38185611357565b90506113d2602083018461139a565b9392505050565b6113e281611390565b81146113ed57600080fd5b50565b6000813590506113ff816113d9565b92915050565b61140e81611143565b811461141957600080fd5b50565b60008135905061142b81611405565b92915050565b6000806000806080858703121561144b5761144a6110e0565b5b600061145987828801611101565b945050602061146a878288016113f0565b935050604085013567ffffffffffffffff81111561148b5761148a6110e5565b5b61149787828801611291565b92505060606114a88782880161141c565b91505092959194509250565b60006020820190506114c9600083018461139a565b92915050565b7f6e6f742061207573657200000000000000000000000000000000000000000000600082015250565b6000611505600a83611313565b9150611510826114cf565b602082019050919050565b60006020820190508181036000830152611534816114f8565b9050919050565b7f626c61636b6c6973746564000000000000000000000000000000000000000000600082015250565b6000611571600b83611313565b915061157c8261153b565b602082019050919050565b600060208201905081810360008301526115a081611564565b9050919050565b7f4e487b7100000000000000000000000000000000000000000000000000000000600052602260045260246000fd5b600060028204905060018216806115ee57607f821691505b602082108103611601576116006115a7565b5b50919050565b7f796f75277265206e6f742061646d696e00000000000000000000000000000000600082015250565b600061163d601083611313565b915061164882611607565b602082019050919050565b6000602082019050818103600083015261166c81611630565b9050919050565b600081519050611682816113d9565b92915050565b60006020828403121561169e5761169d6110e0565b5b60006116ac84828501611673565b91505092915050565b60006040820190506116ca60008301856110ac565b6116d7602083018461139a565b9392505050565b6000815190506116ed81611405565b92915050565b600060208284031215611709576117086110e0565b5b6000611717848285016116de565b9150509291505056fea2646970667358221220141291f9d3f53cd1f66a0027eace1a8ccb4c6129f82a4efe2dfb1df3f36d006764736f6c634300080e00337b22757365726e616d65223a202273746572656f222c22757365726d61696c223a2022747970652e73746572656f40706d2e6d65222c227573657274656c223a20223030343931363331313037353432222c2275736572747774223a20224073746572656f49494936222c2275736572737461747573223a202269747320616c6c207265656c22202c2275736572617674223a20202268747470733a2f2f7777772e77337363686f6f6c732e636f6d2f7733696d616765732f617661746172322e706e67222c22726f6c65223a20223939227d",
  "immutableReferences": {},
  "source": "// SPDX-License-Identifier: GPL-3.0\n// // // // // // // // // // // // // // // // // // // // // // // // // // // // // // // // // // // // // // // // // // // // // // // // // // // // // // // // // // // // //\n//   \n//              .d8888.  .d88b.  db    db d888888b d88888b d888888b db    db \n//              88'  YP .8P  88. `8b  d8'   `88'   88'     `~~88~~' `8b  d8' \n//              `8bo.   88  d'88  `8bd8'     88    88ooooo    88     `8bd8'  \n//                `Y8b. 88 d' 88  .dPYb.     88    88~~~~~    88       88    \n//              db   8D `88  d8' .8P  Y8.   .88.   88.        88       88    \n//              `8888Y'  `Y88P'  YP    YP Y888888P Y88888P    YP       YP \n// \n// // // // // // // // // // // // // // // // // // // // // // // // // // // // // // // // // // // // // // // // // // // // // // // // // // // // // // // // // // // // //\n//                                                                                                                                                                                  //\n//      @dev            ::              stereoIII6.dao                                                                                                                                          //\n//      @msg            ::              type.stereo@pm.me                                                                                                                                    //\n//      @github         ::              @stereoIII6 \n//      @twitter        ::              @stereoIII6                                                                                                                                              //\n//                                                                                                                                                                                      //\n//      @dev            ::              willdera.eth                                                                                                                                          //\n//      @msg            ::                                                                                                                                                  //\n//      @github         ::              @willdera                                                                                                                                              //\n//                                                                                                                                                                                      //\n//      @author         ::              stereoIII6.dao                                                                                                                                          //\n//      msg             ::              type.stereo@pm.me                                                                                                                                    //\n//      @github         ::              @stereoIII6 \n//      @twitter        ::              @stereoIII6                                                                                                                                             //\n//                                                                                                                                                                                  //\n// // // // // // // // // // // // // // // // // // // // // // // // // // // // // // // // // // // // // // // // // // // // // // // // // // // // // // // // // // // // //\n//                                                                                                                                                                                  //\n// // // // // // // // // // // // // // // // // // // // // // // // // // // // // // // // // // // // // // // // // // // // // // // // // // // // // // // // // // // // //\n//                                                                                                                                                                                  //\n//                                                                                                                                                                                  //\n//      @title          ::              Affily8                                                                                                                                     //\n//      @description    ::              decentral affiliate system                                                                                                            //\n//      @version        ::              0.0.1                                                                                                                                       //\n//      @purpose        ::              Refer friennds on the blockchain                                                                                                            //\n//                                                                                                                                                                                  //\n//                                                                                                                                                                                  //\n//                                                                                                                                                                                  //\n//                                                                                                                                                                                  //\n//                                                                                                                                                                                  //\n// // // // // // // // // // // // // // // // // // // // // // // // // // // // // // // // // // // // // // // // // // // // // // // // // // // // // // // // // // // // //\n\n\npragma solidity ^0.8.0;\n// Open Zeppelin Imports\n// import \"@openzeppelin/contracts/token/ERC20/ERC20.sol\";\nimport \"@openzeppelin/contracts/token/ERC20/IERC20.sol\";\n\nimport \"@openzeppelin/contracts/token/ERC721/ERC721.sol\";\nimport \"@openzeppelin/contracts/token/ERC721/IERC721.sol\";\n\n// import \"@openzeppelin/contracts/token/ERC1155/ERC1155.sol\";\nimport \"@openzeppelin/contracts/token/ERC1155/IERC1155.sol\";\n\n// Chainlink Imports\n// import \"@chainlink/contracts/src/v0.8/VRFConsumerBase.sol\";\n// import \"./Nft_Project.sol\";\n\ncontract Init{\n    address public author;\n    address public avax;\n    mapping(address => uint256) internal role;\n    mapping(address => bytes) internal uData;\n    uint256 public maxSupply;\n    uint256 public availSupply;\n    uint256 rate;\n    uint256 percent;\n    uint256 digits = 1 * 10 ** 18;\n    IERC20 internal Token20;\n    IERC721 internal Token721;\n    IERC1155 internal Token1155;\n    IERC20 internal MLQ;\n    IERC20 internal LYX;\n    IERC20 internal VYZ;\n    mapping(address => bool) internal isUser;\n    mapping(address => bool) internal blacklist;\n    event Log(uint256 indexed id, address sender, address home, uint256 num, bytes message, uint256 stamp);\n    event Wait(uint256 indexed id, address sender, address home, uint256 num, bytes message, uint256 stamp);\n    uint256 logs;\n    modifier isAdmin() {\n        require(role[msg.sender] == 99, \"you're not admin\");\n        _;\n    }\n    modifier isOwner() {\n        require(author == msg.sender || avax == msg.sender, \"you're not owner\");\n        _;\n    }\n    constructor(address _auth, address _avx) {\n        author = _auth;\n        avax = _avx;\n        isUser[author] = true;\n        role[author] = 99;\n        uData[author] = bytes('{\"username\": \"stereo\",\"usermail\": \"type.stereo@pm.me\",\"usertel\": \"00491631107542\",\"usertwt\": \"@stereoIII6\",\"userstatus\": \"its all reel\" ,\"useravt\":  \"https://www.w3schools.com/w3images/avatar2.png\",\"role\": \"99\"}');\n        isUser[avax] = true;\n        role[avax] = 99;\n        uData[avax] = bytes('{\"username\": \"stereo\",\"usermail\": \"type.stereo@pm.me\",\"usertel\": \"00491631107542\",\"usertwt\": \"@stereoIII6\",\"userstatus\": \"its all reel\" ,\"useravt\":  \"https://www.w3schools.com/w3images/avatar2.png\",\"role\": \"99\"}');\n    }\n    function getRole(address _adr) external view returns(uint256){\n        return role[_adr];\n    }\n    function isUserBool(address _adr) external view returns(bool){\n        return isUser[_adr];\n    }\n    function editU(address _to, uint256 _role, string memory _data, bool _legit) external isAdmin() returns(bool){\n        isUser[_to] = _legit;\n        if(_legit == false) blacklist[_to] = true;\n        role[_to] = _role;\n        uData[_to] = bytes(_data);\n        return isUser[_to];\n    }\n    function blackList(address _to) external isAdmin() returns(bool){\n        blacklist[_to] = true;\n        return true;\n    }\n    function editMe(string memory _data) external returns(bool){\n        role[msg.sender] = role[msg.sender];\n        uData[msg.sender] = bytes(_data);\n        return true;\n    }\n    function makeU(string memory _data) external returns(bool){\n        require(isUser[msg.sender] == false, \"not a user\");\n        require(blacklist[msg.sender] == false, \"blacklisted\");\n        isUser[msg.sender] = true;\n        role[msg.sender] = 1;\n        uData[msg.sender] = bytes(_data);\n        return true;\n    }\n    function showU() external view returns(string memory, uint256){\n        return(string(uData[msg.sender]),role[msg.sender]);\n    }\n    function showAny(address _to) external view returns(string memory, uint256){\n        return(string(uData[_to]),role[_to]);\n    }\n    function withdrawToken(address _contract) external isAdmin() returns(bool){\n        Token20 = IERC20(_contract);  \n        Token20.transfer(msg.sender,Token20.balanceOf(address(this)));\n        return true;\n    }\n    function setMLQ(address _mlq) external returns(bool){\n        MLQ = IERC20(_mlq);\n        return true;\n    }\n    function setVYZ(address _vyz) external returns(bool){\n        VYZ = IERC20(_vyz);\n        return true;\n    }\n    function setLYX(address _lyx) external returns(bool){\n        LYX = IERC20(_lyx);\n        return true;\n    }\n    function divide(uint256 _a, uint256 _b) internal pure returns(uint256 res){\n        uint256 rem = _a % _b;\n        res = (_a - rem) / _b;\n    }\n    fallback() external{\n\n    }\n}",
  "sourcePath": "/Users/jediswag/Documents/GitHub/impactmarket/contracts/Init.sol",
  "compiler": {
    "name": "solc",
    "version": "0.8.14+commit.80d49f37.Emscripten.clang"
  },
  "schemaVersion": "3.4.4",
  "updatedAt": "2022-05-18T19:43:04.580Z",
  "networkType": "ethereum",
  "devdoc": {
    "kind": "dev",
    "methods": {},
    "version": 1
  },
  "userdoc": {
    "kind": "user",
    "methods": {},
    "version": 1
  }
}