{
  "contractName": "Monthly",
  "abi": [
    {
      "inputs": [],
      "stateMutability": "nonpayable",
      "type": "constructor"
    },
    {
      "anonymous": false,
      "inputs": [
        {
          "indexed": true,
          "internalType": "address",
          "name": "account",
          "type": "address"
        },
        {
          "indexed": true,
          "internalType": "address",
          "name": "operator",
          "type": "address"
        },
        {
          "indexed": false,
          "internalType": "bool",
          "name": "approved",
          "type": "bool"
        }
      ],
      "name": "ApprovalForAll",
      "type": "event"
    },
    {
      "anonymous": false,
      "inputs": [
        {
          "indexed": true,
          "internalType": "address",
          "name": "operator",
          "type": "address"
        },
        {
          "indexed": true,
          "internalType": "address",
          "name": "from",
          "type": "address"
        },
        {
          "indexed": true,
          "internalType": "address",
          "name": "to",
          "type": "address"
        },
        {
          "indexed": false,
          "internalType": "uint256[]",
          "name": "ids",
          "type": "uint256[]"
        },
        {
          "indexed": false,
          "internalType": "uint256[]",
          "name": "values",
          "type": "uint256[]"
        }
      ],
      "name": "TransferBatch",
      "type": "event"
    },
    {
      "anonymous": false,
      "inputs": [
        {
          "indexed": true,
          "internalType": "address",
          "name": "operator",
          "type": "address"
        },
        {
          "indexed": true,
          "internalType": "address",
          "name": "from",
          "type": "address"
        },
        {
          "indexed": true,
          "internalType": "address",
          "name": "to",
          "type": "address"
        },
        {
          "indexed": false,
          "internalType": "uint256",
          "name": "id",
          "type": "uint256"
        },
        {
          "indexed": false,
          "internalType": "uint256",
          "name": "value",
          "type": "uint256"
        }
      ],
      "name": "TransferSingle",
      "type": "event"
    },
    {
      "anonymous": false,
      "inputs": [
        {
          "indexed": false,
          "internalType": "string",
          "name": "value",
          "type": "string"
        },
        {
          "indexed": true,
          "internalType": "uint256",
          "name": "id",
          "type": "uint256"
        }
      ],
      "name": "URI",
      "type": "event"
    },
    {
      "inputs": [
        {
          "internalType": "address",
          "name": "account",
          "type": "address"
        },
        {
          "internalType": "uint256",
          "name": "id",
          "type": "uint256"
        }
      ],
      "name": "balanceOf",
      "outputs": [
        {
          "internalType": "uint256",
          "name": "",
          "type": "uint256"
        }
      ],
      "stateMutability": "view",
      "type": "function"
    },
    {
      "inputs": [
        {
          "internalType": "address[]",
          "name": "accounts",
          "type": "address[]"
        },
        {
          "internalType": "uint256[]",
          "name": "ids",
          "type": "uint256[]"
        }
      ],
      "name": "balanceOfBatch",
      "outputs": [
        {
          "internalType": "uint256[]",
          "name": "",
          "type": "uint256[]"
        }
      ],
      "stateMutability": "view",
      "type": "function"
    },
    {
      "inputs": [
        {
          "internalType": "uint256",
          "name": "",
          "type": "uint256"
        }
      ],
      "name": "expiryDates",
      "outputs": [
        {
          "internalType": "uint256",
          "name": "",
          "type": "uint256"
        }
      ],
      "stateMutability": "view",
      "type": "function"
    },
    {
      "inputs": [
        {
          "internalType": "address",
          "name": "account",
          "type": "address"
        },
        {
          "internalType": "address",
          "name": "operator",
          "type": "address"
        }
      ],
      "name": "isApprovedForAll",
      "outputs": [
        {
          "internalType": "bool",
          "name": "",
          "type": "bool"
        }
      ],
      "stateMutability": "view",
      "type": "function"
    },
    {
      "inputs": [
        {
          "internalType": "uint256",
          "name": "",
          "type": "uint256"
        }
      ],
      "name": "proposals",
      "outputs": [
        {
          "internalType": "uint256",
          "name": "id",
          "type": "uint256"
        },
        {
          "internalType": "string",
          "name": "proposal",
          "type": "string"
        },
        {
          "internalType": "address",
          "name": "proposer",
          "type": "address"
        },
        {
          "internalType": "uint256",
          "name": "time",
          "type": "uint256"
        },
        {
          "internalType": "uint256",
          "name": "votes",
          "type": "uint256"
        }
      ],
      "stateMutability": "view",
      "type": "function"
    },
    {
      "inputs": [
        {
          "internalType": "uint256",
          "name": "",
          "type": "uint256"
        }
      ],
      "name": "proposers",
      "outputs": [
        {
          "internalType": "address",
          "name": "",
          "type": "address"
        }
      ],
      "stateMutability": "view",
      "type": "function"
    },
    {
      "inputs": [
        {
          "internalType": "address",
          "name": "from",
          "type": "address"
        },
        {
          "internalType": "address",
          "name": "to",
          "type": "address"
        },
        {
          "internalType": "uint256[]",
          "name": "ids",
          "type": "uint256[]"
        },
        {
          "internalType": "uint256[]",
          "name": "amounts",
          "type": "uint256[]"
        },
        {
          "internalType": "bytes",
          "name": "data",
          "type": "bytes"
        }
      ],
      "name": "safeBatchTransferFrom",
      "outputs": [],
      "stateMutability": "nonpayable",
      "type": "function"
    },
    {
      "inputs": [
        {
          "internalType": "address",
          "name": "from",
          "type": "address"
        },
        {
          "internalType": "address",
          "name": "to",
          "type": "address"
        },
        {
          "internalType": "uint256",
          "name": "id",
          "type": "uint256"
        },
        {
          "internalType": "uint256",
          "name": "amount",
          "type": "uint256"
        },
        {
          "internalType": "bytes",
          "name": "data",
          "type": "bytes"
        }
      ],
      "name": "safeTransferFrom",
      "outputs": [],
      "stateMutability": "nonpayable",
      "type": "function"
    },
    {
      "inputs": [
        {
          "internalType": "address",
          "name": "operator",
          "type": "address"
        },
        {
          "internalType": "bool",
          "name": "approved",
          "type": "bool"
        }
      ],
      "name": "setApprovalForAll",
      "outputs": [],
      "stateMutability": "nonpayable",
      "type": "function"
    },
    {
      "inputs": [
        {
          "internalType": "bytes4",
          "name": "interfaceId",
          "type": "bytes4"
        }
      ],
      "name": "supportsInterface",
      "outputs": [
        {
          "internalType": "bool",
          "name": "",
          "type": "bool"
        }
      ],
      "stateMutability": "view",
      "type": "function"
    },
    {
      "inputs": [],
      "name": "tokenId",
      "outputs": [
        {
          "internalType": "uint256",
          "name": "",
          "type": "uint256"
        }
      ],
      "stateMutability": "view",
      "type": "function"
    },
    {
      "inputs": [
        {
          "internalType": "uint256",
          "name": "",
          "type": "uint256"
        }
      ],
      "name": "tokens",
      "outputs": [
        {
          "internalType": "uint256",
          "name": "tokenId",
          "type": "uint256"
        },
        {
          "internalType": "uint256",
          "name": "amount",
          "type": "uint256"
        },
        {
          "internalType": "uint256",
          "name": "birthDate",
          "type": "uint256"
        }
      ],
      "stateMutability": "view",
      "type": "function"
    },
    {
      "inputs": [
        {
          "internalType": "uint256",
          "name": "",
          "type": "uint256"
        }
      ],
      "name": "uri",
      "outputs": [
        {
          "internalType": "string",
          "name": "",
          "type": "string"
        }
      ],
      "stateMutability": "view",
      "type": "function"
    },
    {
      "inputs": [
        {
          "internalType": "string",
          "name": "_tokenData",
          "type": "string"
        }
      ],
      "name": "createMonthlyTokens",
      "outputs": [
        {
          "internalType": "bool",
          "name": "",
          "type": "bool"
        }
      ],
      "stateMutability": "nonpayable",
      "type": "function"
    },
    {
      "inputs": [
        {
          "internalType": "address",
          "name": "_user",
          "type": "address"
        },
        {
          "internalType": "uint256",
          "name": "_amount",
          "type": "uint256"
        }
      ],
      "name": "distributeTokens",
      "outputs": [
        {
          "internalType": "bool",
          "name": "",
          "type": "bool"
        }
      ],
      "stateMutability": "nonpayable",
      "type": "function"
    },
    {
      "inputs": [
        {
          "internalType": "uint256",
          "name": "_tokenId",
          "type": "uint256"
        },
        {
          "internalType": "uint256",
          "name": "_amount",
          "type": "uint256"
        },
        {
          "internalType": "string",
          "name": "_proposal",
          "type": "string"
        }
      ],
      "name": "makeProposal",
      "outputs": [
        {
          "internalType": "bool",
          "name": "",
          "type": "bool"
        }
      ],
      "stateMutability": "nonpayable",
      "type": "function"
    },
    {
      "inputs": [
        {
          "internalType": "uint256",
          "name": "_proposalId",
          "type": "uint256"
        },
        {
          "internalType": "uint256",
          "name": "_tokenId",
          "type": "uint256"
        }
      ],
      "name": "voteForProposal",
      "outputs": [
        {
          "internalType": "bool",
          "name": "",
          "type": "bool"
        }
      ],
      "stateMutability": "nonpayable",
      "type": "function"
    },
    {
      "inputs": [
        {
          "internalType": "string",
          "name": "_uri",
          "type": "string"
        }
      ],
      "name": "changeUri",
      "outputs": [
        {
          "internalType": "bool",
          "name": "",
          "type": "bool"
        }
      ],
      "stateMutability": "nonpayable",
      "type": "function"
    },
    {
      "inputs": [
        {
          "internalType": "uint256",
          "name": "_amount",
          "type": "uint256"
        }
      ],
      "name": "changeMonthlyAmount",
      "outputs": [
        {
          "internalType": "bool",
          "name": "",
          "type": "bool"
        }
      ],
      "stateMutability": "nonpayable",
      "type": "function"
    },
    {
      "inputs": [],
      "name": "viewProposers",
      "outputs": [
        {
          "internalType": "address[]",
          "name": "",
          "type": "address[]"
        }
      ],
      "stateMutability": "view",
      "type": "function"
    },
    {
      "inputs": [
        {
          "internalType": "uint256",
          "name": "_id",
          "type": "uint256"
        }
      ],
      "name": "viewProposal",
      "outputs": [
        {
          "internalType": "string",
          "name": "",
          "type": "string"
        }
      ],
      "stateMutability": "view",
      "type": "function"
    },
    {
      "inputs": [],
      "name": "listOfProposals",
      "outputs": [
        {
          "components": [
            {
              "internalType": "uint256",
              "name": "id",
              "type": "uint256"
            },
            {
              "internalType": "string",
              "name": "proposal",
              "type": "string"
            },
            {
              "internalType": "address",
              "name": "proposer",
              "type": "address"
            },
            {
              "internalType": "uint256",
              "name": "time",
              "type": "uint256"
            },
            {
              "internalType": "uint256",
              "name": "votes",
              "type": "uint256"
            }
          ],
          "internalType": "struct Monthly.Proposal[]",
          "name": "",
          "type": "tuple[]"
        }
      ],
      "stateMutability": "view",
      "type": "function"
    },
    {
      "inputs": [
        {
          "internalType": "uint256",
          "name": "_newLockTime",
          "type": "uint256"
        }
      ],
      "name": "changeLockTime",
      "outputs": [
        {
          "internalType": "bool",
          "name": "",
          "type": "bool"
        }
      ],
      "stateMutability": "nonpayable",
      "type": "function"
    },
    {
      "inputs": [
        {
          "internalType": "uint256",
          "name": "_tokenId",
          "type": "uint256"
        }
      ],
      "name": "checkTokenExpiry",
      "outputs": [
        {
          "internalType": "uint256",
          "name": "",
          "type": "uint256"
        }
      ],
      "stateMutability": "view",
      "type": "function"
    },
    {
      "inputs": [
        {
          "internalType": "uint256",
          "name": "_tokenId",
          "type": "uint256"
        }
      ],
      "name": "isExpired",
      "outputs": [
        {
          "internalType": "bool",
          "name": "result",
          "type": "bool"
        }
      ],
      "stateMutability": "view",
      "type": "function"
    }
  ],
  "bytecode": "0x6080604052731cd6f4d329d38043a6bdb3665c3a7b06f79b5242600360006101000a81548173ffffffffffffffffffffffffffffffffffffffff021916908373ffffffffffffffffffffffffffffffffffffffff160217905550600a600455601e60055562278d006006553480156200007757600080fd5b506040518060400160405280600f81526020017f50726f706f73616c20546f6b656e730000000000000000000000000000000000815250620000bf81620000c660201b60201c565b50620001f6565b8060029080519060200190620000de929190620000e2565b5050565b828054620000f090620001c1565b90600052602060002090601f01602090048101928262000114576000855562000160565b82601f106200012f57805160ff191683800117855562000160565b8280016001018555821562000160579182015b828111156200015f57825182559160200191906001019062000142565b5b5090506200016f919062000173565b5090565b5b808211156200018e57600081600090555060010162000174565b5090565b7f4e487b7100000000000000000000000000000000000000000000000000000000600052602260045260246000fd5b60006002820490506001821680620001da57607f821691505b602082108103620001f057620001ef62000192565b5b50919050565b61470a80620002066000396000f3fe608060405234801561001057600080fd5b50600436106101725760003560e01c80637e3eb701116100de578063dcf7b1d011610097578063eb1f9f6e11610071578063eb1f9f6e14610521578063f242432a14610551578063f8f1212a1461056d578063fb649dc81461059d57610172565b8063dcf7b1d014610491578063e3fec1d0146104c1578063e985e9c5146104f157610172565b80637e3eb7011461038557806396cf5227146103b5578063a22cb465146103e5578063c86651ab14610401578063ce8e80c114610431578063d9548e531461046157610172565b80632eb2c2d6116101305780632eb2c2d61461028957806342f90b93146102a55780634e1273f4146102d55780634f64b2be14610305578063623e3d1a146103375780636822cea21461036757610172565b8062fdd58e14610177578063013cf08b146101a757806301ffc9a7146101db5780630e89341c1461020b578063158a49881461023b57806317d70f7c1461026b575b600080fd5b610191600480360381019061018c9190612b39565b6105bb565b60405161019e9190612b88565b60405180910390f35b6101c160048036038101906101bc9190612ba3565b610683565b6040516101d2959493929190612c78565b60405180910390f35b6101f560048036038101906101f09190612d2a565b610771565b6040516102029190612d72565b60405180910390f35b61022560048036038101906102209190612ba3565b610853565b6040516102329190612d8d565b60405180910390f35b61025560048036038101906102509190612b39565b6108e7565b6040516102629190612d72565b60405180910390f35b6102736109bb565b6040516102809190612b88565b60405180910390f35b6102a3600480360381019061029e9190612fac565b6109c1565b005b6102bf60048036038101906102ba9190612ba3565b610a62565b6040516102cc9190612d72565b60405180910390f35b6102ef60048036038101906102ea919061313e565b610b17565b6040516102fc9190613274565b60405180910390f35b61031f600480360381019061031a9190612ba3565b610c30565b60405161032e93929190613296565b60405180910390f35b610351600480360381019061034c9190612ba3565b610c6a565b60405161035e91906132cd565b60405180910390f35b61036f610ca9565b60405161037c9190613479565b60405180910390f35b61039f600480360381019061039a9190612ba3565b610e0e565b6040516103ac9190612b88565b60405180910390f35b6103cf60048036038101906103ca9190612ba3565b610e76565b6040516103dc9190612d72565b60405180910390f35b6103ff60048036038101906103fa91906134c7565b610ee2565b005b61041b600480360381019061041691906135a8565b610ef8565b6040516104289190612d72565b60405180910390f35b61044b60048036038101906104469190612ba3565b610fee565b6040516104589190612b88565b60405180910390f35b61047b60048036038101906104769190612ba3565b611006565b6040516104889190612d72565b60405180910390f35b6104ab60048036038101906104a691906135f1565b611055565b6040516104b89190612d72565b60405180910390f35b6104db60048036038101906104d69190612ba3565b6112c9565b6040516104e89190612d8d565b60405180910390f35b61050b60048036038101906105069190613660565b611380565b6040516105189190612d72565b60405180910390f35b61053b600480360381019061053691906135a8565b611414565b6040516105489190612d72565b60405180910390f35b61056b600480360381019061056691906136a0565b611482565b005b61058760048036038101906105829190613737565b611523565b6040516105949190612d72565b60405180910390f35b6105a5611814565b6040516105b29190613826565b60405180910390f35b60008073ffffffffffffffffffffffffffffffffffffffff168373ffffffffffffffffffffffffffffffffffffffff160361062b576040517f08c379a0000000000000000000000000000000000000000000000000000000008152600401610622906138ba565b60405180910390fd5b60008083815260200190815260200160002060008473ffffffffffffffffffffffffffffffffffffffff1673ffffffffffffffffffffffffffffffffffffffff16815260200190815260200160002054905092915050565b600c818154811061069357600080fd5b90600052602060002090600502016000915090508060000154908060010180546106bc90613909565b80601f01602080910402602001604051908101604052809291908181526020018280546106e890613909565b80156107355780601f1061070a57610100808354040283529160200191610735565b820191906000526020600020905b81548152906001019060200180831161071857829003601f168201915b5050505050908060020160009054906101000a900473ffffffffffffffffffffffffffffffffffffffff16908060030154908060040154905085565b60007fd9b67a26000000000000000000000000000000000000000000000000000000007bffffffffffffffffffffffffffffffffffffffffffffffffffffffff1916827bffffffffffffffffffffffffffffffffffffffffffffffffffffffff1916148061083c57507f0e89341c000000000000000000000000000000000000000000000000000000007bffffffffffffffffffffffffffffffffffffffffffffffffffffffff1916827bffffffffffffffffffffffffffffffffffffffffffffffffffffffff1916145b8061084c575061084b8261191f565b5b9050919050565b60606002805461086290613909565b80601f016020809104026020016040519081016040528092919081815260200182805461088e90613909565b80156108db5780601f106108b0576101008083540402835291602001916108db565b820191906000526020600020905b8154815290600101906020018083116108be57829003601f168201915b50505050509050919050565b6000600360009054906101000a900473ffffffffffffffffffffffffffffffffffffffff1673ffffffffffffffffffffffffffffffffffffffff163373ffffffffffffffffffffffffffffffffffffffff161461094357600080fd5b610971600360009054906101000a900473ffffffffffffffffffffffffffffffffffffffff16846001611989565b6109b1600360009054906101000a900473ffffffffffffffffffffffffffffffffffffffff1684600a548560405180602001604052806000815250611482565b6001905092915050565b600a5481565b6109c9611af5565b73ffffffffffffffffffffffffffffffffffffffff168573ffffffffffffffffffffffffffffffffffffffff161480610a0f5750610a0e85610a09611af5565b611380565b5b610a4e576040517f08c379a0000000000000000000000000000000000000000000000000000000008152600401610a45906139ac565b60405180910390fd5b610a5b8585858585611afd565b5050505050565b6000600360009054906101000a900473ffffffffffffffffffffffffffffffffffffffff1673ffffffffffffffffffffffffffffffffffffffff163373ffffffffffffffffffffffffffffffffffffffff1614610abe57600080fd5b6005548211610ad35781600481905550610b0e565b6040517f08c379a0000000000000000000000000000000000000000000000000000000008152600401610b05906139f2565b60405180910390fd5b60019050919050565b60608151835114610b5d576040517f08c379a0000000000000000000000000000000000000000000000000000000008152600401610b5490613a84565b60405180910390fd5b6000835167ffffffffffffffff811115610b7a57610b79612db4565b5b604051908082528060200260200182016040528015610ba85781602001602082028036833780820191505090505b50905060005b8451811015610c2557610bf5858281518110610bcd57610bcc613aa4565b5b6020026020010151858381518110610be857610be7613aa4565b5b60200260200101516105bb565b828281518110610c0857610c07613aa4565b5b60200260200101818152505080610c1e90613b02565b9050610bae565b508091505092915050565b60098181548110610c4057600080fd5b90600052602060002090600302016000915090508060000154908060010154908060020154905083565b600d8181548110610c7a57600080fd5b906000526020600020016000915054906101000a900473ffffffffffffffffffffffffffffffffffffffff1681565b6060600c805480602002602001604051908101604052809291908181526020016000905b82821015610e0557838290600052602060002090600502016040518060a001604052908160008201548152602001600182018054610d0a90613909565b80601f0160208091040260200160405190810160405280929190818152602001828054610d3690613909565b8015610d835780601f10610d5857610100808354040283529160200191610d83565b820191906000526020600020905b815481529060010190602001808311610d6657829003601f168201915b505050505081526020016002820160009054906101000a900473ffffffffffffffffffffffffffffffffffffffff1673ffffffffffffffffffffffffffffffffffffffff1673ffffffffffffffffffffffffffffffffffffffff1681526020016003820154815260200160048201548152505081526020019060010190610ccd565b50505050905090565b600080610e1b33846105bb565b11610e5b576040517f08c379a0000000000000000000000000000000000000000000000000000000008152600401610e5290613bbc565b60405180910390fd5b60086000838152602001908152602001600020549050919050565b6000600360009054906101000a900473ffffffffffffffffffffffffffffffffffffffff1673ffffffffffffffffffffffffffffffffffffffff163373ffffffffffffffffffffffffffffffffffffffff1614610ed257600080fd5b8160068190555060019050919050565b610ef4610eed611af5565b8383611989565b5050565b6000600360009054906101000a900473ffffffffffffffffffffffffffffffffffffffff1673ffffffffffffffffffffffffffffffffffffffff163373ffffffffffffffffffffffffffffffffffffffff1614610f5457600080fd5b6000600a5403610f6c57610f6782611e10565b610fe5565b6000600a541115610fe457600860006001600a54610f8a9190613bdc565b8152602001908152602001600020544211610fda576040517f08c379a0000000000000000000000000000000000000000000000000000000008152600401610fd190613c5c565b60405180910390fd5b610fe382611e10565b5b5b60019050919050565b60086020528060005260406000206000915090505481565b60004260086000848152602001908152602001600020541161102b5760019050611050565b426008600084815260200190815260200160002054111561104f5760009050611050565b5b919050565b60008261106233866105bb565b101561106d57600080fd5b426008600086815260200190815260200160002054106112a957611092338585611f4f565b600c6040518060a00160405280600b5481526020018481526020013373ffffffffffffffffffffffffffffffffffffffff168152602001428152602001600081525090806001815401808255809150506001900390600052602060002090600502016000909190919091506000820151816000015560208201518160010190805190602001906111239291906129ee565b5060408201518160020160006101000a81548173ffffffffffffffffffffffffffffffffffffffff021916908373ffffffffffffffffffffffffffffffffffffffff16021790555060608201518160030155608082015181600401555050600e60003373ffffffffffffffffffffffffffffffffffffffff1673ffffffffffffffffffffffffffffffffffffffff16815260200190815260200160002060009054906101000a900460ff1661128e576001600e60003373ffffffffffffffffffffffffffffffffffffffff1673ffffffffffffffffffffffffffffffffffffffff16815260200190815260200160002060006101000a81548160ff021916908315150217905550600d339080600181540180825580915050600190039060005260206000200160009091909190916101000a81548173ffffffffffffffffffffffffffffffffffffffff021916908373ffffffffffffffffffffffffffffffffffffffff1602179055505b600b6000815461129d90613b02565b919050819055506112be565b6112bd33856112b833886105bb565b611f4f565b5b600190509392505050565b6060600c82815481106112df576112de613aa4565b5b906000526020600020906005020160010180546112fb90613909565b80601f016020809104026020016040519081016040528092919081815260200182805461132790613909565b80156113745780601f1061134957610100808354040283529160200191611374565b820191906000526020600020905b81548152906001019060200180831161135757829003601f168201915b50505050509050919050565b6000600160008473ffffffffffffffffffffffffffffffffffffffff1673ffffffffffffffffffffffffffffffffffffffff16815260200190815260200160002060008373ffffffffffffffffffffffffffffffffffffffff1673ffffffffffffffffffffffffffffffffffffffff16815260200190815260200160002060009054906101000a900460ff16905092915050565b6000600360009054906101000a900473ffffffffffffffffffffffffffffffffffffffff1673ffffffffffffffffffffffffffffffffffffffff163373ffffffffffffffffffffffffffffffffffffffff161461147057600080fd5b6114798261216b565b60019050919050565b61148a611af5565b73ffffffffffffffffffffffffffffffffffffffff168573ffffffffffffffffffffffffffffffffffffffff1614806114d057506114cf856114ca611af5565b611380565b5b61150f576040517f08c379a000000000000000000000000000000000000000000000000000000000815260040161150690613cee565b60405180910390fd5b61151c8585858585612185565b5050505050565b60006115443373ffffffffffffffffffffffffffffffffffffffff16612406565b15611584576040517f08c379a000000000000000000000000000000000000000000000000000000000815260040161157b90613d5a565b60405180910390fd5b600161159033846105bb565b10156115d1576040517f08c379a00000000000000000000000000000000000000000000000000000000081526004016115c890613dc6565b60405180910390fd5b600c83815481106115e5576115e4613aa4565b5b906000526020600020906005020160020160009054906101000a900473ffffffffffffffffffffffffffffffffffffffff1673ffffffffffffffffffffffffffffffffffffffff163373ffffffffffffffffffffffffffffffffffffffff1603611684576040517f08c379a000000000000000000000000000000000000000000000000000000000815260040161167b90613e32565b60405180910390fd5b60001515600760003373ffffffffffffffffffffffffffffffffffffffff1673ffffffffffffffffffffffffffffffffffffffff168152602001908152602001600020600085815260200190815260200160002060009054906101000a900460ff16151514611728576040517f08c379a000000000000000000000000000000000000000000000000000000000815260040161171f90613ec4565b60405180910390fd5b426008600084815260200190815260200160002054106117f55761174e33836001611f4f565b600c838154811061176257611761613aa4565b5b90600052602060002090600502016004016000815461178090613b02565b919050819055506001600760003373ffffffffffffffffffffffffffffffffffffffff1673ffffffffffffffffffffffffffffffffffffffff168152602001908152602001600020600085815260200190815260200160002060006101000a81548160ff02191690831515021790555061180a565b611809338361180433866105bb565b611f4f565b5b6001905092915050565b60606000600d8054905067ffffffffffffffff81111561183757611836612db4565b5b6040519080825280602002602001820160405280156118655781602001602082028036833780820191505090505b50905060005b600d8054905081101561191757600d818154811061188c5761188b613aa4565b5b9060005260206000200160009054906101000a900473ffffffffffffffffffffffffffffffffffffffff168282815181106118ca576118c9613aa4565b5b602002602001019073ffffffffffffffffffffffffffffffffffffffff16908173ffffffffffffffffffffffffffffffffffffffff1681525050808061190f90613b02565b91505061186b565b508091505090565b60007f01ffc9a7000000000000000000000000000000000000000000000000000000007bffffffffffffffffffffffffffffffffffffffffffffffffffffffff1916827bffffffffffffffffffffffffffffffffffffffffffffffffffffffff1916149050919050565b8173ffffffffffffffffffffffffffffffffffffffff168373ffffffffffffffffffffffffffffffffffffffff16036119f7576040517f08c379a00000000000000000000000000000000000000000000000000000000081526004016119ee90613f56565b60405180910390fd5b80600160008573ffffffffffffffffffffffffffffffffffffffff1673ffffffffffffffffffffffffffffffffffffffff16815260200190815260200160002060008473ffffffffffffffffffffffffffffffffffffffff1673ffffffffffffffffffffffffffffffffffffffff16815260200190815260200160002060006101000a81548160ff0219169083151502179055508173ffffffffffffffffffffffffffffffffffffffff168373ffffffffffffffffffffffffffffffffffffffff167f17307eab39ab6107e8899845ad3d59bd9653f200f220920489ca2b5937696c3183604051611ae89190612d72565b60405180910390a3505050565b600033905090565b8151835114611b41576040517f08c379a0000000000000000000000000000000000000000000000000000000008152600401611b3890613fe8565b60405180910390fd5b600073ffffffffffffffffffffffffffffffffffffffff168473ffffffffffffffffffffffffffffffffffffffff1603611bb0576040517f08c379a0000000000000000000000000000000000000000000000000000000008152600401611ba79061407a565b60405180910390fd5b6000611bba611af5565b9050611bca818787878787612429565b60005b8451811015611d7b576000858281518110611beb57611bea613aa4565b5b602002602001015190506000858381518110611c0a57611c09613aa4565b5b60200260200101519050600080600084815260200190815260200160002060008b73ffffffffffffffffffffffffffffffffffffffff1673ffffffffffffffffffffffffffffffffffffffff16815260200190815260200160002054905081811015611cab576040517f08c379a0000000000000000000000000000000000000000000000000000000008152600401611ca29061410c565b60405180910390fd5b81810360008085815260200190815260200160002060008c73ffffffffffffffffffffffffffffffffffffffff1673ffffffffffffffffffffffffffffffffffffffff168152602001908152602001600020819055508160008085815260200190815260200160002060008b73ffffffffffffffffffffffffffffffffffffffff1673ffffffffffffffffffffffffffffffffffffffff1681526020019081526020016000206000828254611d60919061412c565b9250508190555050505080611d7490613b02565b9050611bcd565b508473ffffffffffffffffffffffffffffffffffffffff168673ffffffffffffffffffffffffffffffffffffffff168273ffffffffffffffffffffffffffffffffffffffff167f4a39dc06d4c0dbc64b70af90fd698a233a518aa5d07e595d983b8c0526c8f7fb8787604051611df2929190614182565b60405180910390a4611e08818787878787612431565b505050505050565b600360009054906101000a900473ffffffffffffffffffffffffffffffffffffffff1673ffffffffffffffffffffffffffffffffffffffff163373ffffffffffffffffffffffffffffffffffffffff1614611e6a57600080fd5b611e9c600360009054906101000a900473ffffffffffffffffffffffffffffffffffffffff16600a5460045484612608565b60065442611eaa919061412c565b60086000600a5481526020019081526020016000208190555060096040518060600160405280600a54815260200160045481526020014281525090806001815401808255809150506001900390600052602060002090600302016000909190919091506000820151816000015560208201518160010155604082015181600201555050611f368161216b565b600a60008154611f4590613b02565b9190508190555050565b600073ffffffffffffffffffffffffffffffffffffffff168373ffffffffffffffffffffffffffffffffffffffff1603611fbe576040517f08c379a0000000000000000000000000000000000000000000000000000000008152600401611fb59061422b565b60405180910390fd5b6000611fc8611af5565b9050611ff881856000611fda8761279d565b611fe38761279d565b60405180602001604052806000815250612429565b600080600085815260200190815260200160002060008673ffffffffffffffffffffffffffffffffffffffff1673ffffffffffffffffffffffffffffffffffffffff1681526020019081526020016000205490508281101561208f576040517f08c379a0000000000000000000000000000000000000000000000000000000008152600401612086906142bd565b60405180910390fd5b82810360008086815260200190815260200160002060008773ffffffffffffffffffffffffffffffffffffffff1673ffffffffffffffffffffffffffffffffffffffff16815260200190815260200160002081905550600073ffffffffffffffffffffffffffffffffffffffff168573ffffffffffffffffffffffffffffffffffffffff168373ffffffffffffffffffffffffffffffffffffffff167fc3d58168c5ae7397731d063d5bbf3d657854427343f4c083240f7aacaa2d0f62878760405161215c9291906142dd565b60405180910390a45050505050565b80600290805190602001906121819291906129ee565b5050565b600073ffffffffffffffffffffffffffffffffffffffff168473ffffffffffffffffffffffffffffffffffffffff16036121f4576040517f08c379a00000000000000000000000000000000000000000000000000000000081526004016121eb9061407a565b60405180910390fd5b60006121fe611af5565b905061221e81878761220f8861279d565b6122188861279d565b87612429565b600080600086815260200190815260200160002060008873ffffffffffffffffffffffffffffffffffffffff1673ffffffffffffffffffffffffffffffffffffffff168152602001908152602001600020549050838110156122b5576040517f08c379a00000000000000000000000000000000000000000000000000000000081526004016122ac9061410c565b60405180910390fd5b83810360008087815260200190815260200160002060008973ffffffffffffffffffffffffffffffffffffffff1673ffffffffffffffffffffffffffffffffffffffff168152602001908152602001600020819055508360008087815260200190815260200160002060008873ffffffffffffffffffffffffffffffffffffffff1673ffffffffffffffffffffffffffffffffffffffff168152602001908152602001600020600082825461236a919061412c565b925050819055508573ffffffffffffffffffffffffffffffffffffffff168773ffffffffffffffffffffffffffffffffffffffff168373ffffffffffffffffffffffffffffffffffffffff167fc3d58168c5ae7397731d063d5bbf3d657854427343f4c083240f7aacaa2d0f6288886040516123e79291906142dd565b60405180910390a46123fd828888888888612817565b50505050505050565b6000808273ffffffffffffffffffffffffffffffffffffffff163b119050919050565b505050505050565b6124508473ffffffffffffffffffffffffffffffffffffffff16612406565b15612600578373ffffffffffffffffffffffffffffffffffffffff1663bc197c8187878686866040518663ffffffff1660e01b815260040161249695949392919061435b565b6020604051808303816000875af19250505080156124d257506040513d601f19601f820116820180604052508101906124cf91906143d8565b60015b612577576124de614412565b806308c379a00361253a57506124f2614434565b806124fd575061253c565b806040517f08c379a00000000000000000000000000000000000000000000000000000000081526004016125319190612d8d565b60405180910390fd5b505b6040517f08c379a000000000000000000000000000000000000000000000000000000000815260040161256e90614536565b60405180910390fd5b63bc197c8160e01b7bffffffffffffffffffffffffffffffffffffffffffffffffffffffff1916817bffffffffffffffffffffffffffffffffffffffffffffffffffffffff1916146125fe576040517f08c379a00000000000000000000000000000000000000000000000000000000081526004016125f5906145c8565b60405180910390fd5b505b505050505050565b600073ffffffffffffffffffffffffffffffffffffffff168473ffffffffffffffffffffffffffffffffffffffff1603612677576040517f08c379a000000000000000000000000000000000000000000000000000000000815260040161266e9061465a565b60405180910390fd5b6000612681611af5565b90506126a2816000876126938861279d565b61269c8861279d565b87612429565b8260008086815260200190815260200160002060008773ffffffffffffffffffffffffffffffffffffffff1673ffffffffffffffffffffffffffffffffffffffff1681526020019081526020016000206000828254612701919061412c565b925050819055508473ffffffffffffffffffffffffffffffffffffffff16600073ffffffffffffffffffffffffffffffffffffffff168273ffffffffffffffffffffffffffffffffffffffff167fc3d58168c5ae7397731d063d5bbf3d657854427343f4c083240f7aacaa2d0f62878760405161277f9291906142dd565b60405180910390a461279681600087878787612817565b5050505050565b60606000600167ffffffffffffffff8111156127bc576127bb612db4565b5b6040519080825280602002602001820160405280156127ea5781602001602082028036833780820191505090505b509050828160008151811061280257612801613aa4565b5b60200260200101818152505080915050919050565b6128368473ffffffffffffffffffffffffffffffffffffffff16612406565b156129e6578373ffffffffffffffffffffffffffffffffffffffff1663f23a6e6187878686866040518663ffffffff1660e01b815260040161287c95949392919061467a565b6020604051808303816000875af19250505080156128b857506040513d601f19601f820116820180604052508101906128b591906143d8565b60015b61295d576128c4614412565b806308c379a00361292057506128d8614434565b806128e35750612922565b806040517f08c379a00000000000000000000000000000000000000000000000000000000081526004016129179190612d8d565b60405180910390fd5b505b6040517f08c379a000000000000000000000000000000000000000000000000000000000815260040161295490614536565b60405180910390fd5b63f23a6e6160e01b7bffffffffffffffffffffffffffffffffffffffffffffffffffffffff1916817bffffffffffffffffffffffffffffffffffffffffffffffffffffffff1916146129e4576040517f08c379a00000000000000000000000000000000000000000000000000000000081526004016129db906145c8565b60405180910390fd5b505b505050505050565b8280546129fa90613909565b90600052602060002090601f016020900481019282612a1c5760008555612a63565b82601f10612a3557805160ff1916838001178555612a63565b82800160010185558215612a63579182015b82811115612a62578251825591602001919060010190612a47565b5b509050612a709190612a74565b5090565b5b80821115612a8d576000816000905550600101612a75565b5090565b6000604051905090565b600080fd5b600080fd5b600073ffffffffffffffffffffffffffffffffffffffff82169050919050565b6000612ad082612aa5565b9050919050565b612ae081612ac5565b8114612aeb57600080fd5b50565b600081359050612afd81612ad7565b92915050565b6000819050919050565b612b1681612b03565b8114612b2157600080fd5b50565b600081359050612b3381612b0d565b92915050565b60008060408385031215612b5057612b4f612a9b565b5b6000612b5e85828601612aee565b9250506020612b6f85828601612b24565b9150509250929050565b612b8281612b03565b82525050565b6000602082019050612b9d6000830184612b79565b92915050565b600060208284031215612bb957612bb8612a9b565b5b6000612bc784828501612b24565b91505092915050565b600081519050919050565b600082825260208201905092915050565b60005b83811015612c0a578082015181840152602081019050612bef565b83811115612c19576000848401525b50505050565b6000601f19601f8301169050919050565b6000612c3b82612bd0565b612c458185612bdb565b9350612c55818560208601612bec565b612c5e81612c1f565b840191505092915050565b612c7281612ac5565b82525050565b600060a082019050612c8d6000830188612b79565b8181036020830152612c9f8187612c30565b9050612cae6040830186612c69565b612cbb6060830185612b79565b612cc86080830184612b79565b9695505050505050565b60007fffffffff0000000000000000000000000000000000000000000000000000000082169050919050565b612d0781612cd2565b8114612d1257600080fd5b50565b600081359050612d2481612cfe565b92915050565b600060208284031215612d4057612d3f612a9b565b5b6000612d4e84828501612d15565b91505092915050565b60008115159050919050565b612d6c81612d57565b82525050565b6000602082019050612d876000830184612d63565b92915050565b60006020820190508181036000830152612da78184612c30565b905092915050565b600080fd5b7f4e487b7100000000000000000000000000000000000000000000000000000000600052604160045260246000fd5b612dec82612c1f565b810181811067ffffffffffffffff82111715612e0b57612e0a612db4565b5b80604052505050565b6000612e1e612a91565b9050612e2a8282612de3565b919050565b600067ffffffffffffffff821115612e4a57612e49612db4565b5b602082029050602081019050919050565b600080fd5b6000612e73612e6e84612e2f565b612e14565b90508083825260208201905060208402830185811115612e9657612e95612e5b565b5b835b81811015612ebf5780612eab8882612b24565b845260208401935050602081019050612e98565b5050509392505050565b600082601f830112612ede57612edd612daf565b5b8135612eee848260208601612e60565b91505092915050565b600080fd5b600067ffffffffffffffff821115612f1757612f16612db4565b5b612f2082612c1f565b9050602081019050919050565b82818337600083830152505050565b6000612f4f612f4a84612efc565b612e14565b905082815260208101848484011115612f6b57612f6a612ef7565b5b612f76848285612f2d565b509392505050565b600082601f830112612f9357612f92612daf565b5b8135612fa3848260208601612f3c565b91505092915050565b600080600080600060a08688031215612fc857612fc7612a9b565b5b6000612fd688828901612aee565b9550506020612fe788828901612aee565b945050604086013567ffffffffffffffff81111561300857613007612aa0565b5b61301488828901612ec9565b935050606086013567ffffffffffffffff81111561303557613034612aa0565b5b61304188828901612ec9565b925050608086013567ffffffffffffffff81111561306257613061612aa0565b5b61306e88828901612f7e565b9150509295509295909350565b600067ffffffffffffffff82111561309657613095612db4565b5b602082029050602081019050919050565b60006130ba6130b58461307b565b612e14565b905080838252602082019050602084028301858111156130dd576130dc612e5b565b5b835b8181101561310657806130f28882612aee565b8452602084019350506020810190506130df565b5050509392505050565b600082601f83011261312557613124612daf565b5b81356131358482602086016130a7565b91505092915050565b6000806040838503121561315557613154612a9b565b5b600083013567ffffffffffffffff81111561317357613172612aa0565b5b61317f85828601613110565b925050602083013567ffffffffffffffff8111156131a05761319f612aa0565b5b6131ac85828601612ec9565b9150509250929050565b600081519050919050565b600082825260208201905092915050565b6000819050602082019050919050565b6131eb81612b03565b82525050565b60006131fd83836131e2565b60208301905092915050565b6000602082019050919050565b6000613221826131b6565b61322b81856131c1565b9350613236836131d2565b8060005b8381101561326757815161324e88826131f1565b975061325983613209565b92505060018101905061323a565b5085935050505092915050565b6000602082019050818103600083015261328e8184613216565b905092915050565b60006060820190506132ab6000830186612b79565b6132b86020830185612b79565b6132c56040830184612b79565b949350505050565b60006020820190506132e26000830184612c69565b92915050565b600081519050919050565b600082825260208201905092915050565b6000819050602082019050919050565b600082825260208201905092915050565b600061333082612bd0565b61333a8185613314565b935061334a818560208601612bec565b61335381612c1f565b840191505092915050565b61336781612ac5565b82525050565b600060a08301600083015161338560008601826131e2565b506020830151848203602086015261339d8282613325565b91505060408301516133b2604086018261335e565b5060608301516133c560608601826131e2565b5060808301516133d860808601826131e2565b508091505092915050565b60006133ef838361336d565b905092915050565b6000602082019050919050565b600061340f826132e8565b61341981856132f3565b93508360208202850161342b85613304565b8060005b85811015613467578484038952815161344885826133e3565b9450613453836133f7565b925060208a0199505060018101905061342f565b50829750879550505050505092915050565b600060208201905081810360008301526134938184613404565b905092915050565b6134a481612d57565b81146134af57600080fd5b50565b6000813590506134c18161349b565b92915050565b600080604083850312156134de576134dd612a9b565b5b60006134ec85828601612aee565b92505060206134fd858286016134b2565b9150509250929050565b600067ffffffffffffffff82111561352257613521612db4565b5b61352b82612c1f565b9050602081019050919050565b600061354b61354684613507565b612e14565b90508281526020810184848401111561356757613566612ef7565b5b613572848285612f2d565b509392505050565b600082601f83011261358f5761358e612daf565b5b813561359f848260208601613538565b91505092915050565b6000602082840312156135be576135bd612a9b565b5b600082013567ffffffffffffffff8111156135dc576135db612aa0565b5b6135e88482850161357a565b91505092915050565b60008060006060848603121561360a57613609612a9b565b5b600061361886828701612b24565b935050602061362986828701612b24565b925050604084013567ffffffffffffffff81111561364a57613649612aa0565b5b6136568682870161357a565b9150509250925092565b6000806040838503121561367757613676612a9b565b5b600061368585828601612aee565b925050602061369685828601612aee565b9150509250929050565b600080600080600060a086880312156136bc576136bb612a9b565b5b60006136ca88828901612aee565b95505060206136db88828901612aee565b94505060406136ec88828901612b24565b93505060606136fd88828901612b24565b925050608086013567ffffffffffffffff81111561371e5761371d612aa0565b5b61372a88828901612f7e565b9150509295509295909350565b6000806040838503121561374e5761374d612a9b565b5b600061375c85828601612b24565b925050602061376d85828601612b24565b9150509250929050565b600081519050919050565b600082825260208201905092915050565b6000819050602082019050919050565b60006137af838361335e565b60208301905092915050565b6000602082019050919050565b60006137d382613777565b6137dd8185613782565b93506137e883613793565b8060005b8381101561381957815161380088826137a3565b975061380b836137bb565b9250506001810190506137ec565b5085935050505092915050565b6000602082019050818103600083015261384081846137c8565b905092915050565b7f455243313135353a2062616c616e636520717565727920666f7220746865207a60008201527f65726f2061646472657373000000000000000000000000000000000000000000602082015250565b60006138a4602b83612bdb565b91506138af82613848565b604082019050919050565b600060208201905081810360008301526138d381613897565b9050919050565b7f4e487b7100000000000000000000000000000000000000000000000000000000600052602260045260246000fd5b6000600282049050600182168061392157607f821691505b602082108103613934576139336138da565b5b50919050565b7f455243313135353a207472616e736665722063616c6c6572206973206e6f742060008201527f6f776e6572206e6f7220617070726f7665640000000000000000000000000000602082015250565b6000613996603283612bdb565b91506139a18261393a565b604082019050919050565b600060208201905081810360008301526139c581613989565b9050919050565b50565b60006139dc600083612bdb565b91506139e7826139cc565b600082019050919050565b60006020820190508181036000830152613a0b816139cf565b9050919050565b7f455243313135353a206163636f756e747320616e6420696473206c656e67746860008201527f206d69736d617463680000000000000000000000000000000000000000000000602082015250565b6000613a6e602983612bdb565b9150613a7982613a12565b604082019050919050565b60006020820190508181036000830152613a9d81613a61565b9050919050565b7f4e487b7100000000000000000000000000000000000000000000000000000000600052603260045260246000fd5b7f4e487b7100000000000000000000000000000000000000000000000000000000600052601160045260246000fd5b6000613b0d82612b03565b91507fffffffffffffffffffffffffffffffffffffffffffffffffffffffffffffffff8203613b3f57613b3e613ad3565b5b600182019050919050565b7f6f6e6c7920746f6b656e206f776e6572732063616e6e20636865636b20666f7260008201527f2065787069726174696f6e206461746500000000000000000000000000000000602082015250565b6000613ba6603083612bdb565b9150613bb182613b4a565b604082019050919050565b60006020820190508181036000830152613bd581613b99565b9050919050565b6000613be782612b03565b9150613bf283612b03565b925082821015613c0557613c04613ad3565b5b828203905092915050565b7f50726576696f757320746f6b656e20686173206e6f7420657870697265640000600082015250565b6000613c46601e83612bdb565b9150613c5182613c10565b602082019050919050565b60006020820190508181036000830152613c7581613c39565b9050919050565b7f455243313135353a2063616c6c6572206973206e6f74206f776e6572206e6f7260008201527f20617070726f7665640000000000000000000000000000000000000000000000602082015250565b6000613cd8602983612bdb565b9150613ce382613c7c565b604082019050919050565b60006020820190508181036000830152613d0781613ccb565b9050919050565b7f566f746572206973206e6f7420612076616c6964206164647265737300000000600082015250565b6000613d44601c83612bdb565b9150613d4f82613d0e565b602082019050919050565b60006020820190508181036000830152613d7381613d37565b9050919050565b7f4e6f7420656e6f75676820746f6b656e7320746f20766f746500000000000000600082015250565b6000613db0601983612bdb565b9150613dbb82613d7a565b602082019050919050565b60006020820190508181036000830152613ddf81613da3565b9050919050565b7f43616e277420766f746520666f72206f776e2070726f706f73616c0000000000600082015250565b6000613e1c601b83612bdb565b9150613e2782613de6565b602082019050919050565b60006020820190508181036000830152613e4b81613e0f565b9050919050565b7f596f75206861766520616c726561647920766f74656420666f7220746869732060008201527f70726f706f73616c000000000000000000000000000000000000000000000000602082015250565b6000613eae602883612bdb565b9150613eb982613e52565b604082019050919050565b60006020820190508181036000830152613edd81613ea1565b9050919050565b7f455243313135353a2073657474696e6720617070726f76616c2073746174757360008201527f20666f722073656c660000000000000000000000000000000000000000000000602082015250565b6000613f40602983612bdb565b9150613f4b82613ee4565b604082019050919050565b60006020820190508181036000830152613f6f81613f33565b9050919050565b7f455243313135353a2069647320616e6420616d6f756e7473206c656e6774682060008201527f6d69736d61746368000000000000000000000000000000000000000000000000602082015250565b6000613fd2602883612bdb565b9150613fdd82613f76565b604082019050919050565b6000602082019050818103600083015261400181613fc5565b9050919050565b7f455243313135353a207472616e7366657220746f20746865207a65726f20616460008201527f6472657373000000000000000000000000000000000000000000000000000000602082015250565b6000614064602583612bdb565b915061406f82614008565b604082019050919050565b6000602082019050818103600083015261409381614057565b9050919050565b7f455243313135353a20696e73756666696369656e742062616c616e636520666f60008201527f72207472616e7366657200000000000000000000000000000000000000000000602082015250565b60006140f6602a83612bdb565b91506141018261409a565b604082019050919050565b60006020820190508181036000830152614125816140e9565b9050919050565b600061413782612b03565b915061414283612b03565b9250827fffffffffffffffffffffffffffffffffffffffffffffffffffffffffffffffff0382111561417757614176613ad3565b5b828201905092915050565b6000604082019050818103600083015261419c8185613216565b905081810360208301526141b08184613216565b90509392505050565b7f455243313135353a206275726e2066726f6d20746865207a65726f206164647260008201527f6573730000000000000000000000000000000000000000000000000000000000602082015250565b6000614215602383612bdb565b9150614220826141b9565b604082019050919050565b6000602082019050818103600083015261424481614208565b9050919050565b7f455243313135353a206275726e20616d6f756e7420657863656564732062616c60008201527f616e636500000000000000000000000000000000000000000000000000000000602082015250565b60006142a7602483612bdb565b91506142b28261424b565b604082019050919050565b600060208201905081810360008301526142d68161429a565b9050919050565b60006040820190506142f26000830185612b79565b6142ff6020830184612b79565b9392505050565b600081519050919050565b600082825260208201905092915050565b600061432d82614306565b6143378185614311565b9350614347818560208601612bec565b61435081612c1f565b840191505092915050565b600060a0820190506143706000830188612c69565b61437d6020830187612c69565b818103604083015261438f8186613216565b905081810360608301526143a38185613216565b905081810360808301526143b78184614322565b90509695505050505050565b6000815190506143d281612cfe565b92915050565b6000602082840312156143ee576143ed612a9b565b5b60006143fc848285016143c3565b91505092915050565b60008160e01c9050919050565b600060033d11156144315760046000803e61442e600051614405565b90505b90565b600060443d106144c157614446612a91565b60043d036004823e80513d602482011167ffffffffffffffff8211171561446e5750506144c1565b808201805167ffffffffffffffff81111561448c57505050506144c1565b80602083010160043d0385018111156144a95750505050506144c1565b6144b882602001850186612de3565b82955050505050505b90565b7f455243313135353a207472616e7366657220746f206e6f6e204552433131353560008201527f526563656976657220696d706c656d656e746572000000000000000000000000602082015250565b6000614520603483612bdb565b915061452b826144c4565b604082019050919050565b6000602082019050818103600083015261454f81614513565b9050919050565b7f455243313135353a204552433131353552656365697665722072656a6563746560008201527f6420746f6b656e73000000000000000000000000000000000000000000000000602082015250565b60006145b2602883612bdb565b91506145bd82614556565b604082019050919050565b600060208201905081810360008301526145e1816145a5565b9050919050565b7f455243313135353a206d696e7420746f20746865207a65726f2061646472657360008201527f7300000000000000000000000000000000000000000000000000000000000000602082015250565b6000614644602183612bdb565b915061464f826145e8565b604082019050919050565b6000602082019050818103600083015261467381614637565b9050919050565b600060a08201905061468f6000830188612c69565b61469c6020830187612c69565b6146a96040830186612b79565b6146b66060830185612b79565b81810360808301526146c88184614322565b9050969550505050505056fea2646970667358221220bca2ac21e79e6f8567177a22b5a4a3980886baf53fd7759a4d6d866d4221ac6864736f6c634300080d0033",
  "immutableReferences": {},
  "source": "/*\n\n// \t\t\t                  _        _                            _   \n// \t\t\t                 | |      (_)                          | |  \n// \t\t\t  _ __ ___   __ _| | _____ _ _ __ ___  _ __   __ _  ___| |_ \n// \t\t\t | '_ ` _ \\ / _` | |/ / _ \\ | '_ ` _ \\| '_ \\ / _` |/ __| __|\n// \t\t\t | | | | | | (_| |   <  __/ | | | | | | |_) | (_| | (__| |_ \n// \t\t\t |_| |_| |_|\\__,_|_|\\_\\___|_|_| |_| |_| .__/ \\__,_|\\___|\\__|\n// \t\t\t                                      | |                   \n// \t\t\t                                      |_|   \n    \n\t\nQUESTION:\n- Check for proposal with most votes. with solidity or js?\nHow many events are needed?\n\nTODO:\n- Reward winner gets Governance tokens?\n\nREVIEW:\n- Ask for requirements\n*/\n\n// SPDX-License-Identifier: GPL-3.0\npragma solidity ^0.8.0;\n\nimport '@openzeppelin/contracts/token/ERC1155/ERC1155.sol';\nimport '@openzeppelin/contracts/utils/Address.sol';\n\ncontract Monthly is ERC1155 {\n\tusing Address for address;\n\n\taddress admin = 0x1Cd6F4D329D38043a6bDB3665c3a7b06F79B5242;\n\tuint256 tokenAmount = 10;\n\tuint256 maxTokenAmount = 30;\n\tuint256 lockTime = 30 days;\n\n\t//user => proposal => vote\n\tmapping(address => mapping(uint256 => bool)) voteRegistry;\n\n\t// token => date\n\tmapping(uint256 => uint256) public expiryDates;\n\n\tstruct Token {\n\t\tuint256 tokenId;\n\t\tuint256 amount;\n\t\tuint256 birthDate;\n\t}\n\tToken[] public tokens;\n\tuint256 public tokenId;\n\n\tstruct Proposal {\n\t\tuint256 id;\n\t\tstring proposal;\n\t\taddress proposer;\n\t\tuint256 time;\n\t\tuint256 votes;\n\t}\n\tuint256 proposalId;\n\tProposal[] public proposals;\n\taddress[] public proposers;\n\tmapping(address => bool) proposerExists;\n\n\tmodifier adminOnly() {\n\t\trequire(msg.sender == admin);\n\t\t_;\n\t}\n\n\tconstructor() ERC1155('Proposal Tokens') {}\n\n\tfunction createMonthlyTokens(string memory _tokenData)\n\t\texternal\n\t\tadminOnly\n\t\treturns (bool)\n\t{\n\t\t//If its the first token, mint normally\n\t\tif (tokenId == 0) {\n\t\t\t_createTokens(_tokenData);\n\t\t} else if (tokenId > 0) {\n\t\t\t// Do we require that previous tokens has expired before minting new ones?\n\t\t\trequire(\n\t\t\t\tblock.timestamp > expiryDates[tokenId - 1],\n\t\t\t\t'Previous token has not expired'\n\t\t\t);\n\t\t\t_createTokens(_tokenData);\n\t\t}\n\n\t\treturn true;\n\t}\n\n\tfunction distributeTokens(address _user, uint256 _amount)\n\t\texternal\n\t\tadminOnly\n\t\treturns (bool)\n\t{\n\t\t_setApprovalForAll(admin, _user, true);\n\t\tsafeTransferFrom(admin, _user, tokenId, _amount, '');\n\t\treturn true;\n\t}\n\n\tfunction makeProposal(\n\t\tuint256 _tokenId,\n\t\tuint256 _amount,\n\t\tstring memory _proposal\n\t) public returns (bool) {\n\t\t// User need to have tokens\n\t\trequire(balanceOf(msg.sender, _tokenId) >= _amount);\n\n\t\t// Check if token is valid or expired\n\t\tif (expiryDates[_tokenId] >= block.timestamp) {\n\t\t\t_burn(msg.sender, _tokenId, _amount);\n\n\t\t\tproposals.push(Proposal(proposalId, _proposal, msg.sender, block.timestamp, 0));\n\n\t\t\tif (!proposerExists[msg.sender]) {\n\t\t\t\tproposerExists[msg.sender] = true;\n\t\t\t\tproposers.push(msg.sender);\n\t\t\t}\n\n\t\t\t++proposalId;\n\t\t} else {\n\t\t\t_burn(msg.sender, _tokenId, balanceOf(msg.sender, _tokenId));\n\t\t}\n\n\t\treturn true;\n\t}\n\n\tfunction voteForProposal(uint256 _proposalId, uint256 _tokenId)\n\t\texternal\n\t\treturns (bool)\n\t{\n\t\trequire(!msg.sender.isContract(), 'Voter is not a valid address');\n\t\trequire(balanceOf(msg.sender, _tokenId) >= 1, 'Not enough tokens to vote');\n\t\trequire(msg.sender != proposals[_proposalId].proposer, \"Can't vote for own proposal\");\n\t\trequire(\n\t\t\tvoteRegistry[msg.sender][_proposalId] == false,\n\t\t\t'You have already voted for this proposal'\n\t\t);\n\n\t\tif (expiryDates[_tokenId] >= block.timestamp) {\n\t\t\t_burn(msg.sender, _tokenId, 1);\n\t\t\t++proposals[_proposalId].votes;\n\t\t\tvoteRegistry[msg.sender][_proposalId] = true;\n\t\t} else {\n\t\t\t//\n\t\t\t_burn(msg.sender, _tokenId, balanceOf(msg.sender, _tokenId));\n\t\t}\n\n\t\treturn true;\n\t}\n\n\tfunction changeUri(string memory _uri) external adminOnly returns (bool) {\n\t\t_setURI(_uri);\n\t\treturn true;\n\t}\n\n\tfunction changeMonthlyAmount(uint256 _amount) external adminOnly returns (bool) {\n\t\tif (_amount <= maxTokenAmount) {\n\t\t\ttokenAmount = _amount;\n\t\t} else {\n\t\t\trevert('');\n\t\t}\n\t\treturn true;\n\t}\n\n\t// Not needed if proposals are public\n\tfunction viewProposers() external view returns (address[] memory) {\n\t\taddress[] memory _proposers = new address[](proposers.length);\n\n\t\tfor (uint256 i = 0; i < proposers.length; i++) {\n\t\t\t_proposers[i] = proposers[i];\n\t\t}\n\n\t\treturn _proposers;\n\t}\n\n\tfunction viewProposal(uint256 _id) external view returns (string memory) {\n\t\treturn proposals[_id].proposal;\n\t}\n\n\t// Not needed if proposals are public\n\tfunction listOfProposals() external view returns (Proposal[] memory) {\n\t\treturn proposals;\n\t}\n\n\tfunction changeLockTime(uint256 _newLockTime) external adminOnly returns (bool) {\n\t\tlockTime = _newLockTime;\n\t\treturn true;\n\t}\n\n\tfunction checkTokenExpiry(uint256 _tokenId) external view returns (uint256) {\n\t\trequire(\n\t\t\tbalanceOf(msg.sender, _tokenId) > 0,\n\t\t\t'only token owners cann check for expiration date'\n\t\t);\n\t\treturn expiryDates[_tokenId];\n\t}\n\n\tfunction _createTokens(string memory _tokenData) internal adminOnly {\n\t\t_mint(admin, tokenId, tokenAmount, bytes(_tokenData));\n\t\texpiryDates[tokenId] = block.timestamp + lockTime;\n\t\ttokens.push(Token(tokenId, tokenAmount, block.timestamp));\n\t\t_setURI(_tokenData);\n\t\t++tokenId;\n\t}\n\n\tfunction isExpired(uint256 _tokenId) public view returns (bool result) {\n\t\tif (expiryDates[_tokenId] <= block.timestamp) {\n\t\t\treturn true;\n\t\t} else if (expiryDates[_tokenId] > block.timestamp) {\n\t\t\treturn false;\n\t\t}\n\t}\n}\n",
  "sourcePath": "/Users/jediswag/Documents/GitHub/impactmarket/contracts/Monthly.sol",
  "compiler": {
    "name": "solc",
    "version": "0.8.13+commit.abaa5c0e.Emscripten.clang"
  },
  "schemaVersion": "3.4.4",
  "updatedAt": "2022-05-16T11:29:43.732Z",
  "devdoc": {
    "kind": "dev",
    "methods": {
      "balanceOf(address,uint256)": {
        "details": "See {IERC1155-balanceOf}. Requirements: - `account` cannot be the zero address."
      },
      "balanceOfBatch(address[],uint256[])": {
        "details": "See {IERC1155-balanceOfBatch}. Requirements: - `accounts` and `ids` must have the same length."
      },
      "isApprovedForAll(address,address)": {
        "details": "See {IERC1155-isApprovedForAll}."
      },
      "safeBatchTransferFrom(address,address,uint256[],uint256[],bytes)": {
        "details": "See {IERC1155-safeBatchTransferFrom}."
      },
      "safeTransferFrom(address,address,uint256,uint256,bytes)": {
        "details": "See {IERC1155-safeTransferFrom}."
      },
      "setApprovalForAll(address,bool)": {
        "details": "See {IERC1155-setApprovalForAll}."
      },
      "supportsInterface(bytes4)": {
        "details": "See {IERC165-supportsInterface}."
      },
      "uri(uint256)": {
        "details": "See {IERC1155MetadataURI-uri}. This implementation returns the same URI for *all* token types. It relies on the token type ID substitution mechanism https://eips.ethereum.org/EIPS/eip-1155#metadata[defined in the EIP]. Clients calling this function must replace the `\\{id\\}` substring with the actual token type ID."
      }
    },
    "version": 1
  },
  "userdoc": {
    "kind": "user",
    "methods": {},
    "version": 1
  }
}