{
  "contractName": "PoolMaker",
  "abi": [
    {
      "inputs": [
        {
          "internalType": "address",
          "name": "_rSHK",
          "type": "address"
        }
      ],
      "stateMutability": "nonpayable",
      "type": "constructor"
    },
    {
      "anonymous": false,
      "inputs": [
        {
          "indexed": true,
          "internalType": "address",
          "name": "owner",
          "type": "address"
        },
        {
          "indexed": true,
          "internalType": "address",
          "name": "spender",
          "type": "address"
        },
        {
          "indexed": false,
          "internalType": "uint256",
          "name": "value",
          "type": "uint256"
        }
      ],
      "name": "Approval",
      "type": "event"
    },
    {
      "anonymous": false,
      "inputs": [
        {
          "indexed": true,
          "internalType": "uint256",
          "name": "id",
          "type": "uint256"
        },
        {
          "indexed": false,
          "internalType": "address",
          "name": "sender",
          "type": "address"
        },
        {
          "indexed": false,
          "internalType": "address",
          "name": "home",
          "type": "address"
        },
        {
          "indexed": false,
          "internalType": "uint256",
          "name": "num",
          "type": "uint256"
        },
        {
          "indexed": false,
          "internalType": "bytes",
          "name": "message",
          "type": "bytes"
        },
        {
          "indexed": false,
          "internalType": "uint256",
          "name": "time",
          "type": "uint256"
        }
      ],
      "name": "Log",
      "type": "event"
    },
    {
      "anonymous": false,
      "inputs": [
        {
          "indexed": true,
          "internalType": "address",
          "name": "from",
          "type": "address"
        },
        {
          "indexed": true,
          "internalType": "address",
          "name": "to",
          "type": "address"
        },
        {
          "indexed": false,
          "internalType": "uint256",
          "name": "value",
          "type": "uint256"
        }
      ],
      "name": "Transfer",
      "type": "event"
    },
    {
      "stateMutability": "payable",
      "type": "fallback"
    },
    {
      "inputs": [],
      "name": "WETH",
      "outputs": [
        {
          "internalType": "contract IERC20",
          "name": "",
          "type": "address"
        }
      ],
      "stateMutability": "view",
      "type": "function"
    },
    {
      "inputs": [
        {
          "internalType": "address",
          "name": "owner",
          "type": "address"
        },
        {
          "internalType": "address",
          "name": "spender",
          "type": "address"
        }
      ],
      "name": "allowance",
      "outputs": [
        {
          "internalType": "uint256",
          "name": "",
          "type": "uint256"
        }
      ],
      "stateMutability": "view",
      "type": "function"
    },
    {
      "inputs": [
        {
          "internalType": "address",
          "name": "spender",
          "type": "address"
        },
        {
          "internalType": "uint256",
          "name": "amount",
          "type": "uint256"
        }
      ],
      "name": "approve",
      "outputs": [
        {
          "internalType": "bool",
          "name": "",
          "type": "bool"
        }
      ],
      "stateMutability": "nonpayable",
      "type": "function"
    },
    {
      "inputs": [
        {
          "internalType": "address",
          "name": "account",
          "type": "address"
        }
      ],
      "name": "balanceOf",
      "outputs": [
        {
          "internalType": "uint256",
          "name": "",
          "type": "uint256"
        }
      ],
      "stateMutability": "view",
      "type": "function"
    },
    {
      "inputs": [],
      "name": "decimals",
      "outputs": [
        {
          "internalType": "uint8",
          "name": "",
          "type": "uint8"
        }
      ],
      "stateMutability": "view",
      "type": "function"
    },
    {
      "inputs": [
        {
          "internalType": "address",
          "name": "spender",
          "type": "address"
        },
        {
          "internalType": "uint256",
          "name": "subtractedValue",
          "type": "uint256"
        }
      ],
      "name": "decreaseAllowance",
      "outputs": [
        {
          "internalType": "bool",
          "name": "",
          "type": "bool"
        }
      ],
      "stateMutability": "nonpayable",
      "type": "function"
    },
    {
      "inputs": [],
      "name": "high",
      "outputs": [
        {
          "internalType": "contract IERC20",
          "name": "",
          "type": "address"
        }
      ],
      "stateMutability": "view",
      "type": "function"
    },
    {
      "inputs": [
        {
          "internalType": "address",
          "name": "spender",
          "type": "address"
        },
        {
          "internalType": "uint256",
          "name": "addedValue",
          "type": "uint256"
        }
      ],
      "name": "increaseAllowance",
      "outputs": [
        {
          "internalType": "bool",
          "name": "",
          "type": "bool"
        }
      ],
      "stateMutability": "nonpayable",
      "type": "function"
    },
    {
      "inputs": [],
      "name": "low",
      "outputs": [
        {
          "internalType": "contract IERC20",
          "name": "",
          "type": "address"
        }
      ],
      "stateMutability": "view",
      "type": "function"
    },
    {
      "inputs": [],
      "name": "name",
      "outputs": [
        {
          "internalType": "string",
          "name": "",
          "type": "string"
        }
      ],
      "stateMutability": "view",
      "type": "function"
    },
    {
      "inputs": [
        {
          "internalType": "uint256",
          "name": "",
          "type": "uint256"
        }
      ],
      "name": "pools",
      "outputs": [
        {
          "internalType": "uint256",
          "name": "id",
          "type": "uint256"
        },
        {
          "internalType": "address",
          "name": "lowCurrency",
          "type": "address"
        },
        {
          "internalType": "address",
          "name": "highCurrency",
          "type": "address"
        },
        {
          "internalType": "uint256",
          "name": "maxSizeLow",
          "type": "uint256"
        },
        {
          "internalType": "uint256",
          "name": "maxSizeHigh",
          "type": "uint256"
        },
        {
          "internalType": "uint256",
          "name": "currSizeLow",
          "type": "uint256"
        },
        {
          "internalType": "uint256",
          "name": "currSizeHigh",
          "type": "uint256"
        },
        {
          "internalType": "uint256",
          "name": "rate",
          "type": "uint256"
        },
        {
          "internalType": "uint256",
          "name": "fee",
          "type": "uint256"
        }
      ],
      "stateMutability": "view",
      "type": "function"
    },
    {
      "inputs": [],
      "name": "rSHK",
      "outputs": [
        {
          "internalType": "contract IERC20",
          "name": "",
          "type": "address"
        }
      ],
      "stateMutability": "view",
      "type": "function"
    },
    {
      "inputs": [],
      "name": "symbol",
      "outputs": [
        {
          "internalType": "string",
          "name": "",
          "type": "string"
        }
      ],
      "stateMutability": "view",
      "type": "function"
    },
    {
      "inputs": [
        {
          "internalType": "uint256",
          "name": "",
          "type": "uint256"
        }
      ],
      "name": "tokens",
      "outputs": [
        {
          "internalType": "contract ERC20",
          "name": "",
          "type": "address"
        }
      ],
      "stateMutability": "view",
      "type": "function"
    },
    {
      "inputs": [],
      "name": "totalSupply",
      "outputs": [
        {
          "internalType": "uint256",
          "name": "",
          "type": "uint256"
        }
      ],
      "stateMutability": "view",
      "type": "function"
    },
    {
      "inputs": [
        {
          "internalType": "address",
          "name": "to",
          "type": "address"
        },
        {
          "internalType": "uint256",
          "name": "amount",
          "type": "uint256"
        }
      ],
      "name": "transfer",
      "outputs": [
        {
          "internalType": "bool",
          "name": "",
          "type": "bool"
        }
      ],
      "stateMutability": "nonpayable",
      "type": "function"
    },
    {
      "inputs": [
        {
          "internalType": "address",
          "name": "from",
          "type": "address"
        },
        {
          "internalType": "address",
          "name": "to",
          "type": "address"
        },
        {
          "internalType": "uint256",
          "name": "amount",
          "type": "uint256"
        }
      ],
      "name": "transferFrom",
      "outputs": [
        {
          "internalType": "bool",
          "name": "",
          "type": "bool"
        }
      ],
      "stateMutability": "nonpayable",
      "type": "function"
    },
    {
      "inputs": [
        {
          "internalType": "uint256",
          "name": "",
          "type": "uint256"
        }
      ],
      "name": "txs",
      "outputs": [
        {
          "internalType": "uint256",
          "name": "id",
          "type": "uint256"
        },
        {
          "internalType": "address",
          "name": "user",
          "type": "address"
        },
        {
          "internalType": "address",
          "name": "token1",
          "type": "address"
        },
        {
          "internalType": "uint256",
          "name": "amount1",
          "type": "uint256"
        },
        {
          "internalType": "address",
          "name": "token2",
          "type": "address"
        },
        {
          "internalType": "uint256",
          "name": "amount2",
          "type": "uint256"
        },
        {
          "internalType": "uint256",
          "name": "time",
          "type": "uint256"
        }
      ],
      "stateMutability": "view",
      "type": "function"
    },
    {
      "inputs": [
        {
          "internalType": "address",
          "name": "_contract",
          "type": "address"
        }
      ],
      "name": "withdrawToken",
      "outputs": [
        {
          "internalType": "bool",
          "name": "",
          "type": "bool"
        }
      ],
      "stateMutability": "nonpayable",
      "type": "function"
    },
    {
      "inputs": [
        {
          "internalType": "address",
          "name": "lowCurrency",
          "type": "address"
        },
        {
          "internalType": "address",
          "name": "highCurrency",
          "type": "address"
        },
        {
          "internalType": "uint256",
          "name": "lowSize",
          "type": "uint256"
        },
        {
          "internalType": "uint256",
          "name": "highSize",
          "type": "uint256"
        },
        {
          "internalType": "uint256",
          "name": "rate",
          "type": "uint256"
        },
        {
          "internalType": "uint256",
          "name": "fee",
          "type": "uint256"
        }
      ],
      "name": "makePool",
      "outputs": [
        {
          "internalType": "bool",
          "name": "",
          "type": "bool"
        }
      ],
      "stateMutability": "nonpayable",
      "type": "function"
    },
    {
      "inputs": [
        {
          "internalType": "uint256",
          "name": "_id",
          "type": "uint256"
        },
        {
          "internalType": "uint256",
          "name": "_lowAmount",
          "type": "uint256"
        }
      ],
      "name": "addLiquidity",
      "outputs": [
        {
          "internalType": "bool",
          "name": "",
          "type": "bool"
        }
      ],
      "stateMutability": "payable",
      "type": "function"
    },
    {
      "inputs": [
        {
          "internalType": "uint256",
          "name": "_id",
          "type": "uint256"
        },
        {
          "internalType": "uint256",
          "name": "_lowAmount",
          "type": "uint256"
        }
      ],
      "name": "removeLiquidity",
      "outputs": [
        {
          "internalType": "bool",
          "name": "",
          "type": "bool"
        }
      ],
      "stateMutability": "payable",
      "type": "function"
    },
    {
      "inputs": [
        {
          "internalType": "uint256",
          "name": "_amount",
          "type": "uint256"
        }
      ],
      "name": "stakeSHK",
      "outputs": [
        {
          "internalType": "bool",
          "name": "",
          "type": "bool"
        }
      ],
      "stateMutability": "nonpayable",
      "type": "function"
    },
    {
      "inputs": [
        {
          "internalType": "uint256",
          "name": "_amount",
          "type": "uint256"
        }
      ],
      "name": "unstakeSHK",
      "outputs": [
        {
          "internalType": "bool",
          "name": "",
          "type": "bool"
        }
      ],
      "stateMutability": "nonpayable",
      "type": "function"
    },
    {
      "inputs": [
        {
          "internalType": "uint256",
          "name": "_amount",
          "type": "uint256"
        }
      ],
      "name": "stakeWETH",
      "outputs": [
        {
          "internalType": "bool",
          "name": "",
          "type": "bool"
        }
      ],
      "stateMutability": "payable",
      "type": "function"
    },
    {
      "inputs": [
        {
          "internalType": "uint256",
          "name": "_amount",
          "type": "uint256"
        }
      ],
      "name": "unstakeWETH",
      "outputs": [
        {
          "internalType": "bool",
          "name": "",
          "type": "bool"
        }
      ],
      "stateMutability": "payable",
      "type": "function"
    },
    {
      "inputs": [
        {
          "internalType": "uint256",
          "name": "_id",
          "type": "uint256"
        },
        {
          "internalType": "uint256",
          "name": "_lowAmount",
          "type": "uint256"
        }
      ],
      "name": "swapLowHigh",
      "outputs": [
        {
          "internalType": "bool",
          "name": "",
          "type": "bool"
        }
      ],
      "stateMutability": "payable",
      "type": "function"
    },
    {
      "inputs": [
        {
          "internalType": "uint256",
          "name": "_id",
          "type": "uint256"
        },
        {
          "internalType": "uint256",
          "name": "_highAmount",
          "type": "uint256"
        }
      ],
      "name": "swapHIghLow",
      "outputs": [
        {
          "internalType": "bool",
          "name": "",
          "type": "bool"
        }
      ],
      "stateMutability": "payable",
      "type": "function"
    },
    {
      "inputs": [
        {
          "internalType": "uint256",
          "name": "_id",
          "type": "uint256"
        },
        {
          "internalType": "uint256",
          "name": "_newFee",
          "type": "uint256"
        }
      ],
      "name": "changeFee",
      "outputs": [],
      "stateMutability": "nonpayable",
      "type": "function"
    },
    {
      "inputs": [
        {
          "internalType": "uint256",
          "name": "_id",
          "type": "uint256"
        },
        {
          "internalType": "uint256",
          "name": "_newRate",
          "type": "uint256"
        }
      ],
      "name": "changeRate",
      "outputs": [],
      "stateMutability": "nonpayable",
      "type": "function"
    }
  ],
  "bytecode": "0x6080604052731cd6f4d329d38043a6bdb3665c3a7b06f79b5242600560006101000a81548173ffffffffffffffffffffffffffffffffffffffff021916908373ffffffffffffffffffffffffffffffffffffffff16021790555073c02aaa39b223fe8d0a0e5c4f27ead9083c756cc2600660006101000a81548173ffffffffffffffffffffffffffffffffffffffff021916908373ffffffffffffffffffffffffffffffffffffffff160217905550348015620000bb57600080fd5b5060405162005b7438038062005b748339818101604052810190620000e19190620002e3565b6040518060400160405280600b81526020017f5368616b6520546f6b656e0000000000000000000000000000000000000000008152506040518060400160405280600381526020017f53484b0000000000000000000000000000000000000000000000000000000000815250816003908051906020019062000165929190620001c9565b5080600490805190602001906200017e929190620001c9565b50505080600760006101000a81548173ffffffffffffffffffffffffffffffffffffffff021916908373ffffffffffffffffffffffffffffffffffffffff1602179055505062000379565b828054620001d79062000344565b90600052602060002090601f016020900481019282620001fb576000855562000247565b82601f106200021657805160ff191683800117855562000247565b8280016001018555821562000247579182015b828111156200024657825182559160200191906001019062000229565b5b5090506200025691906200025a565b5090565b5b80821115620002755760008160009055506001016200025b565b5090565b600080fd5b600073ffffffffffffffffffffffffffffffffffffffff82169050919050565b6000620002ab826200027e565b9050919050565b620002bd816200029e565b8114620002c957600080fd5b50565b600081519050620002dd81620002b2565b92915050565b600060208284031215620002fc57620002fb62000279565b5b60006200030c84828501620002cc565b91505092915050565b7f4e487b7100000000000000000000000000000000000000000000000000000000600052602260045260246000fd5b600060028204905060018216806200035d57607f821691505b60208210810362000373576200037262000315565b5b50919050565b6157eb80620003896000396000f3fe6080604052600436106101d15760003560e01c806395d89b41116100f7578063ad5c464811610095578063df09044e11610064578063df09044e1461073b578063e3ca2d651461076b578063f5715d5614610794578063f9bc81cb146107d7576101d2565b8063ad5c46481461066b578063b0b0cab014610696578063c40de79a146106d3578063dd62ed3e146106fe576101d2565b8063a457c2d7116100d1578063a457c2d714610583578063a883b0c4146105c0578063a9059cbb146105e9578063ac4afa3814610626576101d2565b806395d89b41146104f85780639cd441da146105235780639d7de6b314610553576101d2565b8063313ce5671161016f57806370a082311161013e57806370a0823114610423578063713658f314610460578063894760691461048b578063928c4ee6146104c8576101d2565b8063313ce56714610341578063395093511461036c5780633b89c0af146103a95780634f64b2be146103e6576101d2565b806318160ddd116101ab57806318160ddd1461027957806320aaa60c146102a457806322deabca146102d457806323b872dd14610304576101d2565b806306fdde03146101d4578063095ea7b3146101ff5780630b86e2ac1461023c576101d2565b5b005b3480156101e057600080fd5b506101e9610802565b6040516101f69190614923565b60405180910390f35b34801561020b57600080fd5b50610226600480360381019061022191906149de565b610894565b6040516102339190614a39565b60405180910390f35b34801561024857600080fd5b50610263600480360381019061025e9190614a54565b6108b7565b6040516102709190614a39565b60405180910390f35b34801561028557600080fd5b5061028e610cf1565b60405161029b9190614af0565b60405180910390f35b6102be60048036038101906102b99190614b0b565b610cfb565b6040516102cb9190614a39565b60405180910390f35b6102ee60048036038101906102e99190614b0b565b61146d565b6040516102fb9190614a39565b60405180910390f35b34801561031057600080fd5b5061032b60048036038101906103269190614b4b565b611bdf565b6040516103389190614a39565b60405180910390f35b34801561034d57600080fd5b50610356611c0e565b6040516103639190614bba565b60405180910390f35b34801561037857600080fd5b50610393600480360381019061038e91906149de565b611c17565b6040516103a09190614a39565b60405180910390f35b3480156103b557600080fd5b506103d060048036038101906103cb9190614bd5565b611cc1565b6040516103dd9190614a39565b60405180910390f35b3480156103f257600080fd5b5061040d60048036038101906104089190614bd5565b611ff9565b60405161041a9190614c61565b60405180910390f35b34801561042f57600080fd5b5061044a60048036038101906104459190614c7c565b612038565b6040516104579190614af0565b60405180910390f35b34801561046c57600080fd5b50610475612080565b6040516104829190614cca565b60405180910390f35b34801561049757600080fd5b506104b260048036038101906104ad9190614c7c565b6120a6565b6040516104bf9190614a39565b60405180910390f35b6104e260048036038101906104dd9190614bd5565b6122aa565b6040516104ef9190614a39565b60405180910390f35b34801561050457600080fd5b5061050d6126c2565b60405161051a9190614923565b60405180910390f35b61053d60048036038101906105389190614b0b565b612754565b60405161054a9190614a39565b60405180910390f35b61056d60048036038101906105689190614b0b565b613099565b60405161057a9190614a39565b60405180910390f35b34801561058f57600080fd5b506105aa60048036038101906105a591906149de565b6136f0565b6040516105b79190614a39565b60405180910390f35b3480156105cc57600080fd5b506105e760048036038101906105e29190614b0b565b6137da565b005b3480156105f557600080fd5b50610610600480360381019061060b91906149de565b613862565b60405161061d9190614a39565b60405180910390f35b34801561063257600080fd5b5061064d60048036038101906106489190614bd5565b613885565b60405161066299989796959493929190614cf4565b60405180910390f35b34801561067757600080fd5b50610680613923565b60405161068d9190614cca565b60405180910390f35b3480156106a257600080fd5b506106bd60048036038101906106b89190614bd5565b613949565b6040516106ca9190614a39565b60405180910390f35b3480156106df57600080fd5b506106e8613c4b565b6040516106f59190614cca565b60405180910390f35b34801561070a57600080fd5b5061072560048036038101906107209190614d81565b613c71565b6040516107329190614af0565b60405180910390f35b61075560048036038101906107509190614bd5565b613cf8565b6040516107629190614a39565b60405180910390f35b34801561077757600080fd5b50610792600480360381019061078d9190614b0b565b6140b4565b005b3480156107a057600080fd5b506107bb60048036038101906107b69190614bd5565b61413c565b6040516107ce9796959493929190614dc1565b60405180910390f35b3480156107e357600080fd5b506107ec6141ee565b6040516107f99190614cca565b60405180910390f35b60606003805461081190614e5f565b80601f016020809104026020016040519081016040528092919081815260200182805461083d90614e5f565b801561088a5780601f1061085f5761010080835404028352916020019161088a565b820191906000526020600020905b81548152906001019060200180831161086d57829003601f168201915b5050505050905090565b60008061089f614214565b90506108ac81858561421c565b600191505092915050565b6000600560009054906101000a900473ffffffffffffffffffffffffffffffffffffffff1673ffffffffffffffffffffffffffffffffffffffff163373ffffffffffffffffffffffffffffffffffffffff161461091357600080fd5b601060405180610120016040528060115481526020018973ffffffffffffffffffffffffffffffffffffffff1681526020018873ffffffffffffffffffffffffffffffffffffffff16815260200187815260200186815260200160008152602001600081526020018581526020018481525090806001815401808255809150506001900390600052602060002090600902016000909190919091506000820151816000015560208201518160010160006101000a81548173ffffffffffffffffffffffffffffffffffffffff021916908373ffffffffffffffffffffffffffffffffffffffff16021790555060408201518160020160006101000a81548173ffffffffffffffffffffffffffffffffffffffff021916908373ffffffffffffffffffffffffffffffffffffffff160217905550606082015181600301556080820151816004015560a0820151816005015560c0820151816006015560e0820151816007015561010082015181600801555050601160008154610a9490614ebf565b919050819055506013547f5c155e8f37136295b53ae72fb3c0f568542d008fa91b541061b2d58d80d2657f33306013546040518060400160405280600981526020017f506f6f6c206d616465000000000000000000000000000000000000000000000081525042604051610b0c959493929190614f5c565b60405180910390a2601360008154610b2390614ebf565b91905081905550600e6040518060e00160405280600f5481526020013373ffffffffffffffffffffffffffffffffffffffff1681526020018973ffffffffffffffffffffffffffffffffffffffff168152602001600081526020018873ffffffffffffffffffffffffffffffffffffffff168152602001600081526020014281525090806001815401808255809150506001900390600052602060002090600702016000909190919091506000820151816000015560208201518160010160006101000a81548173ffffffffffffffffffffffffffffffffffffffff021916908373ffffffffffffffffffffffffffffffffffffffff16021790555060408201518160020160006101000a81548173ffffffffffffffffffffffffffffffffffffffff021916908373ffffffffffffffffffffffffffffffffffffffff1602179055506060820151816003015560808201518160040160006101000a81548173ffffffffffffffffffffffffffffffffffffffff021916908373ffffffffffffffffffffffffffffffffffffffff16021790555060a0820151816005015560c082015181600601555050600f60008154610cdc90614ebf565b91905081905550600190509695505050505050565b6000600254905090565b60008060108481548110610d1257610d11614fb6565b5b906000526020600020906009020160405180610120016040529081600082015481526020016001820160009054906101000a900473ffffffffffffffffffffffffffffffffffffffff1673ffffffffffffffffffffffffffffffffffffffff1673ffffffffffffffffffffffffffffffffffffffff1681526020016002820160009054906101000a900473ffffffffffffffffffffffffffffffffffffffff1673ffffffffffffffffffffffffffffffffffffffff1673ffffffffffffffffffffffffffffffffffffffff168152602001600382015481526020016004820154815260200160058201548152602001600682015481526020016007820154815260200160088201548152505090508060200151600860006101000a81548173ffffffffffffffffffffffffffffffffffffffff021916908373ffffffffffffffffffffffffffffffffffffffff1602179055508060400151600960006101000a81548173ffffffffffffffffffffffffffffffffffffffff021916908373ffffffffffffffffffffffffffffffffffffffff16021790555082600860009054906101000a900473ffffffffffffffffffffffffffffffffffffffff1673ffffffffffffffffffffffffffffffffffffffff166370a08231336040518263ffffffff1660e01b8152600401610f069190614fe5565b602060405180830381865afa158015610f23573d6000803e3d6000fd5b505050506040513d601f19601f82011682018060405250810190610f479190615015565b1015610f5257600080fd5b80606001518160a0015184610f679190615042565b1115610f7257600080fd5b6000838260e00151610f849190615098565b90506000818360c00151610f9891906150f2565b1015610fa357600080fd5b6000610fc083610100015186610fb99190615098565b60646143e5565b905060008183610fd091906150f2565b9050600860009054906101000a900473ffffffffffffffffffffffffffffffffffffffff1673ffffffffffffffffffffffffffffffffffffffff166323b872dd33600560009054906101000a900473ffffffffffffffffffffffffffffffffffffffff16856040518463ffffffff1660e01b815260040161105393929190615126565b6020604051808303816000875af1158015611072573d6000803e3d6000fd5b505050506040513d601f19601f820116820180604052508101906110969190615189565b50600860009054906101000a900473ffffffffffffffffffffffffffffffffffffffff1673ffffffffffffffffffffffffffffffffffffffff166323b872dd3330896040518463ffffffff1660e01b81526004016110f693929190615126565b6020604051808303816000875af1158015611115573d6000803e3d6000fd5b505050506040513d601f19601f820116820180604052508101906111399190615189565b50858460a00181815161114c9190615042565b91508181525050808460c00181815161116591906150f2565b91508181525050600960009054906101000a900473ffffffffffffffffffffffffffffffffffffffff1673ffffffffffffffffffffffffffffffffffffffff166323b872dd3033846040518463ffffffff1660e01b81526004016111cb93929190615126565b6020604051808303816000875af11580156111ea573d6000803e3d6000fd5b505050506040513d601f19601f8201168201806040525081019061120e9190615189565b50600e6040518060e00160405280600f5481526020013373ffffffffffffffffffffffffffffffffffffffff168152602001866020015173ffffffffffffffffffffffffffffffffffffffff168152602001888152602001866040015173ffffffffffffffffffffffffffffffffffffffff1681526020018381526020014281525090806001815401808255809150506001900390600052602060002090600702016000909190919091506000820151816000015560208201518160010160006101000a81548173ffffffffffffffffffffffffffffffffffffffff021916908373ffffffffffffffffffffffffffffffffffffffff16021790555060408201518160020160006101000a81548173ffffffffffffffffffffffffffffffffffffffff021916908373ffffffffffffffffffffffffffffffffffffffff1602179055506060820151816003015560808201518160040160006101000a81548173ffffffffffffffffffffffffffffffffffffffff021916908373ffffffffffffffffffffffffffffffffffffffff16021790555060a0820151816005015560c082015181600601555050600f60008154809291906113cb90614ebf565b91905055506013547f5c155e8f37136295b53ae72fb3c0f568542d008fa91b541061b2d58d80d2657f3330896040518060400160405280601081526020017f53776170706564206c6f772d68696768000000000000000000000000000000008152504260405161143f959493929190614f5c565b60405180910390a26013600081548092919061145a90614ebf565b9190505550600194505050505092915050565b6000806010848154811061148457611483614fb6565b5b906000526020600020906009020160405180610120016040529081600082015481526020016001820160009054906101000a900473ffffffffffffffffffffffffffffffffffffffff1673ffffffffffffffffffffffffffffffffffffffff1673ffffffffffffffffffffffffffffffffffffffff1681526020016002820160009054906101000a900473ffffffffffffffffffffffffffffffffffffffff1673ffffffffffffffffffffffffffffffffffffffff1673ffffffffffffffffffffffffffffffffffffffff168152602001600382015481526020016004820154815260200160058201548152602001600682015481526020016007820154815260200160088201548152505090508060200151600860006101000a81548173ffffffffffffffffffffffffffffffffffffffff021916908373ffffffffffffffffffffffffffffffffffffffff1602179055508060400151600960006101000a81548173ffffffffffffffffffffffffffffffffffffffff021916908373ffffffffffffffffffffffffffffffffffffffff16021790555082600960009054906101000a900473ffffffffffffffffffffffffffffffffffffffff1673ffffffffffffffffffffffffffffffffffffffff166370a08231336040518263ffffffff1660e01b81526004016116789190614fe5565b602060405180830381865afa158015611695573d6000803e3d6000fd5b505050506040513d601f19601f820116820180604052508101906116b99190615015565b10156116c457600080fd5b80608001518160c00151846116d99190615042565b11156116e457600080fd5b6000838260e001516116f69190615098565b90506000818360a0015161170a91906150f2565b101561171557600080fd5b60006117328361010001518661172b9190615098565b60646143e5565b90506000818361174291906150f2565b9050600960009054906101000a900473ffffffffffffffffffffffffffffffffffffffff1673ffffffffffffffffffffffffffffffffffffffff166323b872dd33600560009054906101000a900473ffffffffffffffffffffffffffffffffffffffff16856040518463ffffffff1660e01b81526004016117c593929190615126565b6020604051808303816000875af11580156117e4573d6000803e3d6000fd5b505050506040513d601f19601f820116820180604052508101906118089190615189565b50600960009054906101000a900473ffffffffffffffffffffffffffffffffffffffff1673ffffffffffffffffffffffffffffffffffffffff166323b872dd3330846040518463ffffffff1660e01b815260040161186893929190615126565b6020604051808303816000875af1158015611887573d6000803e3d6000fd5b505050506040513d601f19601f820116820180604052508101906118ab9190615189565b50858460c0018181516118be9190615042565b91508181525050808460a0018181516118d791906150f2565b91508181525050600860009054906101000a900473ffffffffffffffffffffffffffffffffffffffff1673ffffffffffffffffffffffffffffffffffffffff166323b872dd3033896040518463ffffffff1660e01b815260040161193d93929190615126565b6020604051808303816000875af115801561195c573d6000803e3d6000fd5b505050506040513d601f19601f820116820180604052508101906119809190615189565b50600e6040518060e00160405280600f5481526020013373ffffffffffffffffffffffffffffffffffffffff168152602001866040015173ffffffffffffffffffffffffffffffffffffffff168152602001888152602001866020015173ffffffffffffffffffffffffffffffffffffffff1681526020018381526020014281525090806001815401808255809150506001900390600052602060002090600702016000909190919091506000820151816000015560208201518160010160006101000a81548173ffffffffffffffffffffffffffffffffffffffff021916908373ffffffffffffffffffffffffffffffffffffffff16021790555060408201518160020160006101000a81548173ffffffffffffffffffffffffffffffffffffffff021916908373ffffffffffffffffffffffffffffffffffffffff1602179055506060820151816003015560808201518160040160006101000a81548173ffffffffffffffffffffffffffffffffffffffff021916908373ffffffffffffffffffffffffffffffffffffffff16021790555060a0820151816005015560c082015181600601555050600f6000815480929190611b3d90614ebf565b91905055506013547f5c155e8f37136295b53ae72fb3c0f568542d008fa91b541061b2d58d80d2657f3330896040518060400160405280601081526020017f5377617070656420686967682d6c6f770000000000000000000000000000000081525042604051611bb1959493929190614f5c565b60405180910390a260136000815480929190611bcc90614ebf565b9190505550600194505050505092915050565b600080611bea614214565b9050611bf7858285614416565b611c028585856144a2565b60019150509392505050565b60006012905090565b600080611c22614214565b9050611cb6818585600160008673ffffffffffffffffffffffffffffffffffffffff1673ffffffffffffffffffffffffffffffffffffffff16815260200190815260200160002060008973ffffffffffffffffffffffffffffffffffffffff1673ffffffffffffffffffffffffffffffffffffffff16815260200190815260200160002054611cb19190615042565b61421c565b600191505092915050565b600081600c60003373ffffffffffffffffffffffffffffffffffffffff1673ffffffffffffffffffffffffffffffffffffffff168152602001908152602001600020541015611d45576040517f08c379a0000000000000000000000000000000000000000000000000000000008152600401611d3c90615202565b60405180910390fd5b81600c60003373ffffffffffffffffffffffffffffffffffffffff1673ffffffffffffffffffffffffffffffffffffffff1681526020019081526020016000206000828254611d9491906150f2565b92505081905550611da53383613862565b50600e6040518060e00160405280600f5481526020013373ffffffffffffffffffffffffffffffffffffffff1681526020013073ffffffffffffffffffffffffffffffffffffffff168152602001848152602001600073ffffffffffffffffffffffffffffffffffffffff168152602001600081526020014281525090806001815401808255809150506001900390600052602060002090600702016000909190919091506000820151816000015560208201518160010160006101000a81548173ffffffffffffffffffffffffffffffffffffffff021916908373ffffffffffffffffffffffffffffffffffffffff16021790555060408201518160020160006101000a81548173ffffffffffffffffffffffffffffffffffffffff021916908373ffffffffffffffffffffffffffffffffffffffff1602179055506060820151816003015560808201518160040160006101000a81548173ffffffffffffffffffffffffffffffffffffffff021916908373ffffffffffffffffffffffffffffffffffffffff16021790555060a0820151816005015560c082015181600601555050600f6000815480929190611f5c90614ebf565b91905055506013547f5c155e8f37136295b53ae72fb3c0f568542d008fa91b541061b2d58d80d2657f3330856040518060400160405280600f81526020017f546f6b656e7320756e7374616b6564000000000000000000000000000000000081525042604051611fd0959493929190614f5c565b60405180910390a260136000815480929190611feb90614ebf565b919050555060019050919050565b6012818154811061200957600080fd5b906000526020600020016000915054906101000a900473ffffffffffffffffffffffffffffffffffffffff1681565b60008060008373ffffffffffffffffffffffffffffffffffffffff1673ffffffffffffffffffffffffffffffffffffffff168152602001908152602001600020549050919050565b600960009054906101000a900473ffffffffffffffffffffffffffffffffffffffff1681565b6000600560009054906101000a900473ffffffffffffffffffffffffffffffffffffffff1673ffffffffffffffffffffffffffffffffffffffff163373ffffffffffffffffffffffffffffffffffffffff161461210257600080fd5b81600a60006101000a81548173ffffffffffffffffffffffffffffffffffffffff021916908373ffffffffffffffffffffffffffffffffffffffff160217905550600a60009054906101000a900473ffffffffffffffffffffffffffffffffffffffff1673ffffffffffffffffffffffffffffffffffffffff1663a9059cbb600560009054906101000a900473ffffffffffffffffffffffffffffffffffffffff16600a60009054906101000a900473ffffffffffffffffffffffffffffffffffffffff1673ffffffffffffffffffffffffffffffffffffffff166370a08231306040518263ffffffff1660e01b81526004016121ff9190614fe5565b602060405180830381865afa15801561221c573d6000803e3d6000fd5b505050506040513d601f19601f820116820180604052508101906122409190615015565b6040518363ffffffff1660e01b815260040161225d929190615222565b6020604051808303816000875af115801561227c573d6000803e3d6000fd5b505050506040513d601f19601f820116820180604052508101906122a09190615189565b5060019050919050565b600081600660009054906101000a900473ffffffffffffffffffffffffffffffffffffffff1673ffffffffffffffffffffffffffffffffffffffff166370a08231336040518263ffffffff1660e01b81526004016123089190614fe5565b602060405180830381865afa158015612325573d6000803e3d6000fd5b505050506040513d601f19601f820116820180604052508101906123499190615015565b101561235457600080fd5b600660009054906101000a900473ffffffffffffffffffffffffffffffffffffffff1673ffffffffffffffffffffffffffffffffffffffff166323b872dd3330856040518463ffffffff1660e01b81526004016123b393929190615126565b6020604051808303816000875af11580156123d2573d6000803e3d6000fd5b505050506040513d601f19601f820116820180604052508101906123f69190615189565b5081600b60003373ffffffffffffffffffffffffffffffffffffffff1673ffffffffffffffffffffffffffffffffffffffff16815260200190815260200160002060008282546124469190615042565b92505081905550600e6040518060e00160405280600f5481526020013373ffffffffffffffffffffffffffffffffffffffff168152602001600660009054906101000a900473ffffffffffffffffffffffffffffffffffffffff1673ffffffffffffffffffffffffffffffffffffffff168152602001848152602001600073ffffffffffffffffffffffffffffffffffffffff168152602001600081526020014281525090806001815401808255809150506001900390600052602060002090600702016000909190919091506000820151816000015560208201518160010160006101000a81548173ffffffffffffffffffffffffffffffffffffffff021916908373ffffffffffffffffffffffffffffffffffffffff16021790555060408201518160020160006101000a81548173ffffffffffffffffffffffffffffffffffffffff021916908373ffffffffffffffffffffffffffffffffffffffff1602179055506060820151816003015560808201518160040160006101000a81548173ffffffffffffffffffffffffffffffffffffffff021916908373ffffffffffffffffffffffffffffffffffffffff16021790555060a0820151816005015560c082015181600601555050600f600081548092919061262590614ebf565b91905055506013547f5c155e8f37136295b53ae72fb3c0f568542d008fa91b541061b2d58d80d2657f3330856040518060400160405280600b81526020017f57455448207374616b656400000000000000000000000000000000000000000081525042604051612699959493929190614f5c565b60405180910390a2601360008154809291906126b490614ebf565b919050555060019050919050565b6060600480546126d190614e5f565b80601f01602080910402602001604051908101604052809291908181526020018280546126fd90614e5f565b801561274a5780601f1061271f5761010080835404028352916020019161274a565b820191906000526020600020905b81548152906001019060200180831161272d57829003601f168201915b5050505050905090565b6000806010848154811061276b5761276a614fb6565b5b906000526020600020906009020160405180610120016040529081600082015481526020016001820160009054906101000a900473ffffffffffffffffffffffffffffffffffffffff1673ffffffffffffffffffffffffffffffffffffffff1673ffffffffffffffffffffffffffffffffffffffff1681526020016002820160009054906101000a900473ffffffffffffffffffffffffffffffffffffffff1673ffffffffffffffffffffffffffffffffffffffff1673ffffffffffffffffffffffffffffffffffffffff168152602001600382015481526020016004820154815260200160058201548152602001600682015481526020016007820154815260200160088201548152505090508060200151600860006101000a81548173ffffffffffffffffffffffffffffffffffffffff021916908373ffffffffffffffffffffffffffffffffffffffff1602179055508060400151600960006101000a81548173ffffffffffffffffffffffffffffffffffffffff021916908373ffffffffffffffffffffffffffffffffffffffff16021790555060008160e00151846129159190615098565b905083600860009054906101000a900473ffffffffffffffffffffffffffffffffffffffff1673ffffffffffffffffffffffffffffffffffffffff166370a08231336040518263ffffffff1660e01b81526004016129739190614fe5565b602060405180830381865afa158015612990573d6000803e3d6000fd5b505050506040513d601f19601f820116820180604052508101906129b49190615015565b10156129f5576040517f08c379a00000000000000000000000000000000000000000000000000000000081526004016129ec90615297565b60405180910390fd5b80600960009054906101000a900473ffffffffffffffffffffffffffffffffffffffff1673ffffffffffffffffffffffffffffffffffffffff166370a08231336040518263ffffffff1660e01b8152600401612a519190614fe5565b602060405180830381865afa158015612a6e573d6000803e3d6000fd5b505050506040513d601f19601f82011682018060405250810190612a929190615015565b1015612ad3576040517f08c379a0000000000000000000000000000000000000000000000000000000008152600401612aca90615297565b60405180910390fd5b83600860009054906101000a900473ffffffffffffffffffffffffffffffffffffffff1673ffffffffffffffffffffffffffffffffffffffff1663dd62ed3e33306040518363ffffffff1660e01b8152600401612b319291906152b7565b602060405180830381865afa158015612b4e573d6000803e3d6000fd5b505050506040513d601f19601f82011682018060405250810190612b729190615015565b1015612b7d57600080fd5b80600960009054906101000a900473ffffffffffffffffffffffffffffffffffffffff1673ffffffffffffffffffffffffffffffffffffffff1663dd62ed3e33306040518363ffffffff1660e01b8152600401612bdb9291906152b7565b602060405180830381865afa158015612bf8573d6000803e3d6000fd5b505050506040513d601f19601f82011682018060405250810190612c1c9190615015565b1015612c2757600080fd5b838260a001518360600151612c3c91906150f2565b1015612c4757600080fd5b600860009054906101000a900473ffffffffffffffffffffffffffffffffffffffff1673ffffffffffffffffffffffffffffffffffffffff166323b872dd3330876040518463ffffffff1660e01b8152600401612ca693929190615126565b6020604051808303816000875af1158015612cc5573d6000803e3d6000fd5b505050506040513d601f19601f82011682018060405250810190612ce99190615189565b50600960009054906101000a900473ffffffffffffffffffffffffffffffffffffffff1673ffffffffffffffffffffffffffffffffffffffff166323b872dd3330846040518463ffffffff1660e01b8152600401612d4993929190615126565b6020604051808303816000875af1158015612d68573d6000803e3d6000fd5b505050506040513d601f19601f82011682018060405250810190612d8c9190615189565b50600084612da26305f5e10085606001516143e5565b612dac9190615098565b9050612db83382614721565b600e6040518060e00160405280600f5481526020013373ffffffffffffffffffffffffffffffffffffffff168152602001856020015173ffffffffffffffffffffffffffffffffffffffff168152602001878152602001856040015173ffffffffffffffffffffffffffffffffffffffff1681526020018481526020014281525090806001815401808255809150506001900390600052602060002090600702016000909190919091506000820151816000015560208201518160010160006101000a81548173ffffffffffffffffffffffffffffffffffffffff021916908373ffffffffffffffffffffffffffffffffffffffff16021790555060408201518160020160006101000a81548173ffffffffffffffffffffffffffffffffffffffff021916908373ffffffffffffffffffffffffffffffffffffffff1602179055506060820151816003015560808201518160040160006101000a81548173ffffffffffffffffffffffffffffffffffffffff021916908373ffffffffffffffffffffffffffffffffffffffff16021790555060a0820151816005015560c082015181600601555050600f6000815480929190612f7490614ebf565b91905055506013547f5c155e8f37136295b53ae72fb3c0f568542d008fa91b541061b2d58d80d2657f3330886040518060400160405280600f81526020017f4c6971756964697479206164646564000000000000000000000000000000000081525042604051612fe8959493929190614f5c565b60405180910390a26013600081548092919061300390614ebf565b9190505550848360a00181815161301a9190615042565b9150818152505084600d60008560000151815260200190815260200160002060003373ffffffffffffffffffffffffffffffffffffffff1673ffffffffffffffffffffffffffffffffffffffff16815260200190815260200160002060008282546130859190615042565b925050819055506001935050505092915050565b600080601084815481106130b0576130af614fb6565b5b906000526020600020906009020160405180610120016040529081600082015481526020016001820160009054906101000a900473ffffffffffffffffffffffffffffffffffffffff1673ffffffffffffffffffffffffffffffffffffffff1673ffffffffffffffffffffffffffffffffffffffff1681526020016002820160009054906101000a900473ffffffffffffffffffffffffffffffffffffffff1673ffffffffffffffffffffffffffffffffffffffff1673ffffffffffffffffffffffffffffffffffffffff1681526020016003820154815260200160048201548152602001600582015481526020016006820154815260200160078201548152602001600882015481525050905082600d60008360000151815260200190815260200160002060003373ffffffffffffffffffffffffffffffffffffffff1673ffffffffffffffffffffffffffffffffffffffff16815260200190815260200160002054101561321f57600080fd5b828160a00151101561323057600080fd5b8060200151600860006101000a81548173ffffffffffffffffffffffffffffffffffffffff021916908373ffffffffffffffffffffffffffffffffffffffff1602179055508060400151600960006101000a81548173ffffffffffffffffffffffffffffffffffffffff021916908373ffffffffffffffffffffffffffffffffffffffff16021790555060008160e00151846132cc9190615098565b905083600d60008460000151815260200190815260200160002060003373ffffffffffffffffffffffffffffffffffffffff1673ffffffffffffffffffffffffffffffffffffffff168152602001908152602001600020600082825461333291906150f2565b92505081905550838260a00181815161334b91906150f2565b91508181525050600860009054906101000a900473ffffffffffffffffffffffffffffffffffffffff1673ffffffffffffffffffffffffffffffffffffffff1663a9059cbb33866040518363ffffffff1660e01b81526004016133af929190615222565b6020604051808303816000875af11580156133ce573d6000803e3d6000fd5b505050506040513d601f19601f820116820180604052508101906133f29190615189565b50600960009054906101000a900473ffffffffffffffffffffffffffffffffffffffff1673ffffffffffffffffffffffffffffffffffffffff1663a9059cbb33836040518363ffffffff1660e01b8152600401613450929190615222565b6020604051808303816000875af115801561346f573d6000803e3d6000fd5b505050506040513d601f19601f820116820180604052508101906134939190615189565b50600e6040518060e00160405280600f5481526020013373ffffffffffffffffffffffffffffffffffffffff168152602001846020015173ffffffffffffffffffffffffffffffffffffffff168152602001868152602001846040015173ffffffffffffffffffffffffffffffffffffffff1681526020018381526020014281525090806001815401808255809150506001900390600052602060002090600702016000909190919091506000820151816000015560208201518160010160006101000a81548173ffffffffffffffffffffffffffffffffffffffff021916908373ffffffffffffffffffffffffffffffffffffffff16021790555060408201518160020160006101000a81548173ffffffffffffffffffffffffffffffffffffffff021916908373ffffffffffffffffffffffffffffffffffffffff1602179055506060820151816003015560808201518160040160006101000a81548173ffffffffffffffffffffffffffffffffffffffff021916908373ffffffffffffffffffffffffffffffffffffffff16021790555060a0820151816005015560c082015181600601555050600f600081548092919061365090614ebf565b91905055506013547f5c155e8f37136295b53ae72fb3c0f568542d008fa91b541061b2d58d80d2657f3330876040518060400160405280601181526020017f4c69717569646974792072656d6f766564000000000000000000000000000000815250426040516136c4959493929190614f5c565b60405180910390a2601360008154809291906136df90614ebf565b919050555060019250505092915050565b6000806136fb614214565b90506000600160008373ffffffffffffffffffffffffffffffffffffffff1673ffffffffffffffffffffffffffffffffffffffff16815260200190815260200160002060008673ffffffffffffffffffffffffffffffffffffffff1673ffffffffffffffffffffffffffffffffffffffff168152602001908152602001600020549050838110156137c1576040517f08c379a00000000000000000000000000000000000000000000000000000000081526004016137b890615352565b60405180910390fd5b6137ce828686840361421c565b60019250505092915050565b600560009054906101000a900473ffffffffffffffffffffffffffffffffffffffff1673ffffffffffffffffffffffffffffffffffffffff163373ffffffffffffffffffffffffffffffffffffffff161461383457600080fd5b806010838154811061384957613848614fb6565b5b9060005260206000209060090201600701819055505050565b60008061386d614214565b905061387a8185856144a2565b600191505092915050565b6010818154811061389557600080fd5b90600052602060002090600902016000915090508060000154908060010160009054906101000a900473ffffffffffffffffffffffffffffffffffffffff16908060020160009054906101000a900473ffffffffffffffffffffffffffffffffffffffff16908060030154908060040154908060050154908060060154908060070154908060080154905089565b600660009054906101000a900473ffffffffffffffffffffffffffffffffffffffff1681565b60008161395533612038565b1015613996576040517f08c379a000000000000000000000000000000000000000000000000000000000815260040161398d90615202565b60405180910390fd5b6139a1333084611bdf565b5081600c60003373ffffffffffffffffffffffffffffffffffffffff1673ffffffffffffffffffffffffffffffffffffffff16815260200190815260200160002060008282546139f19190615042565b92505081905550600e6040518060e00160405280600f5481526020013373ffffffffffffffffffffffffffffffffffffffff1681526020013073ffffffffffffffffffffffffffffffffffffffff168152602001848152602001600073ffffffffffffffffffffffffffffffffffffffff168152602001600081526020014281525090806001815401808255809150506001900390600052602060002090600702016000909190919091506000820151816000015560208201518160010160006101000a81548173ffffffffffffffffffffffffffffffffffffffff021916908373ffffffffffffffffffffffffffffffffffffffff16021790555060408201518160020160006101000a81548173ffffffffffffffffffffffffffffffffffffffff021916908373ffffffffffffffffffffffffffffffffffffffff1602179055506060820151816003015560808201518160040160006101000a81548173ffffffffffffffffffffffffffffffffffffffff021916908373ffffffffffffffffffffffffffffffffffffffff16021790555060a0820151816005015560c082015181600601555050600f6000815480929190613bae90614ebf565b91905055506013547f5c155e8f37136295b53ae72fb3c0f568542d008fa91b541061b2d58d80d2657f3330856040518060400160405280600d81526020017f546f6b656e73207374616b65640000000000000000000000000000000000000081525042604051613c22959493929190614f5c565b60405180910390a260136000815480929190613c3d90614ebf565b919050555060019050919050565b600860009054906101000a900473ffffffffffffffffffffffffffffffffffffffff1681565b6000600160008473ffffffffffffffffffffffffffffffffffffffff1673ffffffffffffffffffffffffffffffffffffffff16815260200190815260200160002060008373ffffffffffffffffffffffffffffffffffffffff1673ffffffffffffffffffffffffffffffffffffffff16815260200190815260200160002054905092915050565b600081600b60003373ffffffffffffffffffffffffffffffffffffffff1673ffffffffffffffffffffffffffffffffffffffff168152602001908152602001600020541015613d4657600080fd5b81600b60003373ffffffffffffffffffffffffffffffffffffffff1673ffffffffffffffffffffffffffffffffffffffff1681526020019081526020016000206000828254613d959190615042565b92505081905550600660009054906101000a900473ffffffffffffffffffffffffffffffffffffffff1673ffffffffffffffffffffffffffffffffffffffff166323b872dd3033856040518463ffffffff1660e01b8152600401613dfb93929190615126565b6020604051808303816000875af1158015613e1a573d6000803e3d6000fd5b505050506040513d601f19601f82011682018060405250810190613e3e9190615189565b50600e6040518060e00160405280600f5481526020013373ffffffffffffffffffffffffffffffffffffffff168152602001600073ffffffffffffffffffffffffffffffffffffffff16815260200160008152602001600660009054906101000a900473ffffffffffffffffffffffffffffffffffffffff1673ffffffffffffffffffffffffffffffffffffffff1681526020018481526020014281525090806001815401808255809150506001900390600052602060002090600702016000909190919091506000820151816000015560208201518160010160006101000a81548173ffffffffffffffffffffffffffffffffffffffff021916908373ffffffffffffffffffffffffffffffffffffffff16021790555060408201518160020160006101000a81548173ffffffffffffffffffffffffffffffffffffffff021916908373ffffffffffffffffffffffffffffffffffffffff1602179055506060820151816003015560808201518160040160006101000a81548173ffffffffffffffffffffffffffffffffffffffff021916908373ffffffffffffffffffffffffffffffffffffffff16021790555060a0820151816005015560c082015181600601555050600f600081548092919061401790614ebf565b91905055506013547f5c155e8f37136295b53ae72fb3c0f568542d008fa91b541061b2d58d80d2657f3330856040518060400160405280600d81526020017f5745544820756e7374616b6564000000000000000000000000000000000000008152504260405161408b959493929190614f5c565b60405180910390a2601360008154809291906140a690614ebf565b919050555060019050919050565b600560009054906101000a900473ffffffffffffffffffffffffffffffffffffffff1673ffffffffffffffffffffffffffffffffffffffff163373ffffffffffffffffffffffffffffffffffffffff161461410e57600080fd5b806010838154811061412357614122614fb6565b5b9060005260206000209060090201600801819055505050565b600e818154811061414c57600080fd5b90600052602060002090600702016000915090508060000154908060010160009054906101000a900473ffffffffffffffffffffffffffffffffffffffff16908060020160009054906101000a900473ffffffffffffffffffffffffffffffffffffffff16908060030154908060040160009054906101000a900473ffffffffffffffffffffffffffffffffffffffff16908060050154908060060154905087565b600760009054906101000a900473ffffffffffffffffffffffffffffffffffffffff1681565b600033905090565b600073ffffffffffffffffffffffffffffffffffffffff168373ffffffffffffffffffffffffffffffffffffffff160361428b576040517f08c379a0000000000000000000000000000000000000000000000000000000008152600401614282906153e4565b60405180910390fd5b600073ffffffffffffffffffffffffffffffffffffffff168273ffffffffffffffffffffffffffffffffffffffff16036142fa576040517f08c379a00000000000000000000000000000000000000000000000000000000081526004016142f190615476565b60405180910390fd5b80600160008573ffffffffffffffffffffffffffffffffffffffff1673ffffffffffffffffffffffffffffffffffffffff16815260200190815260200160002060008473ffffffffffffffffffffffffffffffffffffffff1673ffffffffffffffffffffffffffffffffffffffff168152602001908152602001600020819055508173ffffffffffffffffffffffffffffffffffffffff168373ffffffffffffffffffffffffffffffffffffffff167f8c5be1e5ebec7d5bd14f71427d1e84f3dd0314c0f7b2291e5b200ac8c7c3b925836040516143d89190614af0565b60405180910390a3505050565b60008082846143f491906154c5565b905082818561440391906150f2565b61440d91906154f6565b91505092915050565b60006144228484613c71565b90507fffffffffffffffffffffffffffffffffffffffffffffffffffffffffffffffff811461449c578181101561448e576040517f08c379a000000000000000000000000000000000000000000000000000000000815260040161448590615573565b60405180910390fd5b61449b848484840361421c565b5b50505050565b600073ffffffffffffffffffffffffffffffffffffffff168373ffffffffffffffffffffffffffffffffffffffff1603614511576040517f08c379a000000000000000000000000000000000000000000000000000000000815260040161450890615605565b60405180910390fd5b600073ffffffffffffffffffffffffffffffffffffffff168273ffffffffffffffffffffffffffffffffffffffff1603614580576040517f08c379a000000000000000000000000000000000000000000000000000000000815260040161457790615697565b60405180910390fd5b61458b838383614880565b60008060008573ffffffffffffffffffffffffffffffffffffffff1673ffffffffffffffffffffffffffffffffffffffff16815260200190815260200160002054905081811015614611576040517f08c379a000000000000000000000000000000000000000000000000000000000815260040161460890615729565b60405180910390fd5b8181036000808673ffffffffffffffffffffffffffffffffffffffff1673ffffffffffffffffffffffffffffffffffffffff16815260200190815260200160002081905550816000808573ffffffffffffffffffffffffffffffffffffffff1673ffffffffffffffffffffffffffffffffffffffff16815260200190815260200160002060008282546146a49190615042565b925050819055508273ffffffffffffffffffffffffffffffffffffffff168473ffffffffffffffffffffffffffffffffffffffff167fddf252ad1be2c89b69c2b068fc378daa952ba7f163c4a11628f55a4df523b3ef846040516147089190614af0565b60405180910390a361471b848484614885565b50505050565b600073ffffffffffffffffffffffffffffffffffffffff168273ffffffffffffffffffffffffffffffffffffffff1603614790576040517f08c379a000000000000000000000000000000000000000000000000000000000815260040161478790615795565b60405180910390fd5b61479c60008383614880565b80600260008282546147ae9190615042565b92505081905550806000808473ffffffffffffffffffffffffffffffffffffffff1673ffffffffffffffffffffffffffffffffffffffff16815260200190815260200160002060008282546148039190615042565b925050819055508173ffffffffffffffffffffffffffffffffffffffff16600073ffffffffffffffffffffffffffffffffffffffff167fddf252ad1be2c89b69c2b068fc378daa952ba7f163c4a11628f55a4df523b3ef836040516148689190614af0565b60405180910390a361487c60008383614885565b5050565b505050565b505050565b600081519050919050565b600082825260208201905092915050565b60005b838110156148c45780820151818401526020810190506148a9565b838111156148d3576000848401525b50505050565b6000601f19601f8301169050919050565b60006148f58261488a565b6148ff8185614895565b935061490f8185602086016148a6565b614918816148d9565b840191505092915050565b6000602082019050818103600083015261493d81846148ea565b905092915050565b600080fd5b600073ffffffffffffffffffffffffffffffffffffffff82169050919050565b60006149758261494a565b9050919050565b6149858161496a565b811461499057600080fd5b50565b6000813590506149a28161497c565b92915050565b6000819050919050565b6149bb816149a8565b81146149c657600080fd5b50565b6000813590506149d8816149b2565b92915050565b600080604083850312156149f5576149f4614945565b5b6000614a0385828601614993565b9250506020614a14858286016149c9565b9150509250929050565b60008115159050919050565b614a3381614a1e565b82525050565b6000602082019050614a4e6000830184614a2a565b92915050565b60008060008060008060c08789031215614a7157614a70614945565b5b6000614a7f89828a01614993565b9650506020614a9089828a01614993565b9550506040614aa189828a016149c9565b9450506060614ab289828a016149c9565b9350506080614ac389828a016149c9565b92505060a0614ad489828a016149c9565b9150509295509295509295565b614aea816149a8565b82525050565b6000602082019050614b056000830184614ae1565b92915050565b60008060408385031215614b2257614b21614945565b5b6000614b30858286016149c9565b9250506020614b41858286016149c9565b9150509250929050565b600080600060608486031215614b6457614b63614945565b5b6000614b7286828701614993565b9350506020614b8386828701614993565b9250506040614b94868287016149c9565b9150509250925092565b600060ff82169050919050565b614bb481614b9e565b82525050565b6000602082019050614bcf6000830184614bab565b92915050565b600060208284031215614beb57614bea614945565b5b6000614bf9848285016149c9565b91505092915050565b6000819050919050565b6000614c27614c22614c1d8461494a565b614c02565b61494a565b9050919050565b6000614c3982614c0c565b9050919050565b6000614c4b82614c2e565b9050919050565b614c5b81614c40565b82525050565b6000602082019050614c766000830184614c52565b92915050565b600060208284031215614c9257614c91614945565b5b6000614ca084828501614993565b91505092915050565b6000614cb482614c2e565b9050919050565b614cc481614ca9565b82525050565b6000602082019050614cdf6000830184614cbb565b92915050565b614cee8161496a565b82525050565b600061012082019050614d0a600083018c614ae1565b614d17602083018b614ce5565b614d24604083018a614ce5565b614d316060830189614ae1565b614d3e6080830188614ae1565b614d4b60a0830187614ae1565b614d5860c0830186614ae1565b614d6560e0830185614ae1565b614d73610100830184614ae1565b9a9950505050505050505050565b60008060408385031215614d9857614d97614945565b5b6000614da685828601614993565b9250506020614db785828601614993565b9150509250929050565b600060e082019050614dd6600083018a614ae1565b614de36020830189614ce5565b614df06040830188614ce5565b614dfd6060830187614ae1565b614e0a6080830186614ce5565b614e1760a0830185614ae1565b614e2460c0830184614ae1565b98975050505050505050565b7f4e487b7100000000000000000000000000000000000000000000000000000000600052602260045260246000fd5b60006002820490506001821680614e7757607f821691505b602082108103614e8a57614e89614e30565b5b50919050565b7f4e487b7100000000000000000000000000000000000000000000000000000000600052601160045260246000fd5b6000614eca826149a8565b91507fffffffffffffffffffffffffffffffffffffffffffffffffffffffffffffffff8203614efc57614efb614e90565b5b600182019050919050565b600081519050919050565b600082825260208201905092915050565b6000614f2e82614f07565b614f388185614f12565b9350614f488185602086016148a6565b614f51816148d9565b840191505092915050565b600060a082019050614f716000830188614ce5565b614f7e6020830187614ce5565b614f8b6040830186614ae1565b8181036060830152614f9d8185614f23565b9050614fac6080830184614ae1565b9695505050505050565b7f4e487b7100000000000000000000000000000000000000000000000000000000600052603260045260246000fd5b6000602082019050614ffa6000830184614ce5565b92915050565b60008151905061500f816149b2565b92915050565b60006020828403121561502b5761502a614945565b5b600061503984828501615000565b91505092915050565b600061504d826149a8565b9150615058836149a8565b9250827fffffffffffffffffffffffffffffffffffffffffffffffffffffffffffffffff0382111561508d5761508c614e90565b5b828201905092915050565b60006150a3826149a8565b91506150ae836149a8565b9250817fffffffffffffffffffffffffffffffffffffffffffffffffffffffffffffffff04831182151516156150e7576150e6614e90565b5b828202905092915050565b60006150fd826149a8565b9150615108836149a8565b92508282101561511b5761511a614e90565b5b828203905092915050565b600060608201905061513b6000830186614ce5565b6151486020830185614ce5565b6151556040830184614ae1565b949350505050565b61516681614a1e565b811461517157600080fd5b50565b6000815190506151838161515d565b92915050565b60006020828403121561519f5761519e614945565b5b60006151ad84828501615174565b91505092915050565b7f496e76616c696420616d6f756e74000000000000000000000000000000000000600082015250565b60006151ec600e83614895565b91506151f7826151b6565b602082019050919050565b6000602082019050818103600083015261521b816151df565b9050919050565b60006040820190506152376000830185614ce5565b6152446020830184614ae1565b9392505050565b7f696e76616c696420616d6f756e74000000000000000000000000000000000000600082015250565b6000615281600e83614895565b915061528c8261524b565b602082019050919050565b600060208201905081810360008301526152b081615274565b9050919050565b60006040820190506152cc6000830185614ce5565b6152d96020830184614ce5565b9392505050565b7f45524332303a2064656372656173656420616c6c6f77616e63652062656c6f7760008201527f207a65726f000000000000000000000000000000000000000000000000000000602082015250565b600061533c602583614895565b9150615347826152e0565b604082019050919050565b6000602082019050818103600083015261536b8161532f565b9050919050565b7f45524332303a20617070726f76652066726f6d20746865207a65726f2061646460008201527f7265737300000000000000000000000000000000000000000000000000000000602082015250565b60006153ce602483614895565b91506153d982615372565b604082019050919050565b600060208201905081810360008301526153fd816153c1565b9050919050565b7f45524332303a20617070726f766520746f20746865207a65726f20616464726560008201527f7373000000000000000000000000000000000000000000000000000000000000602082015250565b6000615460602283614895565b915061546b82615404565b604082019050919050565b6000602082019050818103600083015261548f81615453565b9050919050565b7f4e487b7100000000000000000000000000000000000000000000000000000000600052601260045260246000fd5b60006154d0826149a8565b91506154db836149a8565b9250826154eb576154ea615496565b5b828206905092915050565b6000615501826149a8565b915061550c836149a8565b92508261551c5761551b615496565b5b828204905092915050565b7f45524332303a20696e73756666696369656e7420616c6c6f77616e6365000000600082015250565b600061555d601d83614895565b915061556882615527565b602082019050919050565b6000602082019050818103600083015261558c81615550565b9050919050565b7f45524332303a207472616e736665722066726f6d20746865207a65726f20616460008201527f6472657373000000000000000000000000000000000000000000000000000000602082015250565b60006155ef602583614895565b91506155fa82615593565b604082019050919050565b6000602082019050818103600083015261561e816155e2565b9050919050565b7f45524332303a207472616e7366657220746f20746865207a65726f206164647260008201527f6573730000000000000000000000000000000000000000000000000000000000602082015250565b6000615681602383614895565b915061568c82615625565b604082019050919050565b600060208201905081810360008301526156b081615674565b9050919050565b7f45524332303a207472616e7366657220616d6f756e742065786365656473206260008201527f616c616e63650000000000000000000000000000000000000000000000000000602082015250565b6000615713602683614895565b915061571e826156b7565b604082019050919050565b6000602082019050818103600083015261574281615706565b9050919050565b7f45524332303a206d696e7420746f20746865207a65726f206164647265737300600082015250565b600061577f601f83614895565b915061578a82615749565b602082019050919050565b600060208201905081810360008301526157ae81615772565b905091905056fea2646970667358221220482e0ccb3c040ff6c2bb46e7993dff59d946183e4f24335bbaca98e80673adbb64736f6c634300080e0033",
  "immutableReferences": {},
  "source": "\n/*\n\n// \t\t\t                  _        _                            _   \n// \t\t\t                 | |      (_)                          | |  \n// \t\t\t  _ __ ___   __ _| | _____ _ _ __ ___  _ __   __ _  ___| |_ \n// \t\t\t | '_ ` _ \\ / _` | |/ / _ \\ | '_ ` _ \\| '_ \\ / _` |/ __| __|\n// \t\t\t | | | | | | (_| |   <  __/ | | | | | | |_) | (_| | (__| |_ \n// \t\t\t |_| |_| |_|\\__,_|_|\\_\\___|_|_| |_| |_| .__/ \\__,_|\\___|\\__|\n// \t\t\t                                      | |                   \n// \t\t\t                                      |_|   \n    \n\nSolidity Style Guide from docs (just a guide, just in case):\n(https://docs.soliditylang.org/en/v0.8.13/style-guide.html) \n- Layout contract elements in the following order:\n\tPragma statements\n\tImport statements\n\tInterfaces\n\tLibraries\n\tContracts\n\n- Inside each contract, library or interface, use the following order:\n\tType declarations\n\tState variables\n\tEvents\n\tFunctions\n\n-Functions should be grouped according to their visibility and ordered:\n\tconstructor\n\treceive function (if exists)\n\tfallback function (if exists)\n\texternal\n\tpublic\n\tinternal\n\tprivate\n\n- Within a grouping, place the view and pure functions last.\n\nQUESTION:\n\t- How do we give them value so that people would want to stake rSHK? What will  they be used for? \n\t(I recently saw a video of a course recommending not to build security tokens but utility tokens,\n\t for regulatory reasons)\n- Do we have to emit Logs and txs.push on both swaps, addLQ, removeLQ, stake/ unstake weth and stake/unstake?\n- How many MLQ are in 1 SHK? or how do they relate to each other?\n\nTODO:\n- Use chainlink (\tVRF for pool and usd prices of assets )\n- Check if more modifiers are necessary.\n- Make pool of feesCollected? \n- Try replacing require statements with custom errors IF they consume less gas.\n- Check all visibility specifiers and fix if necessary (avoid public).\n- Calculate math beehind rSHK value in unstake() functions.\n- Transfer rSHK when unstaking.\n- Create timeframe for staking (WETH, SHK)\n\nNOTSURE:\n- Make uint for totalfeed colledted for each token?\n- Oracles vs functions for determining high/low currencies?\n- Inherit ERC1155 instead of a erc20?\n- User claims rewards from the rSHK contract. The amount is determined by the SHK contrct \n(totalAmount. SHK is 100 * 10**6)\n*/\n\n// SPDX-License-Identifier: GPL-3.0\npragma solidity ^0.8.0;\n\nimport '@openzeppelin/contracts/token/ERC20/IERC20.sol';\nimport '@openzeppelin/contracts/token/ERC20/ERC20.sol';\nimport '@openzeppelin/contracts/token/ERC1155/ERC1155.sol';\n\ncontract PoolMaker is ERC20 {\n\taddress admin = 0x1Cd6F4D329D38043a6bDB3665c3a7b06F79B5242;\n\n\tIERC20 public WETH = IERC20(0xC02aaA39b223FE8D0A0e5C4F27eAD9083C756Cc2);\n\tIERC20 public rSHK;\n\tIERC20 public low;\n\tIERC20 public high;\n\n\tIERC20 internal Token;\n\n\tmapping(address => uint256) stakedWETH;\n\tmapping(address => uint256) stakedSHK;\n\n\t//pool Id => user => lowCurrencyQuantity\n\tmapping(uint256 => mapping(address => uint256)) addedLiquidity;\n\n\tstruct Transaction {\n\t\tuint256 id;\n\t\taddress user;\n\t\taddress token1;\n\t\tuint256 amount1;\n\t\taddress token2;\n\t\tuint256 amount2;\n\t\tuint256 time;\n\t}\n\tTransaction[] public txs;\n\tuint256 txCount;\n\n\tstruct Liquidity {\n\t\tuint256 id;\n\t\taddress lowCurrency;\n\t\taddress highCurrency;\n\t\tuint256 maxSizeLow;\n\t\tuint256 maxSizeHigh;\n\t\tuint256 currSizeLow;\n\t\tuint256 currSizeHigh;\n\t\tuint256 rate;\n\t\tuint256 fee;\n\t}\n\tLiquidity[] public pools;\n\tuint256 poolCount;\n\n\t// Question: does this stay, or  replaced since we'll use 1155\n\tERC20[] public tokens;\n\n\tevent Log(\n\t\tuint256 indexed id,\n\t\taddress sender,\n\t\taddress home,\n\t\tuint256 num,\n\t\tbytes message,\n\t\tuint256 time\n\t);\n\tuint256 logs;\n\n\tmodifier adminOnly() {\n\t\trequire(msg.sender == admin);\n\t\t_;\n\t}\n\n\t//\n\tconstructor(address _rSHK) ERC20('Shake Token', 'SHK') {\n\t\trSHK = IERC20(_rSHK);\n\t}\n\n\tfallback() external payable {}\n\n\tfunction withdrawToken(address _contract) external adminOnly returns (bool) {\n\t\tToken = IERC20(_contract);\n\t\tToken.transfer(admin, Token.balanceOf(address(this)));\n\t\treturn true;\n\t}\n\n\tfunction makePool(\n\t\taddress lowCurrency,\n\t\taddress highCurrency,\n\t\tuint256 lowSize,\n\t\tuint256 highSize,\n\t\tuint256 rate,\n\t\tuint256 fee\n\t) external adminOnly returns (bool) {\n\t\tpools.push(\n\t\t\tLiquidity(poolCount, lowCurrency, highCurrency, lowSize, highSize, 0, 0, rate, fee)\n\t\t);\n\t\t++poolCount;\n\n\t\temit Log(logs, msg.sender, address(this), logs, bytes('Pool made'), block.timestamp);\n\t\t++logs;\n\n\t\ttxs.push(\n\t\t\tTransaction(txCount, msg.sender, lowCurrency, 0, highCurrency, 0, block.timestamp)\n\t\t);\n\t\t++txCount;\n\n\t\treturn true;\n\t}\n\n\tfunction addLiquidity(uint256 _id, uint256 _lowAmount) external payable returns (bool) {\n\t\tLiquidity memory currPool = pools[_id];\n\t\tlow = IERC20(currPool.lowCurrency);\n\t\thigh = IERC20(currPool.highCurrency);\n\n\t\tuint256 _highAmount = _lowAmount * currPool.rate;\n\t\trequire(low.balanceOf(msg.sender) >= _lowAmount, 'invalid amount');\n\t\trequire(high.balanceOf(msg.sender) >= _highAmount, 'invalid amount');\n\t\trequire(low.allowance(msg.sender, address(this)) >= _lowAmount);\n\t\trequire(high.allowance(msg.sender, address(this)) >= _highAmount);\n\t\trequire((currPool.maxSizeLow - currPool.currSizeLow) >= _lowAmount);\n\n\t\t// todo: Optional? Require that the transferFrom txs are successful before minting\n\t\tlow.transferFrom(msg.sender, address(this), _lowAmount);\n\t\thigh.transferFrom(msg.sender, address(this), _highAmount);\n\n\t\t//PercentageOfTotalPoolSize = (100 / maxSIze) * _lowAmount\n\t\tuint256 sharePercentage = _divide(10**8, currPool.maxSizeLow) * _lowAmount;\n\n\t\t_mint(msg.sender, sharePercentage);\n\n\t\ttxs.push(\n\t\t\tTransaction(\n\t\t\t\ttxCount,\n\t\t\t\tmsg.sender,\n\t\t\t\tcurrPool.lowCurrency,\n\t\t\t\t_lowAmount,\n\t\t\t\tcurrPool.highCurrency,\n\t\t\t\t_highAmount,\n\t\t\t\tblock.timestamp\n\t\t\t)\n\t\t);\n\t\ttxCount++;\n\n\t\temit Log(\n\t\t\tlogs,\n\t\t\tmsg.sender,\n\t\t\taddress(this),\n\t\t\t_lowAmount,\n\t\t\tbytes('Liquidity added'),\n\t\t\tblock.timestamp\n\t\t);\n\t\tlogs++;\n\n\t\tcurrPool.currSizeLow += _lowAmount;\n\t\taddedLiquidity[currPool.id][msg.sender] += _lowAmount;\n\t\treturn true;\n\t}\n\n\tfunction removeLiquidity(uint256 _id, uint256 _lowAmount)\n\t\texternal\n\t\tpayable\n\t\treturns (bool)\n\t{\n\t\tLiquidity memory currPool = pools[_id];\n\t\trequire(addedLiquidity[currPool.id][msg.sender] >= _lowAmount);\n\t\trequire(currPool.currSizeLow >= _lowAmount);\n\t\tlow = IERC20(currPool.lowCurrency);\n\t\thigh = IERC20(currPool.highCurrency);\n\n\t\tuint256 _highAmount = _lowAmount * currPool.rate;\n\t\taddedLiquidity[currPool.id][msg.sender] -= _lowAmount;\n\t\tcurrPool.currSizeLow -= _lowAmount;\n\t\tlow.transfer(msg.sender, _lowAmount);\n\t\thigh.transfer(msg.sender, _highAmount);\n\n\t\ttxs.push(\n\t\t\tTransaction(\n\t\t\t\ttxCount,\n\t\t\t\tmsg.sender,\n\t\t\t\tcurrPool.lowCurrency,\n\t\t\t\t_lowAmount,\n\t\t\t\tcurrPool.highCurrency,\n\t\t\t\t_highAmount,\n\t\t\t\tblock.timestamp\n\t\t\t)\n\t\t);\n\t\ttxCount++;\n\n\t\temit Log(\n\t\t\tlogs,\n\t\t\tmsg.sender,\n\t\t\taddress(this),\n\t\t\t_lowAmount,\n\t\t\tbytes('Liquidity removed'),\n\t\t\tblock.timestamp\n\t\t);\n\t\tlogs++;\n\n\t\treturn true;\n\t}\n\n\tfunction stakeSHK(uint256 _amount) external returns (bool) {\n\t\trequire(balanceOf(msg.sender) >= _amount, 'Invalid amount');\n\t\ttransferFrom(msg.sender, address(this), _amount);\n\t\tstakedSHK[msg.sender] += _amount;\n\n\t\ttxs.push(\n\t\t\tTransaction(\n\t\t\t\ttxCount,\n\t\t\t\tmsg.sender,\n\t\t\t\taddress(this), //todo: replace with address of SHK token\n\t\t\t\t_amount,\n\t\t\t\taddress(0x0),\n\t\t\t\t0,\n\t\t\t\tblock.timestamp\n\t\t\t)\n\t\t);\n\t\ttxCount++;\n\n\t\temit Log(\n\t\t\tlogs,\n\t\t\tmsg.sender,\n\t\t\taddress(this),\n\t\t\t_amount,\n\t\t\tbytes('Tokens staked'),\n\t\t\tblock.timestamp\n\t\t);\n\t\tlogs++;\n\n\t\treturn true;\n\t}\n\n\t//TODO: Declare rSHK, calculate amount of rSHK for staking\n\tfunction unstakeSHK(uint256 _amount) external returns (bool) {\n\t\trequire(stakedSHK[msg.sender] >= _amount, 'Invalid amount');\n\t\tstakedSHK[msg.sender] -= _amount;\n\t\ttransfer(msg.sender, _amount);\n\n\t\ttxs.push(\n\t\t\tTransaction(\n\t\t\t\ttxCount,\n\t\t\t\tmsg.sender,\n\t\t\t\taddress(this), //todo: replace with address of SHK token\n\t\t\t\t_amount,\n\t\t\t\taddress(0x0), // //todo: replace with address of rSHK token\n\t\t\t\t0, // replace with amount (according to staked value and timeframe)\n\t\t\t\tblock.timestamp\n\t\t\t)\n\t\t);\n\t\ttxCount++;\n\n\t\temit Log(\n\t\t\tlogs,\n\t\t\tmsg.sender,\n\t\t\taddress(this),\n\t\t\t_amount,\n\t\t\tbytes('Tokens unstaked'),\n\t\t\tblock.timestamp\n\t\t);\n\t\tlogs++;\n\n\t\treturn true;\n\t}\n\n\tfunction stakeWETH(uint256 _amount) public payable returns (bool) {\n\t\trequire(WETH.balanceOf(msg.sender) >= _amount);\n\t\tWETH.transferFrom(msg.sender, address(this), _amount);\n\t\tstakedWETH[msg.sender] += _amount;\n\n\t\ttxs.push(\n\t\t\tTransaction(\n\t\t\t\ttxCount,\n\t\t\t\tmsg.sender,\n\t\t\t\taddress(WETH),\n\t\t\t\t_amount,\n\t\t\t\taddress(0x0), // //todo: replace with address of rSHK token\n\t\t\t\t0, // replace with amount according to staked value (and time as well?)\n\t\t\t\tblock.timestamp\n\t\t\t)\n\t\t);\n\t\ttxCount++;\n\n\t\temit Log(\n\t\t\tlogs,\n\t\t\tmsg.sender,\n\t\t\taddress(this),\n\t\t\t_amount,\n\t\t\tbytes('WETH staked'),\n\t\t\tblock.timestamp\n\t\t);\n\t\tlogs++;\n\n\t\treturn true;\n\t}\n\n\t//TODO: Declare rSHK, calculate amount of rSHK tp give for staking\n\tfunction unstakeWETH(uint256 _amount) public payable returns (bool) {\n\t\trequire(stakedWETH[msg.sender] >= _amount);\n\t\tstakedWETH[msg.sender] += _amount;\n\t\tWETH.transferFrom(address(this), msg.sender, _amount);\n\n\t\ttxs.push(\n\t\t\tTransaction(\n\t\t\t\ttxCount,\n\t\t\t\tmsg.sender,\n\t\t\t\taddress(0x0),\n\t\t\t\t0,\n\t\t\t\taddress(WETH),\n\t\t\t\t_amount,\n\t\t\t\tblock.timestamp\n\t\t\t)\n\t\t);\n\t\ttxCount++;\n\n\t\temit Log(\n\t\t\tlogs,\n\t\t\tmsg.sender,\n\t\t\taddress(this),\n\t\t\t_amount,\n\t\t\tbytes('WETH unstaked'),\n\t\t\tblock.timestamp\n\t\t);\n\t\tlogs++;\n\n\t\treturn true;\n\t}\n\n\tfunction swapLowHigh(uint256 _id, uint256 _lowAmount) public payable returns (bool) {\n\t\tLiquidity memory currPool = pools[_id];\n\t\tlow = IERC20(currPool.lowCurrency);\n\t\thigh = IERC20(currPool.highCurrency);\n\n\t\trequire(low.balanceOf(msg.sender) >= _lowAmount);\n\t\trequire(_lowAmount + currPool.currSizeLow <= currPool.maxSizeLow);\n\n\t\tuint256 _highAmount = currPool.rate * _lowAmount;\n\n\t\t// IDK if this is necessary or if Solidity reverts in case value goes under 0 (since its an uint and not an int)\n\t\trequire(currPool.currSizeHigh - _highAmount >= 0);\n\n\t\tuint256 adminFee = _divide((_lowAmount * currPool.fee), 100);\n\t\tuint256 amountOut = _highAmount - adminFee;\n\n\t\tlow.transferFrom(msg.sender, admin, adminFee);\n\t\tlow.transferFrom(msg.sender, address(this), _lowAmount);\n\n\t\tcurrPool.currSizeLow += _lowAmount;\n\t\tcurrPool.currSizeHigh -= amountOut;\n\t\thigh.transferFrom(address(this), msg.sender, amountOut);\n\n\t\ttxs.push(\n\t\t\tTransaction(\n\t\t\t\ttxCount,\n\t\t\t\tmsg.sender,\n\t\t\t\tcurrPool.lowCurrency,\n\t\t\t\t_lowAmount,\n\t\t\t\tcurrPool.highCurrency,\n\t\t\t\tamountOut,\n\t\t\t\tblock.timestamp\n\t\t\t)\n\t\t);\n\t\ttxCount++;\n\n\t\temit Log(\n\t\t\tlogs,\n\t\t\tmsg.sender,\n\t\t\taddress(this),\n\t\t\t_lowAmount,\n\t\t\tbytes('Swapped low-high'),\n\t\t\tblock.timestamp\n\t\t);\n\t\tlogs++;\n\n\t\treturn true;\n\t}\n\n\tfunction swapHIghLow(uint256 _id, uint256 _highAmount) public payable returns (bool) {\n\t\tLiquidity memory currPool = pools[_id];\n\t\tlow = IERC20(currPool.lowCurrency);\n\t\thigh = IERC20(currPool.highCurrency);\n\n\t\trequire(high.balanceOf(msg.sender) >= _highAmount);\n\t\trequire(_highAmount + currPool.currSizeHigh <= currPool.maxSizeHigh);\n\n\t\tuint256 _lowAmount = currPool.rate * _highAmount;\n\n\t\t// IDK if this is necessary or if Solidity reverts in case value goes under 0 (since its an uint and not an int)\n\t\trequire(currPool.currSizeLow - _lowAmount >= 0);\n\n\t\tuint256 adminFee = _divide((_highAmount * currPool.fee), 100); //check math\n\t\tuint256 amountOut = _lowAmount - adminFee;\n\t\thigh.transferFrom(msg.sender, admin, adminFee);\n\t\thigh.transferFrom(msg.sender, address(this), amountOut);\n\t\tcurrPool.currSizeHigh += _highAmount;\n\t\tcurrPool.currSizeLow -= amountOut;\n\t\tlow.transferFrom(address(this), msg.sender, _highAmount);\n\n\t\ttxs.push(\n\t\t\tTransaction(\n\t\t\t\ttxCount,\n\t\t\t\tmsg.sender,\n\t\t\t\tcurrPool.highCurrency,\n\t\t\t\t_highAmount,\n\t\t\t\tcurrPool.lowCurrency,\n\t\t\t\tamountOut,\n\t\t\t\tblock.timestamp\n\t\t\t)\n\t\t);\n\t\ttxCount++;\n\n\t\temit Log(\n\t\t\tlogs,\n\t\t\tmsg.sender,\n\t\t\taddress(this),\n\t\t\t_highAmount,\n\t\t\tbytes('Swapped high-low'),\n\t\t\tblock.timestamp\n\t\t);\n\t\tlogs++;\n\n\t\treturn true;\n\t}\n\n\tfunction changeFee(uint256 _id, uint256 _newFee) external adminOnly {\n\t\tpools[_id].fee = _newFee;\n\t}\n\n\tfunction changeRate(uint256 _id, uint256 _newRate) external adminOnly {\n\t\tpools[_id].rate = _newRate;\n\t}\n\n\tfunction changeRateInt(uint256 _id, uint256 _newRate) internal adminOnly {\n\t\tpools[_id].rate = _newRate;\n\t}\n\n\tfunction _divide(uint256 _a, uint256 _b) internal pure returns (uint256 res) {\n\t\tuint256 rem = _a % _b;\n\t\tres = (_a - rem) / _b;\n\t}\n}\n",
  "sourcePath": "/Users/jediswag/Documents/GitHub/impactmarket/contracts/PoolMaker.sol",
  "compiler": {
    "name": "solc",
    "version": "0.8.14+commit.80d49f37.Emscripten.clang"
  },
  "schemaVersion": "3.4.4",
  "updatedAt": "2022-05-18T19:41:56.455Z",
  "devdoc": {
    "kind": "dev",
    "methods": {
      "allowance(address,address)": {
        "details": "See {IERC20-allowance}."
      },
      "approve(address,uint256)": {
        "details": "See {IERC20-approve}. NOTE: If `amount` is the maximum `uint256`, the allowance is not updated on `transferFrom`. This is semantically equivalent to an infinite approval. Requirements: - `spender` cannot be the zero address."
      },
      "balanceOf(address)": {
        "details": "See {IERC20-balanceOf}."
      },
      "decimals()": {
        "details": "Returns the number of decimals used to get its user representation. For example, if `decimals` equals `2`, a balance of `505` tokens should be displayed to a user as `5.05` (`505 / 10 ** 2`). Tokens usually opt for a value of 18, imitating the relationship between Ether and Wei. This is the value {ERC20} uses, unless this function is overridden; NOTE: This information is only used for _display_ purposes: it in no way affects any of the arithmetic of the contract, including {IERC20-balanceOf} and {IERC20-transfer}."
      },
      "decreaseAllowance(address,uint256)": {
        "details": "Atomically decreases the allowance granted to `spender` by the caller. This is an alternative to {approve} that can be used as a mitigation for problems described in {IERC20-approve}. Emits an {Approval} event indicating the updated allowance. Requirements: - `spender` cannot be the zero address. - `spender` must have allowance for the caller of at least `subtractedValue`."
      },
      "increaseAllowance(address,uint256)": {
        "details": "Atomically increases the allowance granted to `spender` by the caller. This is an alternative to {approve} that can be used as a mitigation for problems described in {IERC20-approve}. Emits an {Approval} event indicating the updated allowance. Requirements: - `spender` cannot be the zero address."
      },
      "name()": {
        "details": "Returns the name of the token."
      },
      "symbol()": {
        "details": "Returns the symbol of the token, usually a shorter version of the name."
      },
      "totalSupply()": {
        "details": "See {IERC20-totalSupply}."
      },
      "transfer(address,uint256)": {
        "details": "See {IERC20-transfer}. Requirements: - `to` cannot be the zero address. - the caller must have a balance of at least `amount`."
      },
      "transferFrom(address,address,uint256)": {
        "details": "See {IERC20-transferFrom}. Emits an {Approval} event indicating the updated allowance. This is not required by the EIP. See the note at the beginning of {ERC20}. NOTE: Does not update the allowance if the current allowance is the maximum `uint256`. Requirements: - `from` and `to` cannot be the zero address. - `from` must have a balance of at least `amount`. - the caller must have allowance for ``from``'s tokens of at least `amount`."
      }
    },
    "version": 1
  },
  "userdoc": {
    "kind": "user",
    "methods": {},
    "version": 1
  }
}