{
  "contractName": "TokenomicSets",
  "abi": [
    {
      "inputs": [],
      "name": "lyxLive",
      "outputs": [
        {
          "internalType": "uint256",
          "name": "",
          "type": "uint256"
        }
      ],
      "stateMutability": "view",
      "type": "function"
    },
    {
      "inputs": [],
      "name": "lyxLocked",
      "outputs": [
        {
          "internalType": "uint256",
          "name": "",
          "type": "uint256"
        }
      ],
      "stateMutability": "view",
      "type": "function"
    },
    {
      "inputs": [],
      "name": "mlqLive",
      "outputs": [
        {
          "internalType": "uint256",
          "name": "",
          "type": "uint256"
        }
      ],
      "stateMutability": "view",
      "type": "function"
    },
    {
      "inputs": [],
      "name": "mlqLocked",
      "outputs": [
        {
          "internalType": "uint256",
          "name": "",
          "type": "uint256"
        }
      ],
      "stateMutability": "view",
      "type": "function"
    },
    {
      "inputs": [],
      "name": "mlqRate",
      "outputs": [
        {
          "internalType": "uint256",
          "name": "",
          "type": "uint256"
        }
      ],
      "stateMutability": "view",
      "type": "function"
    },
    {
      "inputs": [],
      "name": "roy",
      "outputs": [
        {
          "internalType": "uint256",
          "name": "",
          "type": "uint256"
        }
      ],
      "stateMutability": "view",
      "type": "function"
    },
    {
      "inputs": [],
      "name": "vyzLive",
      "outputs": [
        {
          "internalType": "uint256",
          "name": "",
          "type": "uint256"
        }
      ],
      "stateMutability": "view",
      "type": "function"
    },
    {
      "inputs": [],
      "name": "vyzLocked",
      "outputs": [
        {
          "internalType": "uint256",
          "name": "",
          "type": "uint256"
        }
      ],
      "stateMutability": "view",
      "type": "function"
    },
    {
      "inputs": [
        {
          "internalType": "address",
          "name": "_contractAddress",
          "type": "address"
        },
        {
          "internalType": "uint256",
          "name": "_curr",
          "type": "uint256"
        }
      ],
      "name": "setTokenContract",
      "outputs": [
        {
          "internalType": "bool",
          "name": "",
          "type": "bool"
        }
      ],
      "stateMutability": "nonpayable",
      "type": "function"
    }
  ],
  "bytecode": "0x608060405234801561001057600080fd5b50610646806100206000396000f3fe608060405234801561001057600080fd5b50600436106100935760003560e01c8063487c184c11610066578063487c184c14610122578063641f3d991461014057806386e2b5171461015e5780638b6dc3dd1461017c578063940b54a81461019a57610093565b80632abdee3c146100985780633323b227146100b65780633a36c1fe146100d457806342a6112b146100f2575b600080fd5b6100a06101b8565b6040516100ad91906104f0565b60405180910390f35b6100be6101be565b6040516100cb91906104f0565b60405180910390f35b6100dc6101c4565b6040516100e991906104f0565b60405180910390f35b61010c6004803603810190610107919061059a565b6101ca565b60405161011991906105f5565b60405180910390f35b61012a6104b9565b60405161013791906104f0565b60405180910390f35b6101486104bf565b60405161015591906104f0565b60405180910390f35b6101666104c5565b60405161017391906104f0565b60405180910390f35b6101846104cb565b60405161019191906104f0565b60405180910390f35b6101a26104d1565b6040516101af91906104f0565b60405180910390f35b60105481565b600d5481565b600c5481565b60008082036102155782600160006101000a81548173ffffffffffffffffffffffffffffffffffffffff021916908373ffffffffffffffffffffffffffffffffffffffff1602179055505b6001820361025f5782600260006101000a81548173ffffffffffffffffffffffffffffffffffffffff021916908373ffffffffffffffffffffffffffffffffffffffff1602179055505b600282036102a95782600360006101000a81548173ffffffffffffffffffffffffffffffffffffffff021916908373ffffffffffffffffffffffffffffffffffffffff1602179055505b600382036102f35782600460006101000a81548173ffffffffffffffffffffffffffffffffffffffff021916908373ffffffffffffffffffffffffffffffffffffffff1602179055505b6004820361033d5782600560006101000a81548173ffffffffffffffffffffffffffffffffffffffff021916908373ffffffffffffffffffffffffffffffffffffffff1602179055505b600582036103875782600660006101000a81548173ffffffffffffffffffffffffffffffffffffffff021916908373ffffffffffffffffffffffffffffffffffffffff1602179055505b600682036103d15782600760006101000a81548173ffffffffffffffffffffffffffffffffffffffff021916908373ffffffffffffffffffffffffffffffffffffffff1602179055505b6007820361041b5782600860006101000a81548173ffffffffffffffffffffffffffffffffffffffff021916908373ffffffffffffffffffffffffffffffffffffffff1602179055505b600882036104655782600960006101000a81548173ffffffffffffffffffffffffffffffffffffffff021916908373ffffffffffffffffffffffffffffffffffffffff1602179055505b600982036104af5782600a60006101000a81548173ffffffffffffffffffffffffffffffffffffffff021916908373ffffffffffffffffffffffffffffffffffffffff1602179055505b6001905092915050565b60115481565b600e5481565b600f5481565b60005481565b60125481565b6000819050919050565b6104ea816104d7565b82525050565b600060208201905061050560008301846104e1565b92915050565b600080fd5b600073ffffffffffffffffffffffffffffffffffffffff82169050919050565b600061053b82610510565b9050919050565b61054b81610530565b811461055657600080fd5b50565b60008135905061056881610542565b92915050565b610577816104d7565b811461058257600080fd5b50565b6000813590506105948161056e565b92915050565b600080604083850312156105b1576105b061050b565b5b60006105bf85828601610559565b92505060206105d085828601610585565b9150509250929050565b60008115159050919050565b6105ef816105da565b82525050565b600060208201905061060a60008301846105e6565b9291505056fea26469706673582212204677be561567e93f2e802c0a6d2fc5a3feb2df75215d753021c921b9e5a7d1cd64736f6c634300080e0033",
  "immutableReferences": {},
  "source": "// SPDX-License-Identifier: GPL-3.0\n// // // // // // // // // // // // // // // // // // // // // // // // // // // // // // // // // // // // // // // // // // // // // // // // // // // // // // // // // // // // //\n//   \n//              .d8888.  .d88b.  db    db d888888b d88888b d888888b db    db \n//              88'  YP .8P  88. `8b  d8'   `88'   88'     `~~88~~' `8b  d8' \n//              `8bo.   88  d'88  `8bd8'     88    88ooooo    88     `8bd8'  \n//                `Y8b. 88 d' 88  .dPYb.     88    88~~~~~    88       88    \n//              db   8D `88  d8' .8P  Y8.   .88.   88.        88       88    \n//              `8888Y'  `Y88P'  YP    YP Y888888P Y88888P    YP       YP \n// \n// // // // // // // // // // // // // // // // // // // // // // // // // // // // // // // // // // // // // // // // // // // // // // // // // // // // // // // // // // // // //\n//                                                                                                                                                                                  //\n//      @dev            ::              stereoIII6.dao                                                                                                                                          //\n//      @msg            ::              type.stereo@pm.me                                                                                                                                    //\n//      @github         ::              @stereoIII6 \n//      @twitter        ::              @stereoIII6                                                                                                                                              //\n//                                                                                                                                                                                      //\n//      @dev            ::              willdera.eth                                                                                                                                          //\n//      @msg            ::                                                                                                                                                  //\n//      @github         ::              @willdera                                                                                                                                              //\n//                                                                                                                                                                                      //\n//      @author         ::              stereoIII6.dao                                                                                                                                          //\n//      msg             ::              type.stereo@pm.me                                                                                                                                    //\n//      @github         ::              @stereoIII6 \n//      @twitter        ::              @stereoIII6                                                                                                                                             //\n//                                                                                                                                                                                  //\n// // // // // // // // // // // // // // // // // // // // // // // // // // // // // // // // // // // // // // // // // // // // // // // // // // // // // // // // // // // // //\n//                                                                                                                                                                                  //\n// // // // // // // // // // // // // // // // // // // // // // // // // // // // // // // // // // // // // // // // // // // // // // // // // // // // // // // // // // // // //\n//                                                                                                                                                                                  //\n//                                                                                                                                                                                  //\n//      @title          ::              Affily8                                                                                                                                     //\n//      @description    ::              decentral affiliate system                                                                                                            //\n//      @version        ::              0.0.1                                                                                                                                       //\n//      @purpose        ::              Refer friennds on the blockchain                                                                                                            //\n//                                                                                                                                                                                  //\n//                                                                                                                                                                                  //\n//                                                                                                                                                                                  //\n//                                                                                                                                                                                  //\n//                                                                                                                                                                                  //\n// // // // // // // // // // // // // // // // // // // // // // // // // // // // // // // // // // // // // // // // // // // // // // // // // // // // // // // // // // // // //\n\n\npragma solidity ^0.8.0;\n// Open Zeppelin Imports\n// import \"@openzeppelin/contracts/token/ERC20/ERC20.sol\";\nimport \"@openzeppelin/contracts/token/ERC20/IERC20.sol\";\n\nimport \"@openzeppelin/contracts/token/ERC721/ERC721.sol\";\nimport \"@openzeppelin/contracts/token/ERC721/IERC721.sol\";\n\n// import \"@openzeppelin/contracts/token/ERC1155/ERC1155.sol\";\nimport \"@openzeppelin/contracts/token/ERC1155/IERC1155.sol\";\n\n// Chainlink Imports\n// import \"@chainlink/contracts/src/v0.8/VRFConsumerBase.sol\";\n// import \"./Nft_Project.sol\";\nlibrary fx{\n    uint256 constant weidig = 1 * 10 ** 18;\n    uint256 constant findig = 1 * 10 ** 14;\n    uint256 constant shqdig = 1 * 10 ** 8;\n    uint256 public constant mlqMax = 3000000 * weidig;\n    uint256 public constant lyxMax = 300000000 * weidig;\n    uint256 public constant vyzMax = 30000000000 * weidig;\n    uint256 public constant shqMax = 100 * shqdig;\n    uint256 public constant initMlqRate = 100; // 1 ETH == (initMlqRate) MLQ\n    uint256 public constant lyxRate = 10000; // 1 ETH == (lyxRate) LYX\n    uint256 public constant vyzRate = 1000000; // 1 ETH == (vyzRate) VYZ\n\n}\ncontract TokenomicSets{\n    using fx for *;\n    uint256 public mlqRate; // is to be updated \n    IERC20 internal iUSDC;\n    IERC20 internal iWETH;\n    IERC20 internal iMLQ;\n    IERC20 internal iLYX;\n    IERC20 internal iVYZ;\n    IERC20 internal M_SHQ;\n    IERC20 internal L_SHQ;\n    IERC20 internal V_SHQ;\n    IERC20 internal X_SHQ;\n    IERC20 internal R_SHQ;\n    IERC20 internal Token20;\n\n    \n    uint256 public mlqLive;\n    uint256 public lyxLive;\n    uint256 public vyzLive;\n    uint256 public mlqLocked;\n    uint256 public lyxLocked;\n    uint256 public vyzLocked;\n\n    uint256 public roy;\n    \n    function setTokenContract(address _contractAddress, uint256 _curr) external returns(bool){ // curr == 0-usdc, 1-weth, 2-mlq, 3-lyx, 4-vyz, 5-mshk, 6-lshk, 7-vshk, 8-xshk, 9-rshk\n        if(_curr == 0) iUSDC = IERC20(_contractAddress);\n        if(_curr == 1) iWETH = IERC20(_contractAddress);\n        if(_curr == 2) iMLQ = IERC20(_contractAddress);\n        if(_curr == 3) iLYX = IERC20(_contractAddress);\n        if(_curr == 4) iVYZ = IERC20(_contractAddress);\n        if(_curr == 5) M_SHQ = IERC20(_contractAddress);\n        if(_curr == 6) L_SHQ = IERC20(_contractAddress);\n        if(_curr == 7) V_SHQ = IERC20(_contractAddress);\n        if(_curr == 8) X_SHQ = IERC20(_contractAddress); \n        if(_curr == 9) R_SHQ = IERC20(_contractAddress);\n        return true;\n    }\n    function setMlqRate(uint256 _newRate) internal returns(bool){\n        mlqRate = _newRate;\n        return (mlqRate == _newRate);\n    }\n\n}\ncontract Init is TokenomicSets {\n    address public author;\n    address public avax;\n    mapping(address => uint256) internal role;\n    mapping(address => bytes) internal uData;\n    \n   \n    mapping(address => bool) internal isUser;\n    mapping(address => bool) internal blacklist;\n    event Log(uint256 indexed id, address sender, address home, uint256 num, bytes message, uint256 stamp);\n    event Wait(uint256 indexed id, address sender, address home, uint256 num, bytes message, uint256 stamp);\n    uint256 logs;\n    modifier isAdmin() {\n        require(role[msg.sender] == 99, \"you're not admin\");\n        _;\n    }\n    modifier isOwner() {\n        require(author == msg.sender || avax == msg.sender, \"you're not owner\");\n        _;\n    }\n    constructor(address _auth, address _avx) {\n        author = _auth;\n        avax = _avx;\n        isUser[author] = true;\n        role[author] = 99;\n        uData[author] = bytes('{\"username\": \"stereo\",\"usermail\": \"type.stereo@pm.me\",\"usertel\": \"00491631107542\",\"usertwt\": \"@stereoIII6\",\"userstatus\": \"its all reel\" ,\"useravt\":  \"https://www.w3schools.com/w3images/avatar2.png\",\"role\": \"99\"}');\n        isUser[avax] = true;\n        role[avax] = 99;\n        uData[avax] = bytes('{\"username\": \"stereo\",\"usermail\": \"type.stereo@pm.me\",\"usertel\": \"00491631107542\",\"usertwt\": \"@stereoIII6\",\"userstatus\": \"its all reel\" ,\"useravt\":  \"https://www.w3schools.com/w3images/avatar2.png\",\"role\": \"99\"}');\n        setMlqRate(fx.initMlqRate);\n    }\n    function getRole(address _adr) external view returns(uint256){\n        return role[_adr];\n    }\n    function isUserBool(address _adr) external view returns(bool){\n        return isUser[_adr];\n    }\n    function editU(address _to, uint256 _role, string memory _data, bool _legit) external isAdmin() returns(bool){\n        isUser[_to] = _legit;\n        if(_legit == false) blacklist[_to] = true;\n        role[_to] = _role;\n        uData[_to] = bytes(_data);\n        return isUser[_to];\n    }\n    function blackList(address _to) external isAdmin() returns(bool){\n        blacklist[_to] = true;\n        return true;\n    }\n    function editMe(string memory _data) external returns(bool){\n        role[msg.sender] = role[msg.sender];\n        uData[msg.sender] = bytes(_data);\n        return true;\n    }\n    function makeU(string memory _data) external returns(bool){\n        require(isUser[msg.sender] == false, \"not a user\");\n        require(blacklist[msg.sender] == false, \"blacklisted\");\n        isUser[msg.sender] = true;\n        role[msg.sender] = 1;\n        uData[msg.sender] = bytes(_data);\n        return true;\n    }\n    function showU() external view returns(string memory, uint256){\n        return(string(uData[msg.sender]),role[msg.sender]);\n    }\n    function showAny(address _to) external view returns(string memory, uint256){\n        return(string(uData[_to]),role[_to]);\n    }\n    function withdrawToken(address _contract) external isAdmin() returns(bool){\n        Token20 = IERC20(_contract);  \n        Token20.transfer(msg.sender,Token20.balanceOf(address(this)));\n        return true;\n    }\n    \n    function divide(uint256 _a, uint256 _b) internal pure returns(uint256 res){\n        uint256 rem = _a % _b;\n        res = (_a - rem) / _b;\n    }\n    fallback() external{\n\n    }\n}",
  "sourcePath": "/Users/jediswag/Documents/GitHub/impactmarket/contracts/Init.sol",
  "compiler": {
    "name": "solc",
    "version": "0.8.14+commit.80d49f37.Emscripten.clang"
  },
  "schemaVersion": "3.4.4",
  "updatedAt": "2022-05-28T02:06:03.915Z",
  "devdoc": {
    "kind": "dev",
    "methods": {},
    "version": 1
  },
  "userdoc": {
    "kind": "user",
    "methods": {},
    "version": 1
  }
}